:020000040800F2
:10000000D8690020112200081B0300081D03000806
:100010002103000825030008290300080000000050
:100020000000000000000000000000002D03000898
:100030002F0300080000000031030008330300080C
:100040002B2200082B2200082B2200082B2200085C
:100050002B2200082B2200082B2200082B2200084C
:100060002B2200082B2200082B2200082B2200083C
:100070002B2200082B2200082B2200082B2200082C
:100080002B2200082B2200082B220008637C00088A
:10009000797C00082B2200082B2200082B22000864
:1000A0002B2200082B2200082B2200082B220008FC
:1000B0002B2200082B2200082B2200082B220008EC
:1000C0002B2200082B2200082B2200082B220008DC
:1000D0002B2200080B8300082B220008B78500089C
:1000E0002B2200082B2200082B2200082B220008BC
:1000F0002B2200082B2200082B2200082B220008AC
:100100002B2200082B2200089B7800082B220008D5
:100110002B2200082B2200082B2200082B2200088B
:100120002B2200082B2200082B2200082B2200087B
:100130002B2200082B2200082B220008B57D000886
:10014000CB7D00082B2200082B2200082B22000860
:100150002B2200082B2200082B2200082B2200084B
:100160002B2200082B2200082B2200082B2200083B
:100170002B2200082B2200082B2200082B2200082B
:100180002B2200082B22000800F002F800F0B6F83D
:100190000AA090E8000C82448344AAF10107DA45E2
:1001A00001D100F0ABF8AFF2090EBAE80F0013F07E
:1001B000010F18BFFB1A43F00103184750C4000099
:1001C00070C4000010F8013B0A4413F0030408BF98
:1001D00010F8014B1D1108BF10F8015B641E05D01B
:1001E00010F8016B641E01F8016BF9D1002D15D0D8
:1001F00010F8014B03F00C030C2BA1EB04040ABF15
:1002000010F8013BA4EB8314A4EB032405F10103D4
:1002100014F8016B5B1E01F8016BF9D5914238BFF0
:1002200010F8013BD1D3704700230024002500269D
:10023000103A28BF78C1FBD8520728BF30C148BF49
:100240000B6070476E2908F05D87702909F09F8068
:1002500066290BF0208565290BF01D8567290BF0B9
:100260001A8561290BF0198503681B0A28BF41F024
:100270008001692908F00A87642908F00787752931
:1002800008F004876F2909F02C80782909F06B8029
:10029000E92908F0C787E42908F0C487F52908F0A0
:1002A000C187EF2909F02980F82909F06A800368DD
:1002B000DB0928BF41F08001632909F06F857329AC
:1002C00009F07485E32909F07F85F32909F0848515
:1002D000002070471FB50BF0D4FC09F0D3FD0400DB
:1002E000002000210AF0BAFF401C606000200021BD
:1002F0000AF09EFFE0601FBD10B510BD09F094FD2F
:100300001146FFF7E7FF00F047F809F06DFE03B470
:10031000FFF7F2FF03BC09F0B1FE704700BFFEE734
:1003200000BFFEE700BFFEE700BFFEE77047704773
:10033000704710B505F08FFE05F096FE10BD000069
:1003400010B505F05BFE07F0B9FE4FF4FC631A46EA
:100350000021022006F0D6F905F0B6FF07F03DF8BF
:1003600007F018FB08F00AF807F037F807F0B6FBBB
:1003700007F0F4FB07F09AFC07F02FF807F063F89A
:1003800043F24431182007F01DFA08F083F908F011
:1003900008FA08F00FFB10BD2DED028B82B0FFF7BD
:1003A000CFFF01F08EFE9FED480A484880ED000A1D
:1003B000474890ED0F0A474880ED000A464890ED07
:1003C0000F0ADFED460A30EE200A454880ED000AAC
:1003D000002406E0A0B206F004FF424941F82400E0
:1003E000641C122CF6DB6DE005F04DFE3E490968F9
:1003F000884267D005F047FE3B4908600846006820
:100400001421B0FBF1F201FB120008B908F056FD0F
:10041000354800683221B0FBF1F201FB12000028E0
:100420004ED106F0B1FA31A20221002006F057FBAE
:100430002D48036831A20321002006F050FB244818
:1004400090ED0F0A10EE101A08460BF0A9FB41ECD4
:10045000180B8DED008B2AA20421002006F03FFB33
:10046000294800680BF09CFB41EC180B8DED008BCC
:1004700026A20521002006F032FB2748B0F90C30F7
:1004800026A20621002006F02AFB2348B0F90E30F0
:1004900024A20721002006F022FB1F4823A20821E6
:1004A0004369002006F01BFB1B4822A20921836937
:1004B000002006F014FB06F098FB204805F018FF1A
:1004C00000F0BEFD90E70000000070421810002010
:1004D000CC6000201C1000200C610020000085432F
:1004E00020100020F854002000100020496E6661A2
:1004F0006E7472792056312E33000000256400009E
:100500005961773A25660000041000204465627541
:10051000673A2566000000008C610020585F733A3E
:1005200025640000595F733A25640000585F703AF3
:1005300025640000595F703A2564000038BD00084A
:100540000CB50020019000907648006840F480309F
:100550007449086000BF7348006800F400300090E0
:100560000198401C0190009818B90198B0F5A04F6F
:10057000F1D16C48006800F4003010B10120009007
:1005800001E0002000900098012846D165484030E5
:10059000006840F08050634940310860624800685C
:1005A00040F44040604908605E48083000685D499A
:1005B000083108600846006840F4004008600846BA
:1005C000006840F4A05008605848091F0860081FE0
:1005D000006840F08070091F086000BF5148006843
:1005E00000F000700028F9D040F205705049086012
:1005F0004C480830006820F003004A490831086080
:100600000846006840F00200086000BF4548083016
:10061000006800F00C000828F8D10CBD10B5454862
:10062000006840F47000434908603E48006840F0AC
:1006300001003C49086000203A4908310860394807
:1006400000683D490840374908603C48091D08607A
:10065000081F006820F48020091F0860002031492D
:100660000C310860FFF76CFF4FF0006031498039B2
:10067000086010BD70B50020002202230024022172
:10068000284D08352D6805F00C0020B1042806D04F
:10069000082834D107E02A4D2A4E356033E02A4D30
:1006A000284E35602FE01F4D2D1D2D68C5F3805459
:1006B0001C4D2D1D2D6805F03F0154B1224DB5FB99
:1006C000F1F5184E361D3668C6F3881605FB06F29E
:1006D00009E01B4DB5FBF1F5124E361D3668C6F329
:1006E000881605FB06F20F4D2D1D2D68C5F301453B
:1006F0006D1C6B00B2FBF3F5124E356003E0104D3C
:10070000104E356000BF00BF064D08352D68C5F39B
:1007100003150E4E705D0B4D2D68C540094E3560BA
:1007200070BD0000003802400070004008544007CF
:10073000003C024088ED00E0FFFFF6FE1030002490
:100740000024F4003410002000127A003810002039
:100750002DE9F0472DED0A8B84B000200290039024
:1007600001900027B6EE080AB0EE408A102007F08C
:10077000BFFD8246202007F0BBFDAAEB0004204607
:100780000AF0EFFF9FEDFE0B53EC102B0BF014F86B
:1007900041EC1A0B18EE100A0BF002FA53EC1A2B6C
:1007A0000AF0B0FD0AF07CFD08EE100A082007F000
:1007B0009FFD0446042007F09BFD201A4FF425718D
:1007C00010FB01F000EE100AF8EEC00AEE48B0F996
:1007D000000000EE100AB8EEC00A10EE880ABDEE66
:1007E000C00A10EE100A00B2ADF80800012007F0B0
:1007F0007FFD0446022007F07BFD201A4FF425718F
:1008000010FB01F000EE100AF8EEC00ADE48B0F965
:10081000020000EE100AB8EEC00A10EE880ABDEE23
:10082000C00A10EE100A00B2ADF80A00802007F0EE
:100830005FFD0446402007F05BFD201A4FF4257150
:1008400010FB01F000EE100AF8EEC00ACE48B0F935
:10085000040000EE100AB8EEC00A10EE880ABDEEE1
:10086000C00A10EE100A00B2ADF80C004FF00208FA
:100870006FF00109002418E002A901EB44004A4688
:10088000414601F000FCC14830F8140002A931F8DB
:100890001410084400B2BD4921F81400084630F88D
:1008A0001400B94921F81400641C032CE4DBB84897
:1008B000808980004042B7490988401A00B2ADF8EB
:1008C0000400B348008B40004042B2494988401AB6
:1008D00000B2ADF8060004256E423246294601A852
:1008E00001F0D1FB324629460DF1060001F0CBFBA9
:1008F000A9480088BDF80410084400B2A649088041
:1009000008460088A3490880A3484088BDF806101F
:10091000084400B2A0494880084640889D49488064
:100920009D48B0F90000002802DA00F071FD38B9E6
:100930009948B0F90000002807DD00F07CFD20B1E7
:10094000002095490880934908809348B0F9020037
:10095000B0F5567F11DB00F081FD70B140F25730E9
:100960008D4948808B4948808B49B1F90210484233
:1009700000EBD0714A1086498A618748B0F90200BD
:10098000002810DA00F07DFD68B10020824948801F
:10099000804948808049B1F90210484200EBD0718B
:1009A0004A107B498A614FF4804007F0A1FC07465A
:1009B0003FB100221146104601F085F900F0FCFD20
:1009C00097E04FF4807007F093FCC0B100207249AB
:1009D000088070490880704948806E49488000212D
:1009E0006B488161084600F073FC684BB3F9042042
:1009F000B3F90210B3F9000001F030FA79E04FF4D6
:100A0000005007F075FC18B32824634AB2F90210AD
:100A1000624A128812FB04F210B200F0D8FB00F018
:100A20000AFD20B14FF0FF305C49088005E000F07E
:100A3000EFFC10B101205949088058480088DC219A
:100A400010FB01F002B20021084601F03CF950E031
:100A50004F48807A012812D100F044FD38B94E4A3F
:100A6000B2F90210B2F9000000F057FC38E04A4A2F
:100A7000B2F90210B2F9000000F0A9FB30E04848DA
:100A8000008868B900F0C4FC38B900F0D4FC20B983
:100A90004FF4007007F02CFC10B101204049088091
:100AA0003F480088A8B100F01DFD38B93A4AB2F9B4
:100AB0000210B2F9000000F030FC11E000203849CB
:100AC0000880354AB2F90210B2F9000000F07FFB4D
:100AD00006E0314AB2F90210B2F9000000F077FBEB
:100AE0002A4BB3F90420B3F90210B3F9000001F066
:100AF000EAF804B0BDEC0A8BBDE8F08700B593B00E
:100B000000200346024601460090264807F065FA99
:100B10001F484088244908801D48808848801C4818
:100B2000C08888800846B0F90400B0F5167F53DD10
:100B30000846B0F9000010F1DC0F7CDA0846B0F985
:100B40000200DC2849DD194890ED0F0A1848D0ED65
:100B5000000A30EE600AB1EE400AF3EE0B0A80EEB6
:100B6000201ABDEEC10A10EE100A00B21149088029
:100B7000114890ED0F0A1148D0ED000A20E0000066
:100B8000000000000000D03F58200020602000201E
:100B90008C6100206C200020682000207220002042
:100BA000702000200064004074200020CC600020F1
:100BB0001C100020F85400200C61002020100020A0
:100BC00030EE600AF3EE030A80EE201ABDEEC10A91
:100BD00010EE100A00B2888464E1FE48B0F9020009
:100BE00010F1DC0F28DAFC4890ED0F0AFB48D0ED3D
:100BF000000A30EE600AB1EE400AF3EE0B0A80EE16
:100C0000201ABDEEC10A10EE100A00B2F4490883A2
:100C1000F44890ED0F0AF448D0ED000A30EE600A77
:100C2000F3EE030A80EE201ABDEEC10A10EE100AA0
:100C300000B2888736E127E0E74890ED0F0AE748E1
:100C4000D0ED000A30EE600AB1EE400AF3EE0B0A76
:100C500080EE201ABDEEC10A10EE100A00B2E04983
:100C60008881E04890ED0F0ADF48D0ED000A30EEB1
:100C7000600AF3EE030A80EE201ABDEEC10A10EE00
:100C8000100A00B208860DE1D248B0F90000DC2855
:100C90007DDDD048B0F90200DC2827DDCE4890ED9C
:100CA0000F0ACE48D0ED000A30EE600AB1EE400ADD
:100CB000F3EE0B0A80EE201ABDEEC10A10EE100A08
:100CC00000B2C7490881C74890ED0F0AC648D0ED69
:100CD000000A30EE600AF3EE030A80EE201ABDEE41
:100CE000C10A10EE100A00B28885DBE0B948B0F9FD
:100CF000020010F1DC0F28DAB74890ED0F0AB74870
:100D0000D0ED000A30EE600AB1EE400AF3EE0B0AB5
:100D100080EE201ABDEEC10A10EE100A00B2B049F2
:100D20000884B04890ED0F0AAF48D0ED000A30EECD
:100D3000600AF3EE030A80EE201ABDEEC10A10EE3F
:100D4000100A00B2A1F84400ACE0A34890ED0F0AED
:100D5000A248D0ED000A30EE600AB1EE400AF3EE90
:100D60000B0A80EE201ABDEEC10A10EE100A00B286
:100D70009B4988829B4890ED0F0A9B48D0ED000A62
:100D800030EE600AF3EE030A80EE201A00E006E07F
:100D9000BDEEC10A10EE100A00B2088782E08D484D
:100DA000B0F90200DC2827DD8B4890ED0F0A8B4854
:100DB000D0ED000A30EE600AB1EE400AF3EE0B0A05
:100DC00080EE201ABDEEC10A10EE100A00B284496E
:100DD0008880844890ED0F0A8348D0ED000A30EEF9
:100DE000600AF3EE030A80EE201ABDEEC10A10EE8F
:100DF000100A00B2088555E07648B0F9020010F1FB
:100E0000DC0F28DA744890ED0F0A7448D0ED000A20
:100E100030EE600AB1EE400AF3EE0B0A80EE201AC3
:100E2000BDEEC10A10EE100A00B26D4988836D480C
:100E300090ED0F0A6C48D0ED000A30EE600AF3EE38
:100E4000030A80EE201ABDEEC10A10EE100A00B2AD
:100E5000A1F8400026E0604890ED0F0A5F48D0ED11
:100E6000000A30EE600AB1EE400AF3EE0B0A80EEA3
:100E7000201ABDEEC10A10EE100A00B258490882CD
:100E8000584890ED0F0A5848D0ED000A30EE600A3D
:100E9000F3EE030A80EE201ABDEEC10A10EE100A2E
:100EA00000B288865148807A02281AD150480088BA
:100EB000B8B901204E490880002006E0484951F8A1
:100EC000201001AA42F82010401C1228F6DB122143
:100ED00001A806F069F964227821464804F0DFFE93
:100EE00000BF13B000BD7CB50020414908800090D0
:100EF00001903E48408840490988401A00B2ADF848
:100F000000003A4880883C494988401A00B2ADF850
:100F100002003649B1F906104842C11700EB917141
:100F2000354A9288C2EBA10109B2ADF804102F48EE
:100F300000893149C988401A00B2ADF8060002257F
:100F40002E1F002417E0694601EB44003246294673
:100F500001F099F8294830F814003DF814100844BD
:100F600000B2264921F81400084630F8140022493E
:100F700021F81400641C042CE5DB2048B0F90400BF
:100F8000002802DA00F044FA38B91C48B0F904002D
:100F9000002807DD00F04FFA20B1002017498880B3
:100FA000154988801548B0F90600B0F5567F08DB72
:100FB00000F054FA28B140F257301049C8800E4969
:100FC000C8800E48B0F9060000281EDA00F059FA71
:100FD000D8B115E074200020CC6000201C10002047
:100FE000F85400200C610020201000208C610020AB
:100FF0003010002034C0000848200020502000207D
:1010000000202849C8802849C88000F06BFA38B908
:10101000244AB2F90610B2F9040000F07EF906E0A5
:10102000204AB2F90610B2F9040000F0D0F81D4AC7
:10103000B2F90210B2F90000002200F044FE7CBDBB
:1010400008B51A48C07A01281AD100200346024682
:1010500001460090164806F0C0FF002003460246F5
:1010600001460090134806F0B8FF13480068134982
:10107000086001F026F800210C48416181610FE011
:101080000A48C07A032809D10848807A012802D189
:10109000FFF729FF04E0FFF731FD01E0FFF758FB00
:1010A00008BD000050200020482000208C61002056
:1010B00000640040006800400C1000200810002070
:1010C00010B50446F648406B00EE100AB8EEC00AB0
:1010D000F44880ED0F0AB2EE0E2ADFEDF31A9FED11
:1010E000F31ADFEDF30A00EE104AB8EEC00A2C3016
:1010F00000F040FBBDEEC00A10EE100A00B210BDB9
:1011000070B5044600EE104AB8EEC00AE948D0EDCA
:10111000000A30EE200ABDEEC00A10EE100A04B23A
:10112000DF4890ED0F0AE44880ED0F0AE14890EDAA
:10113000000ADFEDDF1A30EE610AB0EE401A90EDE2
:10114000000ADFEDDB1A30EE210AF0EE400AB3EEC2
:101150000E2ADFEDD51A00EE104AB8EEC00AD648C6
:101160002C3000F007FBBDEEC00A10EE100A05B2ED
:101170002846FFF7A5FF70BD10B50446CF48406B69
:1011800000EE100AB8EEC00AC64880ED040AB2EEBE
:101190000E2ADFEDC51A9FEDC51ADFEDC50A00EE78
:1011A000104AB8EEC00A00F0E5FABDEEC00A10EE33
:1011B000100A00B210BD38B504460D4600200346A3
:1011C0002A4621460090BE4806F007FF38BD2DE9AB
:1011D000F04105460C462046FFF792FF064628469A
:1011E000FFF7CAFF07463146FFF7E5FFBDE8F0818C
:1011F00070B504462046FFF7BFFF05460021FFF704
:10120000DAFF70BD2DE9F04105460C462046FFF798
:1012100057FF06462846FFF7AFFF07463146FFF760
:10122000CAFFBDE8F08170B504460D4600EE104AD5
:10123000B8EEC00AA348D0ED000A30EE200ABDEE99
:10124000C00A10EE100A04B29C4890ED0F0A9A48AA
:1012500080ED040A9B4890ED000ADFED951A30EE10
:10126000610AB0EE401A90ED000ADFED911A30EEFF
:10127000210AF0EE400AB3EE0E2ADFED8B1A00EEE3
:10128000104AB8EEC00A8C4800F074FAF0EE400A3A
:1012900000EE105AB8EEC00A30EE800ABDEEC00A69
:1012A00010EE100A06B23046FFF766FF70BD10B5AB
:1012B000044600212046FFF7B6FF10BD70B5044676
:1012C0002046FFF7F4FF05460021FFF774FF70BDCD
:1012D0002DE9F04105460C462046FFF711FF064672
:1012E0002846FFF7E4FF07463146FFF764FFBDE8F5
:1012F000F0812DE9F04106460C4615462946304658
:10130000FFF791FF07462046FFF7FAFE8046414669
:101310003846FFF750FFBDE8F08170B52DED028B28
:1013200004460D46654890ED0F0A6648D0ED000A68
:1013300030EE600A644880ED040A9FED640A00F014
:10134000BEF9B0EE408A624890ED000AB8EEC00ADD
:10135000F2EE040A00EE880ABDEEC00A5D4880ED98
:10136000000A564991ED0F0A5649D1ED000A30EEB8
:10137000600AF3EE0B0A08EE200ABDEEC00A10EE7A
:10138000101A08B222462946FFF7B3FFBDEC028BC4
:1013900070BD70B52DED028B04460D4616464748CC
:1013A00090ED0F0A4748D0ED000A30EE600A4A4837
:1013B00080ED040A00EE104AB8EEC00A00F07FF992
:1013C000B0EE408A424890ED000AB8EEC00AF2EE54
:1013D000040A00EE880ABDEEC00A3E4880ED000A0D
:1013E000364991ED0F0A3749D1ED000A30EE600A17
:1013F000F3EE040A08EE200ABDEEC00A10EE101A41
:1014000008B22A463146FFF774FFBDEC028B70BD6F
:101410002A4890ED0F0A2B48D0ED000A9FED2F1AB5
:1014200070EEC10AB4EEE00AF1EE10FA01D201202A
:1014300070470020FCE7214890ED0F0A2148D0EDCD
:10144000000A9FED261A70EE810AB4EEE00AF1EE72
:1014500010FA01DD012070470020FCE7104890EDF4
:101460000F0A1448D0ED000A9FED1D1A70EE810A94
:10147000B4EEE00AF1EE10FA01DD01207047002021
:10148000FCE7074890ED0F0A0A48D0ED000AB4EED9
:10149000E00AF1EE10FA01D2012070470020FCE7CB
:1014A0000C610020F05200200000C842000025C45A
:1014B000000025442010002048530020CC6000206C
:1014C000006400401C100020A05300200000000019
:1014D0000C10002008100020CC5300200080CA44CB
:1014E00000C0554410B55D48D0ED0F0A5C4890ED42
:1014F000001A70EEC10AB0EE600AB3EE0B1A5FED8F
:101500000D0A00F0CCFD10BD70B5044655480068CA
:1015100055490860601C88B3544830F824006FF0C7
:101520001A0110FB01F005B2504904F1090031F82D
:10153000200000EB400101EB001006B240F25460C5
:10154000854200DD00E0284605464948854200DA2C
:1015500000E028460546B6F5567F02DB40F25730DC
:1015600000E030460646002E01DA002000E030465A
:10157000064631462846FFF7ABFE1CE0FFE73D4A32
:1015800092ED0F0A3C4AD2ED000A30EE600ABDEE41
:10159000C00A10EE102A11B2304A92ED0F0A304AFA
:1015A000D2ED000A30EE600ABDEEC00A10EE102A3D
:1015B00010B2FFF78DFE70BD10B5402006F098FE0A
:1015C00018B10020FFF7A0FF46E0012006F090FED2
:1015D00018B10120FFF798FF3EE0802006F088FE5A
:1015E00018B10220FFF790FF36E0042006F080FEDD
:1015F00018B10320FFF788FF2EE0022006F078FEE6
:1016000018B10420FFF780FF26E0082006F070FEE6
:1016100018B10520FFF778FF1EE04FF4006006F0D8
:1016200067FE18B10620FFF76FFF15E04FF48050FA
:1016300006F05EFE18B10720FFF766FF0CE04FF4DE
:10164000005006F055FE18B10820FFF75DFF03E0DB
:101650004FF0FF30FFF758FF10BD0000CC600020B6
:101660001C1000200C10002008100020F85400204E
:10167000ACF9FFFF0C6100202010002080ED000A73
:10168000C0ED010A80ED021AC0ED0A1A9FEDFE2A94
:1016900080ED032A9FEDFC2A80ED042A9FEDFA2AB3
:1016A00080ED052A9FEDF82A80ED072A9FEDF62AA6
:1016B00080ED082A9FEDF42A80ED092A7047F0EEAC
:1016C000400AC0ED030A90ED030A90ED041A30EED3
:1016D000410A80ED070A90ED080A90ED071A30EEF6
:1016E000010A80ED080A90ED070A90ED051A30EE28
:1016F000410A80ED090A90ED070A80ED050A90ED98
:10170000000A90ED071A20EE010A90ED011AD0EDC3
:10171000081A01EE210A90ED021AD0ED091A01EE25
:10172000210A80ED060A90ED060A90ED0A1AB4EE41
:10173000C10AF1EE10FA02DD90ED0A0A01E090ED27
:10174000060A80ED060A90ED060A90ED0A1AB1EE3F
:10175000411AB4EEC10AF1EE10FA04D290ED0A0A71
:10176000B1EE400A01E090ED060A80ED060A90ED28
:10177000060A704710B52DED088B0446B0EE409A6E
:10178000F0EE609AB0EE41AAB0EE618AF0EE428AC5
:10179000B7EE000AF0EE40AA84ED039A94ED030A36
:1017A000D4ED040A30EE600A84ED070A94ED040AD1
:1017B000B4EEE90AF1EE10FA7ADD94ED070A10EEC4
:1017C000101A08460AF0ECF941EC1B0BB0EE4B0A7C
:1017D000F0EE6B0A09F017FD00EE100AB8EEC00A31
:1017E000B4EEC80AF1EE10FA04DD9FEDA70AF0EEA0
:1017F00040AA44E194ED070A10EE101A08460AF0D8
:10180000CFF941EC1B0BB0EE4B0AF0EE6B0A09F07E
:10181000FAFC00EE100AB8EEC00AB4EEE80AF1EEE7
:1018200010FA16D2B7EE000AF0EE40AAD4ED080A7C
:1018300094ED070AB5EEC00AF1EE10FA02D294ED6B
:10184000070A01E09FED900A30EE800A84ED080A55
:1018500015E194ED070A10EE101A08460AF0A0F9F7
:1018600041EC1B0BB0EE4B0AF0EE6B0A09F0CBFC1F
:1018700000EE100AB8EEC00A38EE400A78EE680AA8
:1018800080EE201AF0EE41AAD4ED080A94ED070A82
:10189000B5EEC00AF1EE10FA03D294ED070A02E0A9
:1018A00006E09FED790A30EE800A84ED080AE6E052
:1018B00094ED040AB4EECA0AF1EE10FA7AD294ED6D
:1018C000070A10EE101A08460AF06AF941EC1B0BE1
:1018D000B0EE4B0AF0EE6B0A09F095FC00EE100A30
:1018E000B8EEC00AB4EEC80AF1EE10FA04DD9FEDBE
:1018F000660AF0EE40AAC2E094ED070A10EE101A54
:1019000008460AF04DF941EC1B0BB0EE4B0AF0EE25
:101910006B0A09F078FC00EE100AB8EEC00AB4EECB
:10192000E80AF1EE10FA16D2B7EE000AF0EE40AA7D
:10193000D4ED080A94ED070AB5EEC00AF1EE10FAEC
:1019400002DD94ED070A01E09FED4F0A30EE800AB8
:1019500084ED080A93E094ED070A10EE101A084689
:101960000AF01EF941EC1B0BB0EE4B0AF0EE6B0ACD
:1019700009F049FC00EE100AB8EEC00A38EE400A41
:1019800078EE680A80EE201AF0EE41AAD4ED080A3B
:1019900094ED070AB5EEC00AF1EE10FA03DD94EDFE
:1019A000070A02E006E09FED380A30EE800A84ED77
:1019B000080A64E094ED070A10EE101A08460AF0CF
:1019C000EFF841EC1B0BB0EE4B0AF0EE6B0A09F09E
:1019D0001AFC00EE100AB8EEC00AB4EEC80AF1EE26
:1019E00010FA04DD9FED280AF0EE40AA47E094EDDE
:1019F000070A10EE101A08460AF0D2F841EC1B0B49
:101A0000B0EE4B0AF0EE6B0A09F0FDFB00EE100A97
:101A1000B8EEC00AB4EEE80AF1EE10FA0CD2B7EE56
:101A2000000AF0EE40AA94ED080AD4ED070A30EE61
:101A3000200A84ED080A22E094ED070A10EE101A3D
:101A400008460AF0ADF841EC1B0BB0EE4B0AF0EE85
:101A50006B0A09F0D8FB00EE100AB8EEC00A38EEA7
:101A6000400A78EE680A80EE201AF0EE41AA94ED62
:101A7000080AD4ED070A30EE200A84ED080A94ED36
:101A8000070AD4ED050A01E00000000030EE600A0C
:101A900084ED090A94ED070A84ED050A94ED000A25
:101AA000D4ED070A20EE200AD4ED010A60EEAA0A5E
:101AB00094ED081A00EE810AD4ED020A94ED091A99
:101AC00000EE810A84ED060A94ED060AD4ED0A0AB6
:101AD000B4EEE00AF1EE10FA02DD94ED0A0A01E03C
:101AE00094ED060A84ED060A94ED060AD4ED0A0A7E
:101AF000F1EE600AB4EEE00AF1EE10FA04D294EDD1
:101B00000A0AB1EE400A01E094ED060A84ED060AE5
:101B100094ED060ABDEC088B10BD00002DE9F05FC6
:101B20002DED068B05460C461646B0EE408AF0EECB
:101B3000608AB0EE419A9B469FEDFE0A10EE107A45
:101B4000FD480068FD490968401A4FF4616190FB47
:101B5000F1F201FB12000A2190FBF1F000EE100AF5
:101B6000B8EEC00A10EE107AA846A24638460AF02F
:101B700017F841EC1A0BB0EE4A0AF0EE6A0A09F0C7
:101B80004EFB00FB0AF938460AF00AF841EC1A0B42
:101B9000B0EE4A0AF0EE6A0A09F02DFB08FB00904D
:101BA00005B2384609F0FCFF41EC1A0BB0EE4A0AC8
:101BB000F0EE6A0A09F01FFB00FB0AF9384609F04B
:101BC000EFFF41EC1A0BB0EE4A0AF0EE6A0A09F098
:101BD00026FB08FB009004B200EE105AB8EEC00AD3
:101BE00020EE080ABDEEC00A10EE100A05B200EEA3
:101BF000104AB8EEC00A20EE280ABDEEC00A10EE68
:101C0000100A04B200EE106AB8EEC00A20EE090A0B
:101C1000BDEEC00A10EE100A06B26019304400B2E0
:101C2000C7490880601B301A00B248806019301A1A
:101C300000B28880601B304400B2C8800846BDEC0A
:101C4000068BBDE8F09F30B50446012A03DA002A6E
:101C500001DB1A4603E0BB480068B74D286001EE7F
:101C6000904AF8EEE11A61EE801AFDEEE11A11EEEB
:101C7000900A04B201EE901AF8EEE11A61EEA01A91
:101C8000FDEEE11A11EE900A01B201EE902AF8EE93
:101C9000E11A61EE811AFDEEE11A11EE900A02B22C
:101CA0000819104400B2A64D2880081B101A00B273
:101CB00068800819101A00B2A880081B104400B2EE
:101CC000E880284630BD2DE9F0412DED028B84B02F
:101CD00006460F4690469B480068984908600846AB
:101CE00090ED000AB8EEC00A974880ED040A9748C4
:101CF00090ED000A964880ED040ABBEE0E2AF3EE42
:101D00000E1A9FED941ADFED940A8B4890ED000AAD
:101D1000B8EEC00A8C48FFF72DFDBDEEC00A10EEEC
:101D2000100A04B22346B6EE001AF7EE000AB7EE28
:101D3000000A424639463046FFF785FF0546874888
:101D4000406B00EE100AB8EEC00A854880ED040A28
:101D50008448406B00EE100AB8EEC00A804880ED5F
:101D60000F0A8148406B00EE100AB8EEC00A7C48AA
:101D700080ED1A0A7D48406B00EE100AB8EEC00AEA
:101D8000774880ED250AB7EE000AB0EE408A6F482A
:101D900090ED000ADFED760AB4EEE00AF1EE10FAFB
:101DA00016D29FED730A6A48FFF789FCF7EE000A26
:101DB00030EEC00AB0EE408AB5EEC08AF1EE10FAFD
:101DC00002DDB0EE480A01E0B1EE480AB0EE408A0A
:101DD000002430E035F9140000EE100AB8EEC00A15
:101DE00020EE080ABDEEC00A10EE100A00B225F877
:101DF000140035F9141000EE901AF8EEE00AB0EE77
:101E0000600A04EB440101EBC401554A02EB810076
:101E1000B2EE0E2ADFED571A9FED571ADFED570A83
:101E2000FFF7A8FCBDEEC00A10EE100A00B202A92E
:101E300021F81400641C042CCCDBBDF90E000090CA
:101E4000BDF90C30BDF90A20BDF908104C4806F068
:101E5000C4F804B0BDEC028BBDE8F0812DE9F0417F
:101E60002DED028B84B006460F469046354800683B
:101E700032490860084600682F4908602F4890EDF5
:101E8000000AB8EEC00A304880ED040A2F4890EDF1
:101E9000000A2F4880ED040ABBEE0E2AF3EE0E1A5C
:101EA0009FED2C1ADFED2C0A084690ED000AB8EEE3
:101EB000C00A2548FFF75EFCBDEEC00A10EE100A0E
:101EC00004B22346B6EE001AF7EE000AB7EE000A97
:101ED000424639463046FFF7B6FE05461F48406B7E
:101EE00000EE100AB8EEC00A1D4880ED040A1D4835
:101EF000406B00EE100AB8EEC00A194880ED0F0AD8
:101F00001948406B00EE100AB8EEC00A144880ED84
:101F10001A0A1648406B00EE100AB8EEC00A1048C4
:101F200080ED250AB7EE000AB0EE408A074890ED32
:101F3000000A27E000000000081000200C1000201C
:101F4000101000201441002098520020181000208A
:101F5000C4520020000048C400004844CC5F002068
:101F6000E85100200C6000204C6000208C600020B4
:101F7000000070420000C842000025C40000254453
:101F8000006800405FED060AB4EEE00AF1EE10FAD8
:101F900016D21FED090A2E48FFF791FBF7EE000A53
:101FA00030EEC00AB0EE408AB5EEC08AF1EE10FA0B
:101FB00002DDB0EE480A01E0B1EE480AB0EE408A18
:101FC000002432E004EB440101EBC401214A02EB9E
:101FD0008101D1ED040AB0EE600A04EB440101EB8B
:101FE000C40102EB8100B2EE0E2A5FED1E1A1FED56
:101FF0001E1A5FED1E0AFFF7BDFB35F9140000EE57
:10200000100AB8EEC00A20EE080ABDEEC00A10EEB3
:10201000100A00B225F8140035F8140000EB400057
:1020200000B202A921F81400641C042CCADBBDF91B
:102030000E000090BDF90C30BDF90A20BDF9081062
:10204000054805F0CAFF04B0BDEC028BBDE8F08185
:10205000C4520020E85100200068004070B50446DA
:1020600004F011F8054600BF04F00DF8A842FBD0BB
:1020700000BF04F008F8401BB0FBF4F104FB1100B2
:102080000028F6D170BDB0F900308B4201DD01802F
:1020900004E0B0F90030934200DA0280704770EE3D
:1020A000601AF4EEC11AF1EE10FA08D270EEC01AFE
:1020B000F4EEC11AF1EE10FA01D2012070470020AF
:1020C000FCE710B5002422E004EB440101EBC4015D
:1020D0003D4A02EB8100DFED3D1A9FED3D1ADFED39
:1020E0003C0A9FED3C0AFFF7C9FA04EB440101EBFF
:1020F000C401394A02EB8100DFED341A9FED371A33
:10210000F1EE040A9FED360AFFF7B8FA641C042CBE
:10211000DADBDFED2E1A9FED311AF1EE040A9FEDA6
:10212000300A3048FFF7AAFADFED281A9FED2B1A84
:10213000F1EE040A9FED2A0A2A482C30FFF79EFA96
:10214000DFED221A9FED221ADFED210A9FED210A11
:102150002548FFF793FADFED1D1A9FED1D1ADFEDFD
:102160001C0A9FED220A20482C30FFF787FADFED8A
:10217000201A9FED171ADFED160AB1EE000A1D486E
:10218000FFF77CFADFED1C1A9FED111ADFED100A44
:102190009FED1A0A1A48FFF771FADFED1A1A9FED40
:1021A0000C1ADFED0B0A9FED150A1748FFF766FAC8
:1021B000DFED141A9FED061ADFED050A9FED0F0AF9
:1021C0001248FFF75BFA10BD3851002000409C46D2
:1021D000000000009A99193EE85100200000C84212
:1021E0000000A042F0520020485300203333B33E99
:1021F0000000A54398520020000070420AD7A33C7B
:10220000C452002000004842A0530020CC530020BC
:102210000948804709480047FEE7FEE7FEE7FEE77A
:10222000FEE7FEE7FEE7FEE7FEE7FEE704480549B6
:10223000054A064B704700001D060008890100088A
:10224000D8630020D8690020D8650020D865002018
:1022500032490143324A1160704770B500210023B2
:102260000F22C4781CB32E4C246804F4E064C4F537
:10227000E064C4F30721C1F10404E3B20A414478E5
:102280009C40E1B28478144021430C07210E254C78
:1022900005786155047804F01F050124AC400578E9
:1022A0006D11AD0005F1E025C5F8004109E00478A5
:1022B00004F01F050124AC401B4D0678761145F84B
:1022C000264070BD194A0A400243154B1B1F1A6075
:1022D000704739B1124A121D12680243104B1B1D80
:1022E0001A6006E00E4A121D126882430C4B1B1D39
:1022F0001A607047042808D14FF0E021096941F0C5
:1023000004014FF0E022116107E04FF0E02109697C
:1023100021F004014FF0E022116170470000FA053E
:102320000CED00E000E400E080E100E080FFFF1F32
:1023300010B50121080203F0D2FA00214FF4807099
:1023400003F0CDFA10BD30B50246002000235068DE
:10235000F84C20400D790C6844EA05242043506075
:102360009068F54C2040D1E903542C438D682C43F0
:102370004D7944EA450420439060D06A20F470000F
:102380000C7D641EE4B2234340EA0350D06230BDAA
:1023900000210160017141718160C1600161012111
:1023A000017570470021E54A1168E54A1140D0E9FE
:1023B00000231A4383681A43C3681A431143E14A4E
:1023C000C2F8041370470021016041608160C16060
:1023D000704721B1826842F00102826003E08268A6
:1023E00022F00102826070470A4600214168D64B04
:1023F00019401143416070474162826270470A464A
:102400000021416821F01F0111434160704738B13C
:10241000CA49096841F40001CA4AC2F8041306E037
:10242000C649096821F40001C64AC2F8041370477E
:1024300038B1C249096841F48001C24AC2F80413A4
:1024400006E0BE49096821F48001BE4AC2F80413BF
:102450007047F0B504460D4600200021092D11DD1E
:10246000E068A5F10A0606EB4607072606FA07F11B
:102470008843A5F10A0606EB460603FA06F108436F
:10248000E0600CE0206905EB4507072606FA07F136
:10249000884305EB450603FA06F108432061072A45
:1024A0000FDA606B561E06EB86071F2606FA07F149
:1024B0008843561E06EB860605FA06F1084360635C
:1024C00022E00D2A0FDA206BD61F06EB86071F26A7
:1024D00006FA07F18843D61F06EB860605FA06F1D1
:1024E0000843206310E0E06AA2F10D0606EB8607C0
:1024F0001F2606FA07F18843A2F10D0606EB8606B1
:1025000005FA06F10843E062F0BD816841F08041C0
:1025100081607047014600208A6802F080420AB15B
:10252000012000E00020704721B1826842F48062FF
:10253000826003E0826822F480628260704721B189
:10254000826842F00202826003E0826822F00202A6
:102550008260704710B50A4600210023416821F4CB
:102560006041531E41EA4331416010BD21B14268D0
:1025700042F40062426003E0426822F4006242607A
:1025800070470146C86C80B270476C48001D0068F7
:10259000704721B1826842F48072826003E08268F1
:1025A00022F480728260704721B1826842F4007226
:1025B000826003E0826822F400728260704738B162
:1025C0005E49096841F400515E4AC2F8041306E00E
:1025D0005A49096821F400515A4AC2F80413704755
:1025E000F0B504461546002000220026092911DD19
:1025F000E068A1F10A0707EB470C072707FA0CF27E
:102600009043A1F10A0707EB470703FA07F21043CB
:10261000E0600CE0206901EB410C072707FA0CF29F
:10262000904301EB410703FA07F210432061A06BCE
:10263000C0F30156EF1C06F1010CA7EB0C0707EBEA
:10264000870C1F2707FA0CF29043EF1C06F1010CD0
:10265000A7EB0C0707EB870701FA07F21043A0630B
:10266000F0BD10B50A4600210023816B21F4401112
:10267000531E41EA0351816310BD08B50023009346
:102680000090009B0B440093009B1A6008BD0A4613
:102690000021816821F470211143816070470A464E
:1026A0000021816821F440111143816070478168E5
:1026B00041F4800181607047014600208A6802F47D
:1026C00080020AB1012000E00020704721B1426879
:1026D00042F48062426003E0426822F48062426019
:1026E000704721B1426842F48052426003E0426880
:1026F00022F480524260704708B5024600200090E4
:10270000009201F12800009B184400900098006896
:1027100080B208BD10B50B460021D9B2012404FADD
:1027200001F11AB144680C43446002E044688C43F0
:10273000446010BDFFFEFFFCFDF7FFC00423014015
:10274000E030FCFF00200140FFFD3FFF024600207B
:1027500013680B400BB1012000E000207047CA4312
:102760000260704770B502460020002300240B125F
:10277000556801268E4005EA060415681D4015B10E
:102780000CB1012000E0002070BD00220A12D343EA
:102790000360704710B50446FE48844209D1012108
:1027A000480603F08BF800214FF0007003F086F824
:1027B00008E00121880603F081F800214FF08060D5
:1027C00003F07CF810BD30B50246002000231468E9
:1027D00024F002041460146844F00104146000E062
:1027E0005B1C546804F001041CB94FF6FF74A3424B
:1027F000F6D1546804F001040CB900206CE08C7927
:10280000012C04D1146844F08004146003E01468BF
:1028100024F080041460CC79012C04D1146844F0B5
:102820004004146003E0146824F0400414600C7A3F
:10283000012C04D1146844F02004146003E01468EF
:1028400024F0200414604C7A012C04D1146844F064
:102850001004146003E0146824F0100414608C7AEF
:10286000012C04D1146844F00804146003E01468D7
:1028700024F008041460CC7A012C04D1146844F0CC
:102880000404146003E0146824F0040414608C78D9
:10289000A407CD7844EA05640D7944EA05444D79EE
:1028A00044EA05540D886D1E2C43D461146824F04D
:1028B00001041460002300E05B1C546804F0010470
:1028C0001CB14FF6FF74A342F6D1546804F0010422
:1028D0000CB1002000E0012030BD10B50021837A4A
:1028E000012202FA03F1AC4A126842F00102AA4B3B
:1028F0001A60A94A1C3212688A43A74B1C331A601B
:10290000027BCAB9A44A0C3212688A43A24B0C3328
:102910001A604288C38842EA03439F4A4032847A5D
:1029200042F834300288838842EA03439A4A4032AC
:10293000847A02EBC4025360027B012A19D1964AC1
:102940000C3212680A43944B0C331A604288038895
:1029500042EA0343904A4032847A42F83430C288D3
:10296000838842EA03438C4A4032847A02EBC402F1
:102970005360C27A3AB9884A121D12688A43864B5C
:102980001B1D1A6006E0844A121D12680A43824B1E
:102990001B1D1A60028932B97F4A143212688A43B9
:1029A0007D4B14331A600289012A06D17A4A143207
:1029B00012680A43784B14331A60427B012A06D10D
:1029C000754A1C3212680A43734B1C331A60724AF0
:1029D000126822F00102704B1A6010BD0021817153
:1029E000C171017241728172C1728170C170032123
:1029F0000171022141710121018070476649096816
:102A000041F00101644A11601146096843F60E72F3
:102A10009143614A11601146096841EA0021116041
:102A20001146096821F001011160704721B1026867
:102A300042F48032026003E0026822F480320260D5
:102A40007047E1B1026842F0800202604FF4C27246
:102A5000125842F480734FF4C27213504FF4CA728A
:102A6000125842F480734FF4CA7213504FF4D2726A
:102A7000125842F480734FF4D27213501BE0026874
:102A800022F0800202604FF4C272125822F4807366
:102A90004FF4C27213504FF4CA72125822F480736A
:102AA0004FF4CA7213504FF4D272125822F480734A
:102AB0004FF4D2721350704710B50246002093684D
:102AC00003F08063B3F1806F00D110E0936803F0EE
:102AD0000063B3F1006F01D1012008E0936803F0B7
:102AE0008053B3F1805F01D1022000E0042004286C
:102AF00079D002F5C07303EB00131B6803F00104E7
:102B000002F5C07303EB00131C600B7A7BB94B7AA0
:102B10000C8843EA445302F5C07404EB00142468A3
:102B2000234302F5C07404EB0014236010E00B7A19
:102B30004C6843EAC4034C7A234302F5C07404EBA7
:102B400000142468234302F5C07404EB00142360CE
:102B50008B7A03F00F038B7202F5C07303EB001343
:102B60005B6823F00F0402F5C07303EB00135C6095
:102B700002F5C07303EB00135B688C7A234302F504
:102B8000C07404EB001463608B7B1C064B7B44EA2F
:102B9000034403E000640040006600400B7B44EA0D
:102BA0000323CC7A234302F5C07404EB0014A36022
:102BB0008B7C1C064B7C44EA03440B7C44EA0323D5
:102BC000CC7B234302F5C07404EB0014E36002F5F0
:102BD000C07303EB00131B6843F0010402F5C073DC
:102BE00003EB00131C6010BD10B50246002321B199
:102BF000012907D002290FD109E09068F94C00EAB9
:102C000004030BE09068F84C00EA040306E09068C7
:102C1000F64C00EA040301E0002300BF00BFF44CBF
:102C2000181BA34216D007DC83B16FF080601844F4
:102C300070B1022818D111E0B0F5007F10D0ED4C32
:102C4000204448B1B0F5003F0ED10BE002230DE067
:102C500000230BE0002309E0002307E0012305E047
:102C6000012303E0012301E0002300BF00BFD8B22D
:102C700010BD21B1012907D002290FD109E08268D6
:102C800042F0800282600AE0826842F40042826080
:102C900005E0826842F40002826000E000BF00BFED
:102CA000704710B500F5D87303EB01131B6803F0F0
:102CB00004031372137A53B900F5D87303EB0113AD
:102CC0001B6840F2FF7404EA5353136009E000F5F7
:102CD000D87303EB01131B686FF0604404EAD3035D
:102CE000536000F5D87303EB01131B6803F0020374
:102CF000537200F5D87303EB01135B6803F00F0305
:102D0000937200F5D87303EB01135B681B0AD3744D
:102D100000F5D87303EB01139B68D37200F5D873E9
:102D200003EB01139B681C0A147300F5D87303EBC3
:102D300001139B681C0C547300F5D87303EB01134B
:102D40009B681B0E937300F5D87303EB0113DB68CC
:102D5000D37300F5D87303EB0113DB681C0A1474FA
:102D600000F5D87303EB0113DB681C0C547400F5F9
:102D7000D87303EB0113DB681B0E937421B9C3688E
:102D800043F02003C36003E0036943F020030361C1
:102D900010BD21B9C26842F02002C26003E002699E
:102DA00042F02002026170470246002019B9D36840
:102DB00003F0030006E0012903D1136903F00300C7
:102DC00000E00020704710B502460B4600204FF689
:102DD000FF71BBB9146824F0020444F001041460CC
:102DE00000E0491E546804F00304012C01D00029BE
:102DF000F7D1546804F00304012C01D0002032E024
:102E0000012030E0012B13D1146824F00304146076
:102E100000E0491E546804F003040CB10029F8D105
:102E2000546804F003040CB100201CE001201AE0F7
:102E3000022B17D1146824F0010444F0020414603A
:102E400000E0491E546804F00304022C01D000295C
:102E5000F7D1546804F00304022C01D0002002E0F2
:102E6000012000E0002010BD014600200A6822F089
:102E7000010242F002020A604A6802F00302022ADA
:102E800000D10120704701464FF6FF7200200B6809
:102E900023F002030B6000E0521E4B6803F00203B4
:102EA000022B01D1002AF7D14B6803F00203022B59
:102EB00000D001207047014600208A6902F07000AE
:102EC0007047014600208A69100E704701460020B5
:102ED0008A69C2F3074070471AB143690B434361E3
:102EE00002E043698B434361704710B502460020FE
:102EF00001F4700343B19369C1F3130423400BB190
:102F000001202DE000202BE001F0807343B15368D5
:102F1000C1F3130423400BB1012021E000201FE086
:102F200001F0006343B19368C1F3130423400BB174
:102F3000012015E0002013E001F0007343B1D368D5
:102F4000C1F3130423400BB1012009E0002007E086
:102F50001369C1F3130423400BB1012000E00020EA
:102F600010BD0022244B994202D10023836111E05D
:102F7000C1F3130201F000730BB1C2600AE001F06B
:102F800080630BB1026105E001F000630BB1826068
:102F900000E0426070470246002002EA01030BB1E4
:102FA000012000E00020704770B504460D46002661
:102FB00060692840002872D0B5F5807F69D01DDC9B
:102FC000082D42D006DC012D2DD0022D31D0042D4C
:102FD0007FD134E0102D3ED0202D42D0402D78D12D
:102FE00045E0000003000004000300080000031097
:102FF000000100080001FFF77000F030B5F5004F48
:1030000061D009DCB5F5007F4AD0B5F5806F4DD0B1
:10301000B5F5006F5DD150E0B5F5803F2DD0B5F529
:10302000003F56D12FE0A0685549FFF7B4FF064690
:1030300051E0E0680321FFF7AEFF06464BE0E06891
:103040000821FFF7A8FF064645E0E0681021FFF7DA
:10305000A2FF06463FE020690321FFF79CFF0646DA
:1030600039E020690821FFF796FF064633E0206922
:103070001021FFF790FF06462DE060680821FFF75A
:103080008AFF064627E060681021FFF784FF0646A6
:1030900021E0A0690121FFF77EFF06461BE01BE04F
:1030A000A0690221FFF777FF064614E0A06904211A
:1030B000FFF771FF06460EE00BE0A0697021FFF7F5
:1030C0006AFF064607E060680421FFF764FF0646D2
:1030D00001E0002600BF00E00026304670BDB1F5DB
:1030E000007F3AD00FDC202928D006DC01291CD033
:1030F00004291DD0082940D11DE0402921D0B1F577
:10310000807F3AD126E0B1F5004F31D006DCB1F531
:10311000806F25D0B1F5006F2FD124E0B1F5803F4D
:1031200012D0B1F5003F28D111E0154A826025E0A8
:103130000822C26022E01022C2601FE00822026161
:103140001CE01022026119E00822426016E0102201
:10315000426013E00422426010E0042242600DE06D
:10316000042242600AE0002282610422426005E0FB
:10317000002282610422426000E000BF00BF70476D
:1031800001010100016821F00101016000210160DD
:1031900041608160C160016121214161DB49884258
:1031A00004D13D21D94A103A91608CE0D7491831B9
:1031B000884205D14FF47461D44A103A916082E09C
:1031C000D2493031884205D14FF47411CF4A103AB8
:1031D000916078E0CD494831884205D14FF0746163
:1031E000CA4A103A91606EE0C8496031884204D101
:1031F000C749C64A103AD16065E0C449783188426F
:1032000004D1C449C14A103AD1605CE0BF49903151
:10321000884204D1C049BD4A103AD16053E0BB494D
:10322000A831884205D14FF03D51B84A103AD160DB
:1032300049E0BA49884204D13D21B84A083A1160B0
:1032400041E0B6491831884205D14FF47461B34A60
:10325000083A116037E0B1493031884205D14FF466
:103260007411AE4A083A11602DE0AC4948318842E9
:1032700005D14FF07461A94A083A116023E0A749CB
:103280006031884204D1A249A44A121F11601AE099
:10329000A2497831884204D19E49A04A121F116088
:1032A00011E09E499031884204D19B499B4A121FEC
:1032B000116008E09949A831884204D14FF03D518E
:1032C000964A121F1160704710B500220268944B95
:1032D0001A40CC680B6823434C6923438C69234311
:1032E000CC6923430C6A23434C6A23438C6A2343EF
:1032F0004C6B23438C6B23431A430260426922F0D8
:103300000702D1E90B3423431A4342610B6943603E
:103310004B6883608B68C36010BD00210160416011
:103320008160C160016141618161C161016241628D
:103330008162C162016341638163704721B10268A8
:1033400042F00102026003E0026822F00102026022
:10335000704721B1026842F40042026003E0026853
:1033600022F400420260704721B1026842F020025C
:10337000026003E0026822F02002026070474160B0
:1033800070470146486880B2704722B1036843F431
:103390000023036003E0036823F40023036001615A
:1033A000704721B1026842F48022026003E00268A3
:1033B00022F48022026070470AB1016100E0C1601E
:1033C0007047014600200A6802F400220AB1012079
:1033D00000E000207047014600200A6802F0010268
:1033E0000AB1012000E000207047014600204A6930
:1033F00002F03800704730B503460A46002000242A
:10340000464DAB4202D24149103901E043491039DF
:1034100002F000550DB14C6800E00C68414D2C40A5
:1034200004EA02050DB1012000E0002030BD024693
:103430003A4B9A4202D23548103801E037481038EA
:1034400001F000531BB1374B0B40C36002E0354B1A
:103450000B408360704710B501F080034BB122B17F
:10346000436943F08003436103E0436923F0800331
:10347000436180290BD02AB1036801F01E04234365
:10348000036004E0036801F01E04A343036010BD61
:1034900070B50246002000240025204EB24202D220
:1034A0001A4B103B01E01D4B103B1F4E0E4036B136
:1034B0001E2606EAD124166806EA040502E05669CB
:1034C00006F0800501F000560EB15C6800E01C6853
:1034D000144E344004EA010616B10DB1012000E09B
:1034E000002070BD02460D4B9A4202D207481038A8
:1034F00001E00A48103801F000531BB1094B0B40A2
:10350000C36002E0074B0B408360704710600240CD
:103510003D000020400F002000003D2010640240CC
:103520003F801CF07D0F7D0F3C0F3C0FFE4A10705A
:10353000704730B1FC49096841F48071FA4A116062
:1035400005E0F949096821F48071F74A1160704774
:1035500030B1F549096841F40071F34A116005E0A2
:10356000F149096821F40071EF4A1160704730B1E8
:10357000ED49096841F48061EB4A116005E0EA49D0
:10358000096821F48061E84A11607047E6480068E4
:1035900040F40060E44908607047E348006840F484
:1035A0008050E14908607047DF481030006800F043
:1035B000004028B1DD48DC49091D0860DC4808608E
:1035C0007047D9481030006840F00040D6491031AB
:1035D000086070470920D4490C31096801F4803132
:1035E000B1F5803F01D1012020E0CF490C310968BD
:1035F00001F0100109B1062018E0CB490C3109682F
:1036000001F4807109B1022010E0C7490C3109684A
:1036100001F0EF0109B1072008E0C3490C31096846
:1036200001F0020109B1082000E00920704708B547
:1036300009200090FFF7CEFF009002E0FFF7CAFFDD
:1036400000909DF800000128F8D09DF8000008BD0A
:1036500070B504460A460026092502B909E0012A88
:1036600001D1160205E0022A01D1160201E04FF451
:103670004076FFF7DCFF0546092D2DD1AA48103012
:10368000006820F44070A8491031086008460068BE
:10369000304308600846006820F0F80008600846DB
:1036A000006844F0020108439F4910310860084651
:1036B000006840F480300860FFF7B9FF05469A487B
:1036C0001030006820F00200974910310860084669
:1036D000006820F0F8000860284670BD30B502464A
:1036E00000250924FFF7A3FF044602B909E0012AD7
:1036F00001D1150205E0022A01D1150201E04FF4C3
:103700004075092C20D188481030006820F44070A2
:10371000854910310860084600682843086008465B
:10372000006840F0040008600846006840F48030FB
:103730000860FFF77CFF04467B481030006820F0EB
:103740000400794910310860204630BD30B502468A
:1037500000250924FFF76BFF044602B909E0012A9E
:1037600001D1150205E0022A01D1150201E04FF452
:103770004075092C20D16C481030006820F440704E
:103780006949103108600846006828430860084607
:10379000006840F0040008600846006840F480308B
:1037A0000860FFF744FF04465F481030006820F0CF
:1037B00004005D4910310860204630BD30B5024636
:1037C00000250924FFF733FF044602B909E0012A66
:1037D00001D1150205E0022A01D1150201E04FF4E2
:1037E0004075092C20D150481030006820F44070FA
:1037F0004D491031086008460068284308600846B3
:10380000006840F4004008600846006840F48030DA
:103810000860FFF70CFF044643481030006820F4AE
:103820000040414910310860204630BD70B5064661
:1038300014461D460922FFF7FAFE0246092A1ED148
:1038400039481030006820F4407037491031086062
:103850000846006840F4407008600846006840F080
:103860000100086034607560FFF7E1FE02462E48F3
:103870001030006820F001002B491031086010461C
:1038800070BD30B502460C460925FFF7D0FE05464F
:10389000092D1DD124481030006820F440702249C1
:1038A000103108600846006840F40070086008465F
:1038B000006840F0010008601460FFF7B8FE05469C
:1038C00019481030006820F00100174910310860D5
:1038D000284630BD30B502460C460925FFF7A7FE45
:1038E0000546092D1DD110481030006820F44070A5
:1038F0000D49103108600846006840F48070086087
:103900000846006840F0010008601480FFF78FFE51
:10391000054605481030006820F0010002491031CA
:103920000860284630BD0000003C02402301674586
:10393000AB89EFCD30B502460C460925FFF777FE7F
:103940000546092D17D19B48006820F4407099491D
:1039500008600846006808600846006840F00100FA
:1039600008601470FFF763FE05469248006820F077
:10397000010090490860284630BD8E48001D00684F
:1039800000F0010028B18C488A49083908608B484A
:10399000086070478748001D006840F001008549B5
:1039A000091D0860704730B502460C460925FFF72F
:1039B0003EFE0546092D10D13CB17E48801D008891
:1039C00090437C49891D088007E07A48801D008863
:1039D00091B208437749891D088030BD30B5024651
:1039E0000C460925FFF723FE0546092D10D13CB1F1
:1039F00070480A30008890436E490A31088007E019
:103A00006C480A30008891B208436A490A3108803C
:103A100030BDFF21674AD21D127802F07F0140EAD3
:103A20000102644BDB1D1A70704730B502460C462C
:103A30000925FFF7FCFD0546092D10D144B15D486D
:103A4000801D008891B208435A49891D088006E00C
:103A50005848801D008890435649891D088030BD14
:103A600030B502460C460925FFF7E1FD0546092D54
:103A700010D144B14F480A30008891B208434D49F3
:103A80000A31088006E04B480A30008890434949D3
:103A90000A31088030BD10B502460924FFF7C7FD82
:103AA0000446092C02D14348401D027010BDF0B5F8
:103AB00004460D46FF260927FFF7B9FD0746092FE3
:103AC0000BD13C48001D007800F00F0645EA0600C7
:103AD000104320433749091D0870F0BD3549091DC1
:103AE000097821F01001334A121D1170114609782E
:103AF0000143117070472F49091D097821F00C010D
:103B00002C4A121D1170114609780143117070473B
:103B100000B509222748001D007840F00200254921
:103B2000091D0870FFF783FD0246104600BD2148BD
:103B3000001D0068C0F3471070471E48801D0088B4
:103B400070471C480A30008870471A48801D00885A
:103B5000704718480A300088704700201549491DF1
:103B60000978AA2901D0012000E0002070471148FF
:103B7000001D007800F00C00704729B10D4A126852
:103B800002430C4B1A6004E00A4A12688243094B54
:103B90001A60704701460020064A121F12680A4048
:103BA0000AB1012000E0002070470249091F0860A7
:103BB00070470000103C02403B2A19087F6E5D4CA4
:103BC00010B504469848844208D10121084601F006
:103BD00042FE0021012001F03EFE76E0934884423F
:103BE00008D10121022001F036FE0021022001F05F
:103BF00032FE6AE08E48844208D10121042001F09F
:103C00002AFE0021042001F026FE5EE0894884425D
:103C100008D10121082001F01EFE0021082001F03A
:103C20001AFE52E08448844208D10121102001F09C
:103C300012FE0021102001F00EFE46E07F48844273
:103C400008D10121202001F006FE0021202001F0F2
:103C500002FE3AE07A48844208D10121402001F076
:103C6000FAFD0021402001F0F6FD2EE07548844267
:103C700008D10121802001F0EEFD0021802001F01B
:103C8000EAFD22E07048844208D10121801501F04C
:103C9000E2FD0021A01501F0DEFD16E06B48844234
:103CA00008D10121401501F0D6FD0021601501F079
:103CB000D2FD0AE06648844207D10121001501F0D7
:103CC000CAFD0021201501F0C6FD10BDF0B50A4661
:103CD00000210023002400BF3DE0012505FA01F387
:103CE000156805EA03049C4234D105684F00032699
:103CF000BE40B543056015794E00B54006683543B2
:103D000005601579012D02D01579022D16D185682F
:103D10004F000326BE40B543856055794E00B5403F
:103D2000866835438560456801268E40B543456009
:103D3000456896798E40B6B235434560C5684F00F8
:103D40000326BE40B543C560D5794E00B540C66870
:103D50003543C560491C1029BFD3F0BD4FF6FF7134
:103D600001600021017141718171C171704708B515
:103D70004FF480320092009A0A430092009AC26186
:103D8000C161009AC261C2690092C269009208BD15
:103D90000246002013690B400BB1012000E0002017
:103DA00070470146086980B2704702460020536997
:103DB0000B400BB1012000E000207047014648692C
:103DC00080B2704701837047418370470AB1018315
:103DD00000E0418370474161704742694A40426157
:103DE0007047F0B5002300244D07ED0E02FA05F3ED
:103DF000CE1000F1200555F826504E07F70E0F267D
:103E0000BE40B543CF1000F1200646F82750CE1033
:103E100000F1200555F8265045EA0304CE1000F1C4
:103E2000200545F82640F0BD000002400004024095
:103E300000080240000C0240001002400014024042
:103E400000180240001C02400020024000240240F2
:103E50000028024010B50446FB48844208D10121E5
:103E6000801401F03CFD0021A01401F038FD3CE07D
:103E7000F648844208D10121001401F01FFD002101
:103E8000201401F01BFD30E0F148844208D10121EB
:103E9000C01301F013FD0021E01301F00FFD24E039
:103EA000EC48844208D10121401401F018FD0021A2
:103EB000601401F014FD18E0E748844209D10121A3
:103EC000080501F00CFD00214FF4801001F007FD02
:103ED0000BE0E248844208D10121480501F0FFFCD3
:103EE00000214FF4001001F0FAFC10BD10B50022C3
:103EF000028802F441520B884C8823438C88234368
:103F0000CC8823430C8923434C8923438C89234346
:103F1000CC8923431A430280838B4FF2FF742340E2
:103F200083830B8A038210BD2DE9F04F0025022305
:103F300000244FF0010900220026002794469046F5
:103F4000B0F81CA04FF2400B0AEA0B0AA0F81CA024
:103F50004FF0020AA0F820A0858BD1F808A0BAF192
:103F6000020F01D100BF82E0B1F804A0BAF1000F46
:103F700002D14FF0010901E04FF00209DFF8E0A2A1
:103F8000DAF800A00AF4000ABAF1000F09D0DFF84D
:103F9000D0A2DAF800A02AF4000ADFF8C4B2CBF805
:103FA00000A0DFF8BCA20AF17C0ADAF800A0CAF38C
:103FB000881CDFF8ACA20AF17C0ADAF800A0CAF388
:103FC0000278DFF89CA2AAF1040ADAF800A00AF04D
:103FD0003F07DFF88CA2AAF1040ADAF800A00AF47D
:103FE000800ABAF5800F08D1DFF878A2BAFBF7FA99
:103FF0000AFB0CFABAFBF8F607E0DFF86CA2BAFB92
:10400000F7FA0AFB0CFABAFBF8F6B1F806A0BAF513
:10401000007F0ED14FEA162A0AEB8A0A4FEA4A0AB3
:10402000D1F808B0BAFBFBFA0AF1050A1FFA8AF2C6
:104030000FE04FEA491AB6FBFAFA0AEB8A0A4FEA8E
:104040004A0AD1F808B0BAFBFBFA0AF1050A1FFACE
:104050008AF24FF00A0AB2FBFAF202F00104A2EB74
:10406000040ACAF34F034FF6FF7A0AEA0424022B2C
:1040700001DBFF2B01DD02230024B1F806A04AEA90
:10408000040A4AEA030AA0F820A0B1F804A0B1F893
:104090000CB04AEA0B0AB1F802B04AEA0B0AB1F8CE
:1040A00000B04AEA0B0A4AF4006A4AEA0505858329
:1040B000BDE8F08F0021018041808180C1800181B5
:1040C00041818181C18107210182704700210180E6
:1040D00041808180C18002218160002181817047FF
:1040E00021B1028842F04002028004E002884FF6CB
:1040F000BF731A400280704721B1828B42F4806204
:10410000828304E0828B4FF6FF331A40828370472C
:1041100002884FF2FF731A40028002880A4302802D
:104120007047B1F5804F04D1028842F4804202808A
:1041300004E002884BF6FF731A40028070474FF686
:10414000FF62914204D0028842F48072028004E04F
:1041500002884FF6FF631A400280704721B18288BF
:1041600042F00402828004E082884FF6FB731A401A
:104170008280704721B1828842F01002828004E080
:1041800082884FF6EF731A408280704730B5002264
:104190000023848B4FF240052C4084830224048446
:1041A000828B0C88B4F5007F01D00C8814B94FF4D1
:1041B000807308E00C88B4F5407F03D00C88B4F518
:1041C000807F00D100238C888D892C434D882C431F
:1041D0001C4344F400642243828330BD0146888935
:1041E00070478181704721B1028842F400520280F9
:1041F00004E002884DF6FF731A4002807047018880
:1042000041F480510180704702460020012901D00D
:10421000108B00E0908A70470146088A70471AB1F7
:1042200083880B43838002E083888B4383807047BD
:1042300030B5002400230C110125A540ABB2AAB172
:1042400085881D43858014E000300140003800401F
:10425000003C004000340140005001400054014047
:104260000838024000127A000024F40085889D433B
:10427000858030BD0246002013890B400BB1012020
:1042800000E000207047CA4302817047F0B5024643
:10429000002000240023002501F00F070126BE4066
:1042A000B4B20B1101269E40B3B2968806EA03050C
:1042B0001689264016B10DB1012000E00020F0BDA6
:1042C00010B5002201F00F040123A3409AB2D3439A
:1042D000038110BD10B50446FE48844208D1012177
:1042E000084601F0FCFA0021012001F0F8FA9DE0F7
:1042F000B4F1804F08D10121084601F0DFFA002116
:10430000012001F0DBFA91E0F348844208D1012159
:10431000022001F0D3FA0021022001F0CFFA85E05B
:10432000EE48844208D10121042001F0C7FA00219F
:10433000042001F0C3FA79E0E948844208D1012160
:10434000082001F0BBFA0021082001F0B7FA6DE067
:10435000E448844208D10121102001F0AFFA002185
:10436000102001F0ABFA61E0DF48844208D101215E
:10437000202001F0A3FA0021202001F09FFA55E04F
:10438000DA48844208D10121022001F0A8FA002174
:10439000022001F0A4FA49E0D548844209D1012164
:1043A000080401F09CFA00214FF4803001F097FAE4
:1043B0003CE0D048844209D10121480401F08FFA41
:1043C00000214FF4003001F08AFA2FE0CA488442FD
:1043D00009D10121880401F082FA00214FF48020E4
:1043E00001F07DFA22E0C548844208D10121402035
:1043F00001F064FA0021402001F060FA16E0C048A4
:10440000844208D10121802001F058FA0021802047
:1044100001F054FA0AE0BB48844207D1012180151B
:1044200001F04CFA0021A01501F048FA10BD00225D
:104430000288A84B98420ED0AC4B98420BD0B0F1FA
:10444000804F08D0A44B984205D0A44B984202D08C
:10445000A34B984204D14FF68F731A404B881A43EE
:10446000A04B984207D0A04B984204D04FF6FF4390
:104470001A400B891A4302804B68C3620B8803857C
:10448000944B984202D0994B984201D18B7A038683
:104490000123838270474FF0FF314160002101808A
:1044A00001814180817270470185828270470A468E
:1044B000002101884FF68F73194011430180704726
:1044C00041627047C16270470146486A70470146C1
:1044D000088D704721B1028842F00202028004E098
:1044E00002884FF6FD731A400280704721B102889E
:1044F00042F00402028004E002884FF6FB731A4087
:104500000280704721B1028842F08002028004E0FC
:1045100002884FF67F731A400280704702884FF678
:10452000F7731A40028002880A43028070470288AB
:104530004FF6FF431A40028002880A430280704708
:1045400021B1028842F00102028004E002884FF6A5
:10455000FE731A400280704770B5002400220023C9
:10456000058C4FF6FE7635400584028C8388048BDB
:104570004FF68F752C40B51E2C400D882C43751EB0
:104580002A408D892A434D882A43524DA84202D0A1
:10459000564DA84213D14FF6F7752A40CD892A43CC
:1045A0004FF6FB752A408D882A434FF6FF652B4056
:1045B0004FF6FF552B400D8A2B434D8A2B438380AA
:1045C00004838D684563028470BD70B500240022A9
:1045D0000023058C4FF6EF7635400584028C8388E6
:1045E000048B48F6FF752C404FF6FF452C400D8894
:1045F0004FF6FF7606EA05252C434FF6DF752A4075
:104600008D8906EA05152A434D8806EA05152A43D1
:10461000304DA84202D0354DA8421DD14FF67F75CE
:104620002A40CD894FF6FF7606EA05152A434FF654
:10463000BF752A408D8806EA05152A434FF6FF35D7
:104640002B404FF2FF752B400D8A06EA85052B4360
:104650004D8A06EA85052B43838004838D68856334
:10466000028470BD70B5002400220023058C4FF633
:10467000FF6635400584028C8388848B4FF68F75E6
:104680002C404FF6FC752C400D882C434FF6FF55FF
:104690002A408D894FF6FF7606EA05252A434D8884
:1046A00006EA05252A430B4DA84202D00F4DA84229
:1046B00038D14FF2FF752A40CD894FF6FF7606EAD2
:1046C00005252A434FF6FF352A408D8806EA052541
:1046D0002A4319E0000001400004004000080040A7
:1046E000000C004000100040001400400004014095
:1046F00000400140004401400048014000180040D3
:10470000001C0040002000404EF6FF752B404DF687
:10471000FF752B400D8A06EA05152B434D8A06EAE4
:1047200005152B43838084838D68C563028470BD27
:1047300070B5002200230024058C4EF6FF7635402C
:104740000584038C8488828B48F6FF752A404FF6D7
:10475000FF452A400D884FF6FF7606EA05252A43D5
:104760004DF6FF752B408D8906EA05352B434D88A4
:1047700006EA05352B43FE4DA84202D0FD4DA84266
:1047800008D14BF6FF752C400D8A4FF6FF7606EAEE
:1047900085152C43848082838D680564038470BDF5
:1047A000002101804180818081608181C1810182FD
:1047B0004182704770B50346002000241846183027
:1047C00001258D40ACB21D8CA5431D8409B108297B
:1047D0000AD100EB610005684FF68F763540056021
:1047E0000568154305600FE00D1FC5F34E0528440D
:1047F000056848F6FF763540056005684FF6FF7698
:1048000006EA02263543056070BD41637047816347
:104810007047C1637047016470470A460021018BED
:104820004FF68F7319401143018370470A460021E8
:10483000018B48F6FF7319404FF6FF7303EA02231A
:104840001943018370470A460021818B4FF68F730D
:1048500019401143818370470A460021818B48F635
:10486000FF7319404FF6FF7303EA02231943818354
:1048700070470A460021018B4FF6F7731940114328
:10488000018370470A460021018B4FF2FF731940E4
:104890004FF6FF7303EA02231943018370470A4668
:1048A0000021818B4FF6F7731940114381837047C4
:1048B0000A460021818B4FF2FF7319404FF6FF73B8
:1048C00003EA02231943818370470A460021018BC2
:1048D0004FF6FB7319401143018370470A460021CC
:1048E000018B4FF6FF3319404FF6FF7303EA0223A3
:1048F0001943018370470A460021818B4FF6FB73F1
:1049000019401143818370470A460021818B4FF67D
:10491000FF3319404FF6FF7303EA022319438183E3
:1049200070470A460021018B4FF67F7319401143EF
:10493000018370470A460021018BC1F30E014FF637
:10494000FF7303EA02231943018370470A460021DB
:10495000818B4FF67F7319401143818370470A465C
:104960000021818BC1F30E014FF6FF7303EA02238E
:104970001943818370470A460021018C4FF6FD736D
:1049800019401143018470470A460021018C4FF6FB
:10499000F77319401143018470470A460021018CC6
:1049A0004FF6DF7319404FF6FF7303EA0213194302
:1049B000018470470A460021018C4FF67F7319402D
:1049C0004FF6FF7303EA02131943018470470A4646
:1049D0000021018C4FF6FF5319404FF6FF7303EA95
:1049E00002231943018470470A460021018C4FF2CB
:1049F000FF7319404FF6FF7303EA02231943018442
:104A000070470A460021018C4DF6FF7319404FF69E
:104A1000FF7303EA023319430184704730B5002362
:104A200001248C40A3B2048C9C430484048C02FABD
:104A300001F5ADB22C43048430BD30B5002304240D
:104A40008C40A3B2048C9C430484048C02FA01F5CC
:104A5000ADB22C43048430BD828B4FF2FF331A4039
:104A60008283828B4FF6FF7303EA01231A4382830A
:104A70007047F0B50C461546002100220026078C31
:104A80004EF6FF7C07EA0C070784818B028C4FF6F9
:104A9000FF7707EA043640F6FF4739404FF6FF77C5
:104AA00007EA052739434FF6FF7707EA033739430B
:104AB00045F6FF773A4046F480573A4381830284B3
:104AC000F0BD828B4FF6F3731A408283828B0A43C8
:104AD00082837047F0B50C4615460021002200265F
:104AE000078C4FF6FF6C07EA0C070784818B028C5A
:104AF0004FF6FF7707EA04264FF60C7739404FF65A
:104B0000FF7707EA03172F4339434FF2FF573A4025
:104B100046F480773A4381830284F0BD028B4FF2E2
:104B2000FF331A400283028B4FF6FF7303EA01231F
:104B30001A4302837047F0B50C4615460021002247
:104B40000026078C4FF6EF7C07EA0C070784018BE1
:104B5000028C4FF6FF7707EA041640F6FF4739400C
:104B60004FF6FF7707EA033739434FF6FF7703E045
:104B7000000001400004014007EA052739434FF6D1
:104B80005F773A4046F010073A4301830284F0BD54
:104B9000028B4FF6F3731A400283028B0A4302839F
:104BA0007047F0B50C46154600210022068C4FF6E2
:104BB000FE773E400684018B028C4FF60C76314026
:104BC0007E1C06EA03162E4331434FF6F57632403B
:104BD00044F00106324301830284F0BD70B50546FE
:104BE0000C46208850B92389A28861882846FFF79F
:104BF000D8FFE1882846FFF7CBFF25E0208804286E
:104C00000AD12389A28861882846FFF794FFE188AA
:104C10002846FFF783FF17E0208808280AD1238958
:104C2000A28861882846FFF755FFE1882846FFF7EC
:104C300048FF09E02389A28861882846FFF719FF09
:104C4000E1882846FFF708FF70BD00210180418000
:104C5000012181800021C180018170472DE9F0414F
:104C600005460C4600260127608808B9022600E0A8
:104C70000026A088012801D1022700E00127208812
:104C8000A0B92389A28861882846FFF78AFFE188B6
:104C90002846FFF77DFF23893A4631462846FFF72D
:104CA0004AFFE1882846FFF739FF13E02389A288ED
:104CB00061882846FFF73FFFE1882846FFF72EFF6F
:104CC00023893A4631462846FFF76BFFE18828469C
:104CD000FFF75EFFBDE8F0810146486B7047014673
:104CE000886B70470146C86B70470146086C704777
:104CF0000A884B881A438B881A43CB881A430B893E
:104D00001A434B891A438B891A43A0F844207047F1
:104D10000021018041808180C180018141818181A8
:104D2000704731B1B0F8442042F40042A0F844206A
:104D300005E0B0F84420C2F30E02A0F8442070470A
:104D400021B1828842F00402828004E082884FF61A
:104D5000FB731A408280704721B1828842F00102C1
:104D6000828004E082884FF6FE731A40828070478A
:104D70001AB183890B43838102E083898B4383814A
:104D800070478182704702460020138A0B400BB1A6
:104D9000012000E000207047CA430282704730B50E
:104DA0000246002000230024158A05EA01039589A4
:104DB00005EA010413B10CB1012000E0002030BD70
:104DC000CA430282704741EA0203A0F848307047A4
:104DD0001AB183890B43838102E083898B438381EA
:104DE000704721B1828842F00802828004E0828804
:104DF0004FF6F7731A408280704701894FF6F872B8
:104E00001140018170470A46002101894FF68F73D6
:104E1000194011430181704730B504460D462946BB
:104E20002046FFF7F0FF208940F00700208130BDC9
:104E30002DE9F04104460D4616461F46602D06D169
:104E40003B46012231462046FFF775FE05E03B4612
:104E5000012231462046FFF7A4FE29462046FFF7EF
:104E6000D2FF208940F007002081BDE8F08130B5F5
:104E70000C4600210189C9B24FF6FF7505EA0325EA
:104E8000154325432943018130BD2DE9F0410546F5
:104E90000E4617469846002443463A463146284671
:104EA000FFF7E5FF2C894FF6F870044044F0070443
:104EB0004FF68F70044044F070042C81BDE8F081FF
:104EC000F0B504460D4616461F463B463246294677
:104ED0002046FFF7CCFF208940F480402081F0BDC0
:104EE00082884FF68F731A40828082880A438280BC
:104EF000704702894FF6F8731A40028102890A430B
:104F00000281704702894FF67F731A40028102893D
:104F10000A4302817047F0B50C4615461E46002133
:104F2000002200230189028B038C4FF6F877394069
:104F300021434FF6FC473A4040F201173A434FF6FF
:104F4000DD773B404FF6FF7707EA06172F433B43D9
:104F5000018102830384F0BD21B1828842F0800286
:104F6000828004E082884FF67F731A408280704707
:104F7000A0F850107047000010B50446FA4884426B
:104F800008D10121102000F0AAFC0021102000F01F
:104F9000A6FC57E0F548844209D10121480400F0FD
:104FA0008DFC00214FF4003000F088FC4AE0F0480E
:104FB000844209D10121880400F080FC00214FF4D3
:104FC000802000F07BFC3DE0EA48844209D10121C9
:104FD000C80400F073FC00214FF4002000F06EFCC8
:104FE00030E0E548844209D10121080500F066FC63
:104FF00000214FF4801000F061FC23E0DF48844280
:1050000008D10121202000F06AFC0021202000F0BE
:1050100066FC17E0DA48844209D10121880700F0D4
:105020004DFC00214FF0804000F048FC0AE0D548DC
:10503000844207D10121400500F040FC00216005B9
:1050400000F03CFC10BD2DE9FF4705460E4600244C
:10505000A14600BFA046B08900B100BF2C8A24F44D
:105060004054F08804432C82AC8941F20C608443A4
:10507000B08831890843718908430443AC81AC8A04
:1050800024F44074B0890443AC82684600F0A7FA67
:10509000B548854202D0B948854202D1DDF80C906E
:1050A00001E0DDF80890A88900F4004040B109EB68
:1050B000C90000EB091031684900B0FBF1F707E0C7
:1050C00009EBC90000EB091031688900B0FBF1F76A
:1050D0006420B7FBF0F004012009642101FB107883
:1050E000A88900F4004040B1322000EBC800B0FBBA
:1050F000F1F000F00700044308E0322000EB081054
:105100006421B0FBF1F000F00F0004432C81BDE8F6
:10511000FF874FF41651016000218180C180018119
:105120000C21418100218181704710B50246002089
:10513000108A20F470600B884C8823438C882343AA
:10514000CC8823431843108210BD00210180418088
:105150008180C180704721B1828942F400528281EE
:1051600004E082894DF6FF731A4082817047028BFA
:1051700002F47F420283028B0A430283704721B10B
:10518000828942F40042828103E08289C2F30E02E6
:105190008281704721B1828A42F40062828204E0F7
:1051A000828A4FF2FF731A4082827047C1F308026D
:1051B0008280704701468888C0F308007047028AE1
:1051C0004FF6F0731A400282028A0A430282704745
:1051D00021B1828942F00202828104E082894FF685
:1051E000FD731A408281704782894FF2FF731A4023
:1051F000828182890A4382817047028A4FF6DF7377
:105200001A400282028A0A430282704721B1028A4E
:1052100042F48042028204E0028A4BF6FF731A4095
:1052200002827047818941F001018181704721B17B
:10523000828A42F00802828204E0828A4FF6F77383
:105240001A4082827047028BD2B20283028B42EAFA
:1052500001220283704721B1828A42F020028282B9
:1052600004E0828A4FF6DF731A408282704721B1D0
:10527000828A42F01002828204E0828A4FF6EF7343
:105280001A4082827047828A4FF6FB731A408282EC
:10529000828A0A438282704721B1828A42F00202E6
:1052A000828204E0828A4FF6FD731A408282704740
:1052B0001AB1838A0B43838202E0838A8B43838201
:1052C0007047F0B50346002400260025002040F674
:1052D0006A17B94200D100BF1846C1F3421401F069
:1052E0001F06012707FA06F5012C01D10C3004E056
:1052F000022C01D1103000E014301AB107682F439E
:10530000076002E00768AF430760F0BD0246002077
:10531000B1F5007F00D100BF13880B400BB1012015
:1053200000E00020704701F40072B2F5007F00D168
:1053300000BFCA430280704770B5024600240023B4
:105340000025002040F66A16B14200D100BFC1F32B
:10535000421501F01F03012606FA03F3012D13D1B4
:105360009689334017E000000010014000440040DF
:1053700000480040004C0040005000400014014034
:1053800000780040007C0040022D02D1168A334094
:1053900001E0968A33400C12012606FA04F41688BE
:1053A000344013B10CB1012000E0002070BD10B5F5
:1053B0000022002340F66A14A14200D100BF0A1265
:1053C00001249440A3B2DC43048010BDF948006876
:1053D00040F00100F74908600020F64908310860F4
:1053E000F4480068F4490840F2490860F348091D90
:1053F0000860F348EF4984310860F0481038091D0F
:105400000860EC48006820F48020EA490860002029
:10541000E8490C310860E7498C3108607047002189
:10542000E44A921C117011460870704710B501468D
:105430000022002300204A11012A02D1DD4C2368FA
:1054400008E0022A03D1DB4C7034236802E0D94C17
:105450007434236801F01F02012494401C400CB1F5
:10546000012000E0002010BD38B50020009000248D
:10547000002500BF3120FFF7D9FF05460098401CEA
:1054800000900098B0F5A04F01D0002DF2D031204F
:10549000FFF7CCFF08B1012400E00024204638BD0E
:1054A00001460020C34A106820F0F80040EAC1001D
:1054B00010607047C349086070470021BD4A7032D0
:1054C00011701170012802D004280AD104E00121D2
:1054D000B84A7032117005E00521B64A7032117079
:1054E00000E000BF00BF7047B7490860704770B563
:1054F000049C41EA82150126C6EB530645EA06459F
:10550000054345EA0465AB4E361D356070BDAD49B7
:1055100008667047820142EA0172A64B84331A6022
:105520007047A8498866704710B5830143EA016354
:1055300043EA02739F4C8834236010BDA149086779
:105540007047A049C864704702460020994B083351
:10555000186820F0EC6042EA01031843954B0833C9
:105560001860704702460020924B0833186820F0FC
:10557000784042EA010318438E4B083318607047A5
:10558000014600208B4A0832106820F003000843CF
:105590001060704787480830006800F00C007047C2
:1055A00001460020834A0832106820F0F0000843CA
:1055B00010607047014600207E4A0832106820F4CF
:1055C000E05008431060704701460020794A0832D5
:1055D000106820F4604040EAC10010607047F0B5E8
:1055E000002100220024022500260223714F0837E3
:1055F0003F6807F00C0121B1042905D0082937D1F3
:1056000005E0724F076036E0714F076033E0694F85
:105610003F1D3F68C7F38056664F3F1D3F6807F048
:105620003F036EB16A4FB7FBF3F7DFF888C10CF1A7
:10563000040CDCF800C0CCF3881C07FB0CF40CE075
:10564000624FB7FBF3F7DFF86CC10CF1040CDCF828
:1056500000C0CCF3881C07FB0CF4564F3F1D3F687D
:10566000C7F301477F1C7D00B4FBF5F7076002E03C
:10567000564F076000BF00BF4E4F08373F6807F026
:10568000F0010909534F7A5C0768D7404760494FDA
:1056900008373F6807F4E051890A4E4F7A5C476843
:1056A000D7408760434F08373F6807F46041490B94
:1056B000484F7A5C4768D740C760F0BD002100F4CE
:1056C0004072B2F5407F0AD13A4A0832116821F49B
:1056D000F811414A02401143364A08321160354AF6
:1056E00070321268C0F30B031A43324B70331A60E6
:1056F000704735494439086070473349403908607C
:10570000704736490860704701460020294A8C32AC
:10571000106820F01F004A1E1043264A8C32106089
:10572000704701460020234A8C32106820F4F8505C
:105730004A1E40EA02201F4A8C3210607047014620
:1057400000201C4A8C32106820F44010084310607E
:10575000704701460020174A8C32106820F4400040
:1057600008431060704701460020124A8C321068CE
:1057700020F44030084310607047194908607047B2
:1057800039B10C4A3032126802430A4B30331A6086
:1057900006E0084A303212688243064B30331A6002
:1057A0007047F9B1034A343212680243014B343373
:1057B0001A601CE000380240FFFFF6EA10300024B7
:1057C0000030002000004742800E47420024F400D1
:1057D00000127A007A200020FFFCFF0F5C01474294
:1057E000E01147428F4A126882438E4B1A6070471D
:1057F00039B18C4A121D126802438A4B1B1D1A6074
:1058000006E0884A121D12688243864B1B1D1A60EF
:10581000704739B1834A0C3212680243814B0C3312
:105820001A6006E07F4A0C32126882437D4B0C33CB
:105830001A60704739B17B4A103212680243794BC3
:1058400010331A6006E0774A103212688243754BB3
:1058500010331A60704739B1724A243A1268024311
:10586000704B243B1A6006E06E4A243A1268824369
:105870006C4B243B1A60704739B16A4A203A12686F
:105880000243684B203B1A6006E0664A203A1268E1
:105890008243644B203B1A60704739B1614A1C3A1D
:1058A000126802435F4B1C3B1A6006E05D4A1C3ADB
:1058B000126882435B4B1C3B1A60704739B1594AEE
:1058C000143A12680243574B143B1A6006E0554ADB
:1058D000143A12688243534B143B1A60704739B133
:1058E000504A103A126802434E4B103B1A6006E0D1
:1058F0004C4A103A126882434A4B103B1A60704778
:1059000039B1484A1C3212680243464B1C331A60B4
:1059100006E0444A1C3212688243424B1C331A6030
:10592000704739B13F4A2032126802433D4B203361
:105930001A6006E03B4A203212688243394B20331A
:105940001A60704739B1374A243212680243354B26
:1059500024331A6006E0334A243212688243314B02
:1059600024331A60704739B12E4A2C321268024330
:105970002C4B2C331A6006E02A4A2C3212688243E0
:10598000284B2C331A60704739B1264A30321268DE
:105990000243244B30331A6006E0224A3032126848
:1059A0008243204B30331A607047012808D11D49CB
:1059B0003C31096841F008011A4A3C32116007E0A5
:1059C00018493C31096821F00801164A3C3211603F
:1059D000704739B1134A273A12780243114B273BDB
:1059E0001A7006E00F4A273A127882430D4B273B84
:1059F0001A7070470B484030006840F080700949C9
:105A000040310860704701460020064A283A126873
:105A10000A400AB1012000E0002070470149263900
:105A2000087070473438024010B50021B148FEF7C5
:105A3000F0FE10BD1CB50020AF4908804EF6E660B0
:105A400048800220AD49087016E0AC480078401E3E
:105A5000A94931F8100042F21071484342F663112F
:105A600090FBF1F0A449A54A127821F81200A3484E
:105A70000078401CA1490870A04800780D28E4DB9C
:105A80009F4800F052FA03219D4800F059F99D48C3
:105A900000689D49B0FBF1F0401E84B200200090E8
:105AA0009A48038800222146924800F07FFB00209C
:105AB0009749097801236022CDE900108D4908201B
:105AC00000F08FFBFFF7B0FF1CBD10B58F480088BA
:105AD00010B9FFF7A9FF0BE08C4800888C490978C2
