:020000040800F2
:10000000C8960020C92F00081B0300081D03000824
:100010002103000825030008290300080000000050
:100020000000000000000000000000002D03000898
:100030002F0300080000000031030008330300080C
:10004000E32F0008E32F0008E32F0008E32F000848
:10005000E32F0008E32F0008E32F0008E32F000838
:10006000E32F0008E32F0008E32F0008E32F000828
:10007000E32F0008E32F0008E32F0008E32F000818
:10008000E32F0008E32F0008E32F00081B8A000875
:10009000318A0008E32F0008E32F0008E32F00084F
:1000A000E32F0008E32F0008E32F0008E32F0008E8
:1000B000E32F0008E32F0008E32F0008E32F0008D8
:1000C000E32F0008E32F0008E32F0008E32F0008C8
:1000D000E32F000859910008E32F00080B94000853
:1000E000E32F0008E32F0008E32F0008E32F0008A8
:1000F000E32F0008E32F0008E32F0008E32F000898
:10010000E32F0008E32F000853860008E32F0008C0
:10011000E32F0008E32F0008E32F0008E32F000877
:10012000E32F0008E32F0008E32F0008E32F000867
:10013000E32F0008E32F0008E32F00086D8B000871
:10014000838B0008E32F0008E32F0008E32F00084B
:10015000E32F0008E32F0008E32F0008E32F000837
:10016000E32F0008E32F0008E32F0008E32F000827
:10017000E32F0008E32F0008E32F0008E32F000817
:10018000E32F0008E32F000800F002F800F0B6F8B3
:100190000AA090E8000C82448344AAF10107DA45E2
:1001A00001D100F0ABF8AFF2090EBAE80F0013F07E
:1001B000010F18BFFB1A43F001031847B0C8000035
:1001C000D0C8000010F8013B0A4413F0030408BF34
:1001D00010F8014B1D1108BF10F8015B641E05D01B
:1001E00010F8016B641E01F8016BF9D1002D15D0D8
:1001F00010F8014B03F00C030C2BA1EB04040ABF15
:1002000010F8013BA4EB8314A4EB032405F10103D4
:1002100014F8016B5B1E01F8016BF9D5914238BFF0
:1002200010F8013BD1D3704700230024002500269D
:10023000103A28BF78C1FBD8520728BF30C148BF49
:100240000B6070476E2909F0BD86702909F0FF87A1
:1002500066290BF0E28765290BF0DF8767290BF031
:10026000DC8761290BF0DB8703681B0A28BF41F09C
:100270008001692909F06A86642909F06786752971
:1002800009F064866F2909F08C87782909F0CB87FB
:10029000E92909F02787E42909F02487F52909F0DD
:1002A0002187EF2909F08987F82909F0CA870368AF
:1002B000DB0928BF41F0800163290AF0CB84732950
:1002C0000AF0D084E3290AF0DB84F3290AF0E08401
:1002D000002070471FB50BF096FF0AF02BFD0400BD
:1002E000002000210BF02AFA401C60600020002151
:1002F0000BF00EFAE0601FBD10B510BD0AF0ECFC6B
:100300001146FFF7E7FF00F047F80AF0C5FD03B418
:10031000FFF7F2FF03BC0AF00DFE704700BFFEE7D7
:1003200000BFFEE700BFFEE700BFFEE77047704773
:10033000704710B506F06BFD06F072FD10BD0000B1
:1003400010B506F037FD08F0C3FD4FF4FC631A4604
:100350000021022007F0B2F806F092FE07F019FF24
:1003600008F0F4F908F034FF07F013FF08F092FAF0
:1003700008F0D0FA08F076FB07F00BFF07F03FFF1C
:1003800043F24431182008F0F9F809F0ADF809F00B
:1003900032F909F071FA10BDFFF7D2FF02F0EDFB60
:1003A00002F0ABFD9FED4D0A4D4880ED000A4D482F
:1003B00090ED0F0A4C4880ED000A4C4890ED0F0A72
:1003C000DFED4B0A30EE200A4A4880ED000A002497
:1003D00006E0A0B207F0E1FD474941F82400641CA3
:1003E000122CF6DB79E006F02AFD444909688842C0
:1003F00073D006F024FD41490860084600681421C6
:10040000B0FBF1F201FB1200B8B908F0CCFC3C499A
:10041000087008F0D6FC3B49087008F085FE3A49A0
:10042000087009F002F9394908700846007810B9D7
:1004300009F0C9FC01E009F0A3FC30480068322152
:10044000B0FBF1F201FB1200002844D107F078F96B
:100450002FA20221002007F01EFA3148B0F9003027
:1004600030A20421002007F016FA314831A20521FC
:100470000368002007F00FFA3248836832A20A218D
:10048000002007F008FA2F48C36831A20B21002092
:1004900007F001FA1A4803782FA20621002007F07E
:1004A000FAF9184803782FA20721002007F0F3F982
:1004B000154803782EA20821002007F0ECF9134814
:1004C00003782DA20921002007F0E5F907F069FA69
:1004D0002B4806F0E9FD00F0F7FF84E700007042CA
:1004E0001C100020BC8D002020100020FC8D00205E
:1004F0000000854324100020E88100200010002027
:100500003410002035100020361000203710002055
:10051000496E66616E7472792056312E3300000088
:10052000081000206944656275673A256400000080
:10053000607D0020454E434F4445525F44617461E5
:100540003A256400B48F00206F7574202564000084
:10055000616E672025640000436861737369733AB4
:100560002564000047696D62616C3A2564000000F3
:10057000444255533A25640047554E2025640000F7
:10058000C0C200080CB500200190009076480068B9
:1005900040F480307449086000BF7348006800F47C
:1005A000003000900198401C0190009818B9019803
:1005B000B0F5A04FF1D16C48006800F4003010B1E4
:1005C0000120009001E0002000900098012846D111
:1005D00065484030006840F0805063494031086011
:1005E0006248006840F44040604908605E48083056
:1005F00000685D49083108600846006840F4004022
:1006000008600846006840F4A05008605848091F78
:100610000860081F006840F08070091F086000BF74
:100620005148006800F000700028F9D040F20570D1
:10063000504908604C480830006820F003004A49DF
:10064000083108600846006840F00200086000BFFA
:1006500045480830006800F00C000828F8D10CBDAF
:1006600010B54548006840F47000434908603E48B2
:10067000006840F001003C49086000203A49083118
:100680000860394800683D490840374908603C48DF
:10069000091D0860081F006820F48020091F0860F9
:1006A000002031490C310860FFF76CFF4FF000600B
:1006B00031498039086010BD70B500200022022346
:1006C00000240221284D08352D6805F00C0020B1CA
:1006D000042806D0082834D107E02A4D2A4E356078
:1006E00033E02A4D284E35602FE01F4D2D1D2D681B
:1006F000C5F380541C4D2D1D2D6805F03F0154B1EC
:10070000224DB5FBF1F5184E361D3668C6F3881636
:1007100005FB06F209E01B4DB5FBF1F5124E361D47
:100720003668C6F3881605FB06F20F4D2D1D2D68A1
:10073000C5F301456D1C6B00B2FBF3F5124E35603D
:1007400003E0104D104E356000BF00BF064D083568
:100750002D68C5F303150E4E705D0B4D2D68C54019
:10076000094E356070BD0000003802400070004046
:1007700008544007003C024088ED00E0FFFFF6FE11
:10078000103000240024F4005410002000127A00DD
:100790005810002000B593B00020034602460146E1
:1007A0000090FE4808F01BFBFD484088FD4908808A
:1007B000FB4880884880FA48C08888800846B0F99D
:1007C0000400B0F5167F31DD0846B0F9000010F1E5
:1007D000DC0F7CDA0846B0F90200DC2827DDF2489D
:1007E00090ED0F0AF148D0ED000A30EE600AB1EE4C
:1007F000400AF3EE0B0A80EE201ABDEEC10A10EE9D
:10080000100A00B2EA490880EA4890ED0F0AEA4867
:10081000D0ED000A30EE600AF3EE030A80EE201AF3
:10082000BDEEC10A10EE100A00B2888465E1DD4811
:10083000B0F9020010F1DC0F27DADB4890ED0F0A67
:10084000DA48D0ED000A30EE600AB1EE400AF3EE6D
:100850000B0A80EE201ABDEEC10A10EE100A00B29B
:10086000D3490883D34890ED0F0AD348D0ED000A4E
:1008700030EE600AF3EE030A80EE201ABDEEC10AE4
:1008800010EE100A00B2888737E1C74890ED0F0AD2
:10089000C648D0ED000A30EE600AB1EE400AF3EE31
:1008A0000B0A80EE201ABDEEC10A10EE100A00B24B
:1008B000BF498881BF4890ED0F0ABF48D0ED000ABC
:1008C00030EE600AF3EE030A80EE201A00E006E044
:1008D000BDEEC10A10EE100A00B208860DE1B14863
:1008E000B0F90000DC287DDDAE48B0F90200DC285C
:1008F00027DDAD4890ED0F0AAC48D0ED000A30EE90
:10090000600AB1EE400AF3EE0B0A80EE201ABDEE4B
:10091000C10A10EE100A00B2A5490881A54890ED61
:100920000F0AA548D0ED000A30EE600AF3EE030A84
:1009300080EE201ABDEEC10A10EE100A00B28885C2
:10094000DBE09848B0F9020010F1DC0F28DA964895
:1009500090ED0F0A9548D0ED000A30EE600AB1EE36
:10096000400AF3EE0B0A80EE201ABDEEC10A10EE2B
:10097000100A00B28E4908848E4890ED0F0A8E4806
:10098000D0ED000A30EE600AF3EE030A80EE201A82
:10099000BDEEC10A10EE100A00B2A1F84400ACE0AE
:1009A000814890ED0F0A8148D0ED000A30EE600AD0
:1009B000B1EE400AF3EE0B0A80EE201ABDEEC10A3A
:1009C00010EE100A00B27A4988827A4890ED0F0A38
:1009D0007948D0ED000A30EE600AF3EE030A80EEAB
:1009E000201A00E006E0BDEEC10A10EE100A00B2C7
:1009F000088782E06B48B0F90200DC2827DD6A48EE
:100A000090ED0F0A6948D0ED000A30EE600AB1EEB1
:100A1000400AF3EE0B0A80EE201ABDEEC10A10EE7A
:100A2000100A00B262498880624890ED0F0A62485D
:100A3000D0ED000A30EE600AF3EE030A80EE201AD1
:100A4000BDEEC10A10EE100A00B2088555E0554807
:100A5000B0F9020010F1DC0F28DA534890ED0F0ACC
:100A60005248D0ED000A30EE600AB1EE400AF3EED3
:100A70000B0A80EE201ABDEEC10A10EE100A00B279
:100A80004B4988834B4890ED0F0A4B48D0ED000A44
:100A900030EE600AF3EE030A80EE201ABDEEC10AC2
:100AA00010EE100A00B2A1F8400026E03E4890ED9A
:100AB0000F0A3E48D0ED000A30EE600AB1EE400A5F
:100AC000F3EE0B0A80EE201ABDEEC10A10EE100AFA
:100AD00000B237490882374890ED0F0A3648D0ED0A
:100AE000000A30EE600AF3EE030A80EE201ABDEE33
:100AF000C10A10EE100A00B288862948807A0328BD
:100B000002D100202D4908702548807A02281AD188
:100B10002A480078B8B9012028490870002006E06A
:100B2000234951F8201001AA42F82010401C122835
:100B3000F6DB122101A807F013FA6422782120487D
:100B400005F089FF00BF13B000BD7CB50020009008
:100B50000190134840881B490988401A00B2ADF83B
:100B600000000F48808817494988401A00B2ADF844
:100B700002000B49B1F906104842C11700EB917110
:100B8000104A9288C2EBA10109B2ADF804100448E2
:100B900000890C49C988401A00B215E00064004081
:100BA0007C8E002070200020BC8D002020100020B2
:100BB000E8810020FC8D00202410002076200020F9
:100BC000BCC500083A100020ADF8060002252E1F13
:100BD000002417E0694601EB44003246294601F043
:100BE0009AFFFE4830F814003DF81410084400B293
:100BF000FA4921F81400084630F81400F84921F8A1
:100C00001400641C042CE5DBF448B0F9040000284F
:100C100002DA00F0E6FE38B9F048B0F90400002826
:100C200007DD00F015FF20B10020EC498880EC4979
:100C30008880EA48B0F90600B0F5567F08DB00F07E
:100C400066FF28B140F25730E449C880E449C880C3
:100C5000E248B0F90600002807DA00F06BFF20B187
:100C60000020DE49C880DE49C88000F072FF38B934
:100C7000DA4AB2F90610B2F9040000F0F8FD06E015
:100C8000D64AB2F90610B2F9040000F04AFDD34A80
:100C9000B2F90210B2F90000002201F0BEFB7CBDE7
:100CA0002DE9F0432DED0A8B83B0002001900290D6
:100CB0000090B7EE000AB0EE408A102008F027FA44
:100CC0008146202008F023FAA9EB000420460AF010
:100CD000B8FF9FEDC40B53EC102B0BF005F841EC63
:100CE0001A0B18EE100A0BF01DFA53EC1A2B0AF02F
:100CF0006DFD0AF039FD08EE100A082008F007FA29
:100D00000446042008F003FA201A4FF4257110FB62
:100D100001F000EE100AF8EEC00AB148B0F9000088
:100D200000EE100AB8EEC00A10EE880ABDEEC00A46
:100D300010EE100A00B2ADF80400012008F0E7F947
:100D40000446022008F0E3F9201A4FF4257110FB45
:100D500001F000EE100AF8EEC00AA148B0F9020056
:100D600000EE100AB8EEC00A10EE880ABDEEC00A06
:100D700010EE100A00B2ADF80600802008F0C7F9A6
:100D80000446402008F0C3F9201A4FF4257110FBE7
:100D900001F000EE100AF8EEC00A9148B0F9040024
:100DA00000EE100AB8EEC00A10EE880ABDEEC00AC6
:100DB00010EE100A00B2ADF8080002276FF001082B
:100DC000002418E001A901EB44004246394601F035
:100DD000A2FE824830F8140001A931F8141008442A
:100DE00000B27E4921F81400084630F814007C490E
:100DF00021F81400641C032CE4DB7C48808980000B
:100E000040427B490988401A00B2ADF8000077489B
:100E1000008B4000404276494988401A00B2ADF844
:100E2000020004256E4232462946684601F073FEF0
:100E3000324629460DF1020001F06DFE6D48008832
:100E4000BDF80010084400B26A49088008460088CE
:100E50006749088067484088BDF80210084400B21E
:100E60006449488008464088614948806148B0F933
:100E70000000002802DA00F0B4FD38B95D48B0F98E
:100E80000000002807DD00F0E3FD20B100205949F3
:100E90000880574908805748B0F90200B0F5567FDE
:100EA00011DB00F034FE70B140F2573051494880F8
:100EB0004F4948804F49B1F90210484200EBD071C8
:100EC0004A104A498A614B48B0F90200002810DAFA
:100ED00000F030FE68B1002046494880444948800F
:100EE0004449B1F90210484200EBD0714A103F4921
:100EF0008A614148007868B93C48807C28B141F259
:100F00008831C80604F05DFB04E000214FF080400A
:100F100004F057FB4FF4804008F0F9F838B1002294
:100F20001146104601F079FA00F07DFE67E14FF4BA
:100F3000807008F0ECF8C0B100202E4908802C49E0
:100F400008802C4948802A4948800021274881612F
:100F5000084600F067FC214BB3F90420B3F90210F6
:100F6000B3F9000001F024FB49E14FF4806008F080
:100F7000CEF8C0B100201F4908801D4908801D49D6
:100F800048801B494880002118488161084600F0CC
:100F900049FC124BB3F90420B3F90210B3F9000075
:100FA00001F006FC2BE14FF4005008F0B0F80028E7
:100FB0007DD04FF4257008EE900AB8EEE80A0F488D
:100FC000D0ED000A20EE200ABDEEC00A10EE100A95
:100FD00000B209EE100A0A4814E000004210002096
:100FE0003A100020000000000000E03F7C8E00204E
:100FF0004E1000204A1000203710002024C20008A4
:10100000BC8D002090ED0F0AFE48D0ED000A30EEB6
:10101000600ADFEDFD0AB4EEE00AF1EE10FA13D239
:10102000FA4890ED0F0AF748D0ED000A30EE600A5A
:10103000DFEDF70A30EEC00ADFEDF60A80EE201A87
:10104000F54880ED001A27E0F04890ED0F0AED48D2
:10105000D0ED000A30EE600ADFEDF00AB4EEE00AEF
:10106000F1EE10FA13DDE94890ED0F0AE548D0EDF6
:10107000000A30EE600ADFEDEA0A30EEC00ADFED6A
:10108000E90A80EE201AE44880ED001A04E0B7EE89
:10109000000AE14880ED000ADFEDE30AB7EE000A3E
:1010A000DD4801F044FD00F0D3FC30B100E048E041
:1010B0004FF0FF30DD49088005E000F092FC10B1F0
:1010C0000120DA490880DA4AB2F9002000EE102A3D
:1010D000B8EEC00AD54AB2F9002000EE902AF8EE28
:1010E000E00ACD4A92ED001A60EE810AB8EEC91A04
:1010F00000EE810ABDEEC00A10EE102A10B2CC4AF2
:10110000B2F9021000F00DFBC84BB3F9003000EE4D
:10111000103AB8EEC00AC04BD3ED000A20EE200A08
:10112000F8EEE80A20EE200ABDEEC00A10EE103AF2
:101130001AB2C04BB3F90210B3F9000001F003FC7E
:101140005DE0BD48807A012812D100F002FD38B977
:10115000B74AB2F90210B2F9000000F088FB38E09B
:10116000B34AB2F90210B2F9000000F0DAFA30E046
:10117000B248008868B900F034FC38B900F068FC67
:1011800020B94FF4007007F0C2FF10B10120AB4945
:101190000880AA480088A8B100F0DBFC38B9A44A4E
:1011A000B2F90210B2F9000000F061FB11E000207A
:1011B000A24908809E4AB2F90210B2F9000000F07C
:1011C000B0FA06E09A4AB2F90210B2F9000000F053
:1011D000A8FA9948C07C48B1964BB3F90420B3F9FA
:1011E0000210B3F9000001F0AEFB08E0914BB3F937
:1011F0000420B3F90210B3F9000001F00EF903B0B6
:10120000BDEC0A8BBDE8F083F0B52DED0A8B83B001
:10121000002001900290B7EE000AB0EE408A102044
:1012200007F075FF0746202007F071FF3C1A2046A3
:101230000AF007FD1FED950B53EC102B0AF054FD3F
:1012400041EC1A0B18EE100A0AF06CFF53EC1A2B43
:101250000AF0BCFA0AF088FA08EE100A082007F033
:1012600056FF0446042007F052FF201A4FF4257160
:1012700010FB01F000EE100AF8EEC00A7048B0F959
:10128000000000EE100AB8EEC00A10EE880ABDEEAB
:10129000C00A10EE100A00B2ADF80400012007F0F9
:1012A00036FF0446022007F032FF201A4FF4257162
:1012B00010FB01F000EE100AF8EEC00A6048B0F929
:1012C000020000EE100AB8EEC00A10EE880ABDEE69
:1012D000C00A10EE100A00B2ADF80600802007F038
:1012E00016FF0446402007F012FF201A4FF4257124
:1012F00010FB01F000EE100AF8EEC00A5048B0F9F9
:10130000040000EE100AB8EEC00A10EE880ABDEE26
:10131000C00A10EE100A00B2ADF8080002252E1F18
:10132000002418E001A901EB44003246294601F0EF
:10133000F2FB404830F8140001A931F814100844B9
:1013400000B23C4921F81400084630F814003C492A
:1013500021F81400641C032CE4DB364BB3F90420A1
:10136000B3F90210B3F9000001F057F803B0BDEC77
:101370000A8BF0BD38B5002000902F48808980008E
:10138000404230490988401A00B2ADF800002A48AE
:10139000008B400040422B494988401A00B2ADF80A
:1013A0000200042465422A462146684601F0B3FB48
:1013B0002A4621460DF1020001F0ADFB1C480088D1
:1013C000BDF80010084400B219490880084600889A
:1013D0001C49088016484088BDF80210084400B235
:1013E0001349488008464088164948801048B0F99B
:1013F0000000002802DA00F0F4FA50BB0C48B0F903
:10140000000021E020100020000087C4BC8D0020D7
:101410000080CAC4000007C46C200020000087447C
:101420000080CA4400000744CDCCCC3D6A20002097
:101430004A100020421000207C8E002068200020EE
:101440003A1000204E100020002807DD00F000FBBD
:1014500020B1002065490880654908806348B0F9DB
:101460000200B0F5567F11DB00F051FB70B140F285
:1014700057305E4948805E4948805C49B1F90210A6
:10148000484200EBD0714A105A498A615748B0F976
:101490000200002810DA00F04DFB68B1002053492B
:1014A0004880534948805149B1F90210484200EB45
:1014B000D0714A104F498A614C4AB2F90210B2F910
:1014C000000000F02EF938BD08B54A48C07A02285D
:1014D00046D14948007828B148480078C8B94848FA
:1014E0000078B0B900200346024601460090454806
:1014F00007F075FC00200346024601460090424872
:1015000007F06DFC07F01EFE01F037FB01F0F5FC63
:101510006AE03A48007870B901F0C3FB01F006FDBB
:1015200000200346024601460090374807F057FC6A
:10153000FFF720FF58E03248007870B901F017FC3F
:1015400001F001FD002003460246014600902D48AF
:1015500007F045FCFFF758FE46E0FFF7A1FB43E02C
:101560002448C07A032823D123480078B0B900204A
:101570000346024601460090224807F030FC002056
:1015800003460246014600901F4807F028FC07F07A
:10159000D9FD01F0F2FA01F0B0FC25E01548807A9F
:1015A000012802D1FFF7D1FA1EE0FFF7F3F81BE0A4
:1015B00000200346024601460090124807F00FFC47
:1015C000002003460246014600900F4807F007FC42
:1015D0000E4800680E49086001F0CFFA01F08DFC5A
:1015E000002104484161816108BD00004A100020CB
:1015F0004E1000207C8E0020361000203410002079
:1016000035100020006400400068004010100020E9
:101610000C10002010B50446FA48406B00EE100A8A
:10162000B8EEC00AF84880ED0F0AB2EE0E2ADFEDE0
:10163000F71A9FEDF71ADFEDF70A00EE104AB8EE41
:10164000C00A2C3000F0D8FBBDEEC00A10EE100A24
:1016500000B210BD70B5044600EE104AB8EEC00AE4
:10166000ED48D0ED000A30EE200ABDEEC00A10EEC3
:10167000100A04B2E34890ED0F0AE84880ED0F0A23
:10168000E54890ED000ADFEDE31A30EE610AB0EEB6
:10169000401A90ED000ADFEDDF1A30EE210AF0EE7D
:1016A000400AB3EE0E2ADFEDD91A00EE104AB8EE6A
:1016B000C00ADA482C3000F09FFBBDEEC00A10EEE5
:1016C000100A05B22846FFF7A5FF70BD10B5044605
:1016D000D348406B00EE100AB8EEC00ACA4880ED4D
:1016E000040AB2EE0E2ADFEDC91A9FEDC91ADFED2A
:1016F000C90A00EE104AB8EEC00A00F07DFBBDEE4C
:10170000C00A10EE100A00B210BD38B504460D46EE
:10171000002003462A4621460090C24807F05FFB9E
:1017200038BD2DE9F04105460C462046FFF792FFF3
:1017300006462846FFF7CAFF07463146FFF7E5FF92
:10174000BDE8F08170B504462046FFF7BFFF0546AF
:101750000021FFF7DAFF70BD2DE9F04105460C4688
:101760002046FFF757FF06462846FFF7AFFF07461C
:101770003146FFF7CAFFBDE8F08170B504460D465B
:1017800000EE104AB8EEC00AA748D0ED000A30EECD
:10179000200ABDEEC00A10EE100A04B2A04890ED77
:1017A0000F0A9E4880ED040A9F4890ED000ADFED85
:1017B000991A30EE610AB0EE401A90ED000ADFEDA2
:1017C000951A30EE210AF0EE400AB3EE0E2ADFED54
:1017D0008F1A00EE104AB8EEC00A904800F00CFBD9
:1017E000F0EE400A00EE105AB8EEC00A30EE800A61
:1017F000BDEEC00A10EE100A06B23046FFF766FFD3
:1018000070BD10B5044600212046FFF7B6FF10BD9D
:1018100070B504462046FFF7F4FF05460021FFF7A8
:1018200074FF70BD2DE9F04105460C462046FFF7D8
:1018300011FF06462846FFF7E4FF07463146FFF74B
:1018400064FFBDE8F0812DE9F04106460C461546DF
:1018500029463046FFF791FF07462046FFF7FAFE7C
:10186000804641463846FFF750FFBDE8F08170B52D
:101870002DED028B04460D46694890ED0F0A6A482B
:10188000D0ED000A30EE600A684880ED040A9FED52
:10189000680A00F056FAB0EE408A664890ED000AF9
:1018A000B8EEC00AF2EE040A00EE880ABDEEC00AE5
:1018B000614880ED000A00EE104AB8EEC00A5F49A8
:1018C000B1F9001000EE901AF8EEE00A5C4991EDD3
:1018D000001A00EE810ABDEEC00A10EE101A08B21E
:1018E0002946FFF71EFFBDEC028B70BD70B52DEDD4
:1018F000028B04460D464A4890ED0F0A4A48D0ED47
:10190000000A30EE600A494880ED040A9FED480A5B
:1019100000F017FAB0EE408A464890ED000AB8EEA3
:10192000C00AF2EE040A00EE880ABDEEC00A424880
:1019300080ED000A3A4991ED0F0A3B49D1ED000ACA
:1019400030EE600AF3EE0B0A08EE200ABDEEC00A84
:1019500010EE101A08B222462946FFF774FFBDECBC
:10196000028B70BD70B52DED028B04460D461646F8
:101970002B4890ED0F0A2C48D0ED000A30EE600A9B
:10198000304880ED040A00EE104AB8EEC00A00F0BC
:10199000D8F9B0EE408A274890ED000AB8EEC00AA8
:1019A000F2EE040A00EE880ABDEEC00A224880ED7D
:1019B000000A1B4991ED0F0A1B49D1ED000A30EED8
:1019C000600AF3EE040A08EE200ABDEEC00A10EE2B
:1019D000101A08B22A463146FFF735FFBDEC028BDC
:1019E00070BD0F4890ED0F0A0F48D0ED000A9FED33
:1019F000161A70EE810AB4EEE00AF1EE10FA25D262
:101A000001207047FC8D0020E07F00200000C842CC
:101A1000000025C400002544241000203880002048
:101A2000BC8D002000640040201000209080002029
:101A300000000000101000200C10002038100020C2
:101A400024C20008BC8000200080CAC40020704767
:101A50009D4890ED0F0A9D48D0ED000A9FED9C1A1D
:101A600070EE810AB4EEE00AF1EE10FA01DD012019
:101A700070470020FCE710B52DED068B93480068F9
:101A80000AF050FB41EC1A0B9FED920B53EC102B1C
:101A900009F09CFE41EC180B8B4890ED0F0A10EEFC
:101AA000101A08460AF03EFB41EC190B53EC182BB8
:101AB0000AF0DEF803D20120BDEC068B10BD002039
:101AC000FAE710B52DED068B804800680AF02AFB76
:101AD00041EC1A0B9FED810B53EC102B09F076FEB5
:101AE00041EC180B784890ED0F0A10EE101A0846DA
:101AF0000AF018FB41EC190B53EC182B0AF0F2F921
:101B000003D20120BDEC068B10BD0020FAE775481A
:101B100090ED0F0A7448D0ED000A9FED741A70EE34
:101B2000810AB4EEE00AF1EE10FA01DD01207047FF
:101B30000020FCE76B4890ED0F0A6B48D0ED000ADF
:101B4000B4EEE00AF1EE10FA01D201207047002055
:101B5000FCE710B55C48D0ED0F0A5C4890ED001A28
:101B600070EEC10AB0EE600AB3EE0B1A5FED500AD8
:101B700000F0F1FF10BD70B504465D4800685D4996
:101B80000860601C88B35C4830F824006FF01A01CC
:101B900010FB01F005B2584904F1090031F82000AA
:101BA00000EB400101EB001006B240F254608542A8
:101BB00000DD00E0284605465048854200DA00E096
:101BC00028460546B6F5567F02DB40F2573000E066
:101BD00030460646002E01DA002000E03046064678
:101BE00031462846FFF71EFE1CE0FFE73D4A92ED16
:101BF0000F0A3D4AD2ED000A30EE600ABDEEC00A7F
:101C000010EE102A11B2304A92ED0F0A2F4AD2ED8F
:101C1000000A30EE600ABDEEC00A10EE102A10B2C3
:101C2000FFF700FE70BD10B5402007F070FA18B144
:101C30000020FFF7A0FF46E0012007F068FA18B186
:101C40000120FFF798FF3EE0802007F060FA18B10E
:101C50000220FFF790FF36E0042007F058FA18B191
:101C60000320FFF788FF2EE0022007F050FA18B19A
:101C70000420FFF780FF26E0082007F048FA18B19B
:101C80000520FFF778FF1EE04FF4006007F03FFAF1
:101C900018B10620FFF76FFF15E04FF4805007F0F2
:101CA00036FA18B10720FFF766FF0CE04FF400503A
:101CB00007F02DFA18B10820FFF75DFF03E04FF0A1
:101CC000FF30FFF758FF10BDBC8D00202010002012
:101CD0000080CA4400000000004094C000000000E2
:101CE00000409440FC8D00202410002000C055448A
:101CF000101000200C100020E8810020ACF9FFFF3C
:101D000080ED000AC0ED010A80ED021AC0ED0A1A4A
:101D10009FEDFE2A80ED032A9FEDFC2A80ED042A28
:101D20009FEDFA2A80ED052A9FEDF82A80ED072A1B
:101D30009FEDF62A80ED082A9FEDF42A80ED092A0E
:101D40007047F0EE400AC0ED030A90ED030A90EDF3
:101D5000041A30EE410A80ED070A90ED080A90ED72
:101D6000071A30EE010A80ED080A90ED070A90ED9F
:101D7000051A30EE410A80ED090A90ED070A80ED60
:101D8000050A90ED000A90ED071A20EE010A90ED89
:101D9000011AD0ED081A01EE210A90ED021AD0EDD9
:101DA000091A01EE210A80ED060A90ED060A90ED6F
:101DB0000A1AB4EEC10AF1EE10FA02DD90ED0A0A39
:101DC00001E090ED060A80ED060A90ED060A90ED1E
:101DD0000A1AB1EE411AB4EEC10AF1EE10FA04D2B9
:101DE00090ED0A0AB1EE400A01E090ED060A80ED9E
:101DF000060A90ED060A704710B52DED088B0446D3
:101E0000B0EE409AF0EE609AB0EE41AAB0EE618A70
:101E1000F0EE428AB7EE000AF0EE40AA84ED039A93
:101E200094ED030AD4ED040A30EE600A84ED070A4B
:101E300094ED040AB4EEE90AF1EE10FA7ADD94EDBD
:101E4000070A10EE101A08460AF06CF941EC1B0B59
:101E5000B0EE4B0AF0EE6B0A09F04DFC00EE100AF2
:101E6000B8EEC00AB4EEC80AF1EE10FA04DD9FED38
:101E7000A70AF0EE40AA44E194ED070A10EE101A0A
:101E800008460AF04FF941EC1B0BB0EE4B0AF0EE9E
:101E90006B0A09F030FC00EE100AB8EEC00AB4EE8E
:101EA000E80AF1EE10FA16D2B7EE000AF0EE40AAF8
:101EB000D4ED080A94ED070AB5EEC00AF1EE10FA67
:101EC00002D294ED070A01E09FED900A30EE800AFD
:101ED00084ED080A15E194ED070A10EE101A084681
:101EE0000AF020F941EC1B0BB0EE4B0AF0EE6B0A46
:101EF00009F001FC00EE100AB8EEC00A38EE400A04
:101F000078EE680A80EE201AF0EE41AAD4ED080AB5
:101F100094ED070AB5EEC00AF1EE10FA03D294ED83
:101F2000070A02E006E09FED790A30EE800A84EDB0
:101F3000080AE6E094ED040AB4EECA0AF1EE10FADB
:101F40007AD294ED070A10EE101A08460AF0EAF861
:101F500041EC1B0BB0EE4B0AF0EE6B0A09F0CBFB29
:101F600000EE100AB8EEC00AB4EEC80AF1EE10FA9C
:101F700004DD9FED660AF0EE40AAC2E094ED070A88
:101F800010EE101A08460AF0CDF841EC1B0BB0EE2B
:101F90004B0AF0EE6B0A09F0AEFB00EE100AB8EE49
:101FA000C00AB4EEE80AF1EE10FA16D2B7EE000A53
:101FB000F0EE40AAD4ED080A94ED070AB5EEC00A87
:101FC000F1EE10FA02DD94ED070A01E09FED4F0AF1
:101FD00030EE800A84ED080A93E094ED070A10EED3
:101FE000101A08460AF09EF841EC1B0BB0EE4B0AA3
:101FF000F0EE6B0A09F07FFB00EE100AB8EEC00AA3
:1020000038EE400A78EE680A80EE201AF0EE41AA17
:10201000D4ED080A94ED070AB5EEC00AF1EE10FA05
:1020200003DD94ED070A02E006E09FED380A30EE8A
:10203000800A84ED080A64E094ED070A10EE101A95
:1020400008460AF06FF841EC1B0BB0EE4B0AF0EEBD
:102050006B0A09F050FB00EE100AB8EEC00AB4EEAD
:10206000C80AF1EE10FA04DD9FED280AF0EE40AA4E
:1020700047E094ED070A10EE101A08460AF052F8ED
:1020800041EC1B0BB0EE4B0AF0EE6B0A09F033FB90
:1020900000EE100AB8EEC00AB4EEE80AF1EE10FA4B
:1020A0000CD2B7EE000AF0EE40AA94ED080AD4ED87
:1020B000070A30EE200A84ED080A22E094ED070AB0
:1020C00010EE101A08460AF02DF841EC1B0BB0EE8A
:1020D0004B0AF0EE6B0A09F00EFB00EE100AB8EEA8
:1020E000C00A38EE400A78EE680A80EE201AF0EE58
:1020F00041AA94ED080AD4ED070A30EE200A84EDD7
:10210000080A94ED070AD4ED050A01E0000000007A
:1021100030EE600A84ED090A94ED070A84ED050AA1
:1021200094ED000AD4ED070A20EE200AD4ED010A4E
:1021300060EEAA0A94ED081A00EE810AD4ED020AB4
:1021400094ED091A00EE810A84ED060A94ED060A60
:10215000D4ED0A0AB4EEE00AF1EE10FA02DD94EDD5
:102160000A0A01E094ED060A84ED060A94ED060AD7
:10217000D4ED0A0AF1EE600AB4EEE00AF1EE10FACC
:1021800004D294ED0A0AB1EE400A01E094ED060A89
:1021900084ED060A94ED060ABDEC088B10BDB0EE86
:1021A000402A80ED032A90ED030AD0ED042A30EE98
:1021B000620A80ED070A90ED070AD0ED082A02EEC8
:1021C000A10A80ED080A90ED080AB4EEE00AF1EEEB
:1021D00010FA02DDB0EE600A01E090ED080A80ED31
:1021E000080A90ED080AB4EEC10AF1EE10FA02D224
:1021F000B0EE410A01E090ED080A80ED080A90ED8A
:10220000070AD0ED052A30EE620A80ED090A90ED4A
:10221000070A80ED050A90ED000AD0ED072A20EEAE
:10222000220AD0ED012A90ED083A02EE830AD0EDA1
:10223000022A90ED093A02EE830A80ED060A90ED3B
:10224000060AD0ED0A2AB4EEE20AF1EE10FA02DD37
:1022500090ED0A0A01E090ED060A80ED060A90ED85
:10226000060AD0ED0A2AF1EE622AB4EEE20AF1EE95
:1022700010FA04D290ED0A0AB1EE400A01E090EDA6
:10228000060A80ED060A90ED060A70472DE9F04136
:102290002DED068B05460C461646B0EE409AF0EE44
:1022A000609AB0EE41AAFE4890ED0F0AFD48D0EDCD
:1022B000000A30EE600AB1EE400AF2EE040A20EEA7
:1022C000200AF3EE0B0A80EE201ABDEEC10A10EED2
:1022D000100A07B208EE105A08EE904A384600F08D
:1022E00076FDF8EEE80A60EE20AA384600F0C1FD5F
:1022F000F8EEC80A40EE80AABDEEEA0A10EE100A17
:1023000005B2384600F0B5FDF8EEE80A60EE20AA06
:10231000384600F05CFDF8EEC80A40EEC0AABDEEFB
:10232000EA0A10EE100A04B200EE105AB8EEC00A23
:1023300020EE090ABDEEC00A10EE100A05B200EE4A
:10234000104AB8EEC00A20EE290ABDEEC00A10EE0F
:10235000100A04B200EE106AB8EEC00A20EE0A0AB3
:10236000BDEEC00A10EE100A06B26019304400B289
:10237000CD490880601B301A00B248806019301ABD
:1023800000B28880601B304400B2C8800846BDECB3
:10239000068BBDE8F08130B50446012A03DA002A35
:1023A00001DB1A4603E0C1480068C14D2860C148FE
:1023B000028001EE904AF8EEE11A61EE801AFDEE1D
:1023C000E11A11EE900A04B201EE901AF8EEE11A49
:1023D00061EEA01AFDEEE11A11EE900A01B201EED3
:1023E000902AF8EEE11A61EE811AFDEEE11A11EE83
:1023F000900A02B20819104400B2AB4D2880081BA5
:10240000101A00B268800819101A00B2A880081BC0
:10241000104400B2E880284630BD2DE9F0412DED92
:10242000028B84B006460F469046A0480068A24939
:102430000860084690ED000AB8EEC00A9F4880ED9B
:10244000040A9F4890ED000A9E4880ED040ABBEE06
:102450000E2AF3EE0E1A9FED9C1ADFED9C0A9448AB
:1024600090ED000AB8EEC00A9448FFF7C5FCBDEE37
:10247000C00A10EE100A04B22346B6EE001AF7EEB8
:10248000000A9FED930A424639463046FFF783FF24
:1024900005469048406B00EE100AB8EEC00A8E4820
:1024A00080ED040A8D48406B00EE100AB8EEC00AB9
:1024B000894880ED0F0A8A48406B00EE100AB8EE9A
:1024C000C00A854880ED1A0A8648406B00EE100A63
:1024D000B8EEC00A804880ED250AB7EE000AB0EEDB
:1024E000408A774890ED000ADFED7F0AB4EEE00AFB
:1024F000F1EE10FA16D29FED7C0A7248FFF721FC2C
:10250000F7EE000A30EEC00AB0EE408AB5EEC08A9F
:10251000F1EE10FA02DDB0EE480A01E0B1EE480A31
:10252000B0EE408A002430E035F9140000EE100AC5
:10253000B8EEC00A20EE080ABDEEC00A10EE100A7E
:1025400000B225F8140035F9141000EE901AF8EED8
:10255000E00AB0EE600A04EB440101EBC4015E4AFC
:1025600002EB8100B2EE0E2ADFED601A9FED601AD9
:10257000DFED600AFFF740FCBDEEC00A10EE100A66
:1025800000B202A921F81400641C042CCCDBBDF9B4
:102590000E000090BDF90C30BDF90A20BDF90810FD
:1025A000554806F01CFC04B0BDEC028BBDE8F08180
:1025B0002DE9F0412DED028B84B006460F46904682
:1025C0003A4800683C490860084600683849086095
:1025D000394890ED000AB8EEC00A384880ED040A88
:1025E000374890ED000A374880ED040ABBEE0E2A0A
:1025F000F3EE0E1A9FED341ADFED340A084690ED23
:10260000000AB8EEC00A2D48FFF7F6FBBDEEC00A7F
:1026100010EE100A04B22346B6EE001AF7EE000AD6
:10262000B7EE000A424639463046FFF7B4FE05468B
:102630002848406B00EE100AB8EEC00A264880ED2C
:10264000040A2648406B00EE100AB8EEC00A224881
:1026500080ED0F0A2248406B00EE100AB8EEC00A67
:102660001D4880ED1A0A1F48406B00EE100AB8EEB4
:10267000C00A194880ED250AB7EE000AB0EE408A7C
:102680000F4890ED000ADFED180AB4EEE00AF1EE13
:1026900010FA45D29FED140A0A48FFF752FB2DE0CD
:1026A000BC8D00202010002014100020306D002070
:1026B0000C1000203810002010100020887F00200F
:1026C0001C100020B47F0020000048C400004844D3
:1026D0003333333FBC8C0020287E0020FC8C00204C
:1026E0003C8D00207C8D0020000070420000C8421C
:1026F000000025C40000254400680040F7EE000AF1
:1027000030EEC00AB0EE408AB5EEC08AF1EE10FAA3
:1027100002DDB0EE480A01E0B1EE480AB0EE408AB0
:10272000002432E004EB440101EBC401E24A02EB75
:102730008101D1ED040AB0EE600A04EB440101EB23
:10274000C40102EB8100B2EE0E2A5FED181A1FEDF4
:10275000181A5FED180AFFF74FFB35F9140000EE69
:10276000100AB8EEC00A20EE080ABDEEC00A10EE4C
:10277000100A00B225F8140035F8140000EB4000F0
:1027800000B202A921F81400641C042CCADBBDF9B4
:102790000E000090BDF90C30BDF90A20BDF90810FB
:1027A000C64806F01CFB04B0BDEC028BBDE8F0810E
:1027B0002DE9F0412DED028B84B006460F46904680
:1027C000BF480068BF490860084690ED000AB8EEAF
:1027D000C00ABD4880ED040ABC4890ED000ABC4820
:1027E00080ED040ABBEE0E2AF3EE0E1A1FED4A1A14
:1027F0005FED4A0AB74890ED000AB8EEC00AB24849
:10280000FFF7FAFABDEEC00A10EE100A04B2234632
:10281000B6EE001AF7EE000AB7EE000A4246394655
:102820003046FFF7B8FD0546AB48406B00EE100A96
:10283000B8EEC00AA94880ED040AA948406B00EE32
:10284000100AB8EEC00AA54880ED0F0AA548406BF3
:1028500000EE100AB8EEC00AA04880ED1A0AA2489D
:10286000406B00EE100AB8EEC00A9C4880ED250AC5
:10287000B7EE000AB0EE408A944890ED000A5FED92
:10288000660AB4EEE00AF1EE10FA16D21FED6A0AFB
:102890008F48FFF756FAF7EE000A30EEC00AB0EEA6
:1028A000408AB5EEC08AF1EE10FA02DDB0EE480AB9
:1028B00001E0B1EE480AB0EE408A002430E035F97C
:1028C000140000EE100AB8EEC00A20EE080ABDEEB1
:1028D000C00A10EE100A00B225F8140035F91410E1
:1028E00000EE901AF8EEE00AB0EE600A04EB440144
:1028F00001EBC401794A02EB8100B2EE0E2A5FEDD2
:10290000851A1FED851A5FED850AFFF775FABDEE92
:10291000C00A10EE100A00B202A921F81400641CCB
:10292000042CCCDBBDF90E000090BDF90C30BDF9D4
:102930000A20BDF90810614806F051FA04B0BDEC58
:10294000028BBDE8F0812DE9F0412DED028B84B0C2
:1029500006460F4690465A4800685A49086008469D
:1029600000685C490860574890ED000AB8EEC00A5C
:10297000554880ED040A554890ED000A544880ED12
:10298000040AB6EE001AF6EE000AB6EE000A424657
:1029900039463046FFF77AFC05464F48406B00EE5B
:1029A000100AB8EEC00A444880ED040A4C48406B57
:1029B00000EE100AB8EEC00A3F4880ED0F0A494801
:1029C000406B00EE100AB8EEC00A3B4880ED1A0AD0
:1029D0004548406B00EE100AB8EEC00A364880ED5C
:1029E000250AB7EE000AB0EE408A384890ED000A9A
:1029F0005FEDC30AB4EEE00AF1EE10FA16D21FED55
:102A0000C60A3348FFF79DF9F7EE000A30EEC00A18
:102A1000B0EE408AB5EEC08AF1EE10FA02DDB0EEFB
:102A2000480A01E0B1EE480AB0EE408A002430E0E6
:102A300035F9140000EE100AB8EEC00A20EE080ABC
:102A4000BDEEC00A10EE100A00B225F8140035F9E8
:102A5000141000EE901AF8EEE00AB0EE600A04EBF3
:102A6000440101EBC401144A02EB8100B2EE0E2ACC
:102A70005FEDE21A1FEDE21A5FEDE20AFFF7BCF923
:102A8000BDEEC00A10EE100A00B202A921F814002F
:102A9000641C042CCCDBBDF90E000090BDF90C3099
:102AA000BDF90A20BDF90810044806F098F904B0F1
:102AB000BDEC028BBDE8F081287E0020006800405C
:102AC000306D002010100020887F00201C10002096
:102AD000B47F00200C100020BC8C0020D87E002089
:102AE000FC8C00203C8D00207C8D002070B50446BD
:102AF00004F0A5F9054600BF04F0A1F9A842FBD0F7
:102B000000BF04F09CF9401BB0FBF4F104FB110082
:102B10000028F6D170BDB0F900308B4201DD018094
:102B200004E0B0F90030934200DA0280704790ED83
:102B3000001AB4EEC01AF1EE10FA02DD80ED000AC0
:102B400008E090ED001AB4EEE01AF1EE10FA01D2AE
:102B5000C0ED000A704770EE601AF4EEC11AF1EE93
:102B600010FA08D270EEC01AF4EEC11AF1EE10FAA3
:102B700001D2012070470020FCE710B5002433E0AB
:102B800004EB440101EBC401F54A02EB8100DFEDE7
:102B9000F51A9FEDF51ADFEDF40A9FEDF40AFFF741
:102BA000AFF804EB440101EBC401F14A02EB8100F0
:102BB000DFEDEC1A9FEDEF1AF1EE040A9FEDEE0A3D
:102BC000FFF79EF804EB440101EBC401EB4A02EB72
:102BD0008100DFEDE41A9FEDE41ADFEDE30A9FEDDB
:102BE000E60AFFF78DF8641C042CC9DBDFEDDD1A63
:102BF0009FEDE01AF1EE040A9FEDDF0AE048FFF7CF
:102C00007FF8DFEDD81A9FEDDB1AF1EE040A9FED95
:102C1000DA0ADB482C30FFF773F8DFEDD21A9FEDAC
:102C2000D21ADFEDD10A9FEDD10AD648FFF768F836
:102C3000DFEDCC1A9FEDCC1ADFEDCB0A9FEDD20A67
:102C4000D0482C30FFF75CF8DFEDD01A9FEDD01A9A
:102C5000DFEDC50AB1EE000ACE48FFF751F8DFED0F
:102C6000CE1A9FEDC11ADFEDC00A9FEDCC0ACC4809
:102C7000FFF746F8DFEDCB1A9FEDBB1ADFEDBA0A7E
:102C80009FEDC60AC848FFF73BF8DFEDC61A9FED77
:102C9000B61ADFEDB50A9FEDC10AC448FFF730F858
:102CA00010BD10B5002433E004EB440101EBC40176
:102CB000AB4A02EB8100DFEDAB1A9FEDAB1ADFED03
:102CC000AA0A9FEDAA0AFFF71BF804EB440101EBE7
:102CD000C401A74A02EB8100DFEDA21A9FEDA51AFD
:102CE000F1EE040A9FEDA40AFFF70AF804EB440191
:102CF00001EBC401A14A02EB8100DFED9A1A9FEDBE
:102D00009A1ADFED990A9FED9C0AFEF7F9FF641C01
:102D1000042CC9DBDFED9D1A9FED9D1ADFED920AB1
:102D2000B1EE000A9B48FEF7EBFFDFED9B1A9FED2B
:102D30008E1ADFED8D0A9FED990A9948FEF7E0FFA4
:102D4000DFED981A9FED881ADFED870A9FED930A51
:102D50009548FEF7D5FFDFED931A9FED831ADFED5F
:102D6000820A9FED8E0A9148FEF7CAFF10BD10B58A
:102D7000DFED7C1A9FED7F1AF1EE040A9FED7E0ACB
:102D80007F48FEF7BDFFDFED771A9FED7A1AF1EE6F
:102D9000040A9FED790A7A482C30FEF7B1FFDFED87
:102DA000711A9FED711ADFED700A9FED700A754878
:102DB000FEF7A6FFDFED6B1A9FED6B1ADFED6A0AD7
:102DC0009FED710A6F482C30FEF79AFF10BD9FED02
:102DD000661AB0EE410A4FF4616190FBF1F201FB1B
:102DE0001200012100EE901A002802DA891E00EE7E
:102DF000901A002801DD014600E0414208B2B0F51A
:102E0000617F07DA6A4901EB800191ED001AB0EEAB
:102E1000410A27E0B0F5E16F09DAC0F5E161644AE3
:102E200002EB810191ED001AB0EE410A1AE040F682
:102E30008C2188420BDAA0F5E1615D4A02EB810149
:102E400091ED001AB1EE411AB0EE410A0AE0C0F568
:102E50006161574A02EB810191ED001AB1EE411A0E
:102E6000B0EE410AB8EEE01A20EE011AB0EE410AC7
:102E70007047DFED3D0AB0EE600A4FF4616190FBF0
:102E8000F1F201FB1200002801DD014600E04142A1
:102E900008B2B0F5617F07DA464901EB8001D1ED58
:102EA000000AB0EE600A27E0B0F5E16F0BDAC0F57A
:102EB000E161404A02EB8101D1ED000AF1EE600AC6
:102EC000B0EE600A18E040F68C2188420BDAA0F5DB
:102ED000E161384A02EB8101D1ED000AF1EE600AAE
:102EE000B0EE600A08E0C0F56161324A02EB810190
:102EF000D1ED000AB0EE600A7047002007E0002123
:102F00002D4A22F810102D4A22F81010401C0428D7
:102F1000F5DB002007E00021294A22F81010294A99
:102F200022F81010401C0228F5DB7047002007E053
:102F30000021214A22F81010204A22F81010401CCB
:102F40000428F5DB7047002007E000211C4A22F826
:102F500010101C4A22F81010401C0228F5DB7047A4
:102F6000787D002000409C46000000009A99193EA0
:102F7000287E00200000C8420000A042D87E002029
:102F8000E07F0020388000203333B33E000025442A
:102F900000002042887F0020000070420AD7A33C36
:102FA000B47F00200000484290800020BC800020B8
:102FB00078300020883E0020421000203A10002087
:102FC0004A1000204E100020094880470948004759
:102FD000FEE7FEE7FEE7FEE7FEE7FEE7FEE7FEE7C9
:102FE000FEE7FEE704480549054A064B7047000026
:102FF0006106000889010008C8900020C8960020DA
:10300000C8920020C892002032490143324A116020
:10301000704770B5002100230F22C4781CB32E4CDA
:10302000246804F4E064C4F5E064C4F30721C1F14A
:103030000404E3B20A4144789C40E1B2847814402D
:1030400021430C07210E254C05786155047804F0C6
:103050001F050124AC4005786D11AD0005F1E02598
:10306000C5F8004109E0047804F01F050124AC40D4
:103070001B4D0678761145F8264070BD194A0A4066
:103080000243154B1B1F1A60704739B1124A121DBB
:1030900012680243104B1B1D1A6006E00E4A121DF7
:1030A000126882430C4B1B1D1A607047042808D11C
:1030B0004FF0E021096941F004014FF0E022116175
:1030C00007E04FF0E021096921F004014FF0E02210
:1030D000116170470000FA050CED00E000E400E02B
:1030E00080E100E080FFFF1F10B50121080203F01E
:1030F000D2FA00214FF4807003F0CDFA10BD30B544
:103100000246002000235068F84C20400D790C68DE
:1031100044EA0524204350609068F54C2040D1E9F2
:1031200003542C438D682C434D7944EA45042043D5
:103130009060D06A20F470000C7D641EE4B22343DA
:1031400040EA0350D06230BD00210160017141713D
:103150008160C16001610121017570470021E54A6C
:103160001168E54A1140D0E900231A4383681A43E5
:10317000C3681A431143E14AC2F80413704700219F
:10318000016041608160C160704721B1826842F096
:103190000102826003E0826822F0010282607047CF
:1031A0000A4600214168D64B1940114341607047DF
:1031B0004162826270470A460021416821F01F0186
:1031C00011434160704738B1CA49096841F40001B0
:1031D000CA4AC2F8041306E0C649096821F400018E
:1031E000C64AC2F80413704738B1C249096841F4AD
:1031F0008001C24AC2F8041306E0BE49096821F4FE
:103200008001BE4AC2F804137047F0B504460D466B
:1032100000200021092D11DDE068A5F10A0606EB6A
:103220004607072606FA07F18843A5F10A0606EBCA
:10323000460603FA06F10843E0600CE0206905EB5E
:103240004507072606FA07F1884305EB450603FA0A
:1032500006F108432061072A0FDA606B561E06EB61
:1032600086071F2606FA07F18843561E06EB8606D8
:1032700005FA06F10843606322E00D2A0FDA206B9D
:10328000D61F06EB86071F2606FA07F18843D61FCE
:1032900006EB860605FA06F10843206310E0E06AB3
:1032A000A2F10D0606EB86071F2606FA07F18843F2
:1032B000A2F10D0606EB860605FA06F10843E06268
:1032C000F0BD816841F08041816070470146002077
:1032D0008A6802F080420AB1012000E000207047B5
:1032E00021B1826842F48062826003E0826822F445
:1032F00080628260704721B1826842F0020282607F
:1033000003E0826822F002028260704710B50A462C
:1033100000210023416821F46041531E41EA4331FA
:10332000416010BD21B1426842F40062426003E096
:10333000426822F40062426070470146C86C80B265
:1033400070476C48001D0068704721B1826842F4E4
:103350008072826003E0826822F48072826070472B
:1033600021B1826842F40072826003E0826822F434
:1033700000728260704738B15E49096841F40051BB
:103380005E4AC2F8041306E05A49096821F4005164
:103390005A4AC2F804137047F0B504461546002097
:1033A00000220026092911DDE068A1F10A0707EBD8
:1033B000470C072707FA0CF29043A1F10A0707EB25
:1033C000470703FA07F21043E0600CE0206901EBC5
:1033D000410C072707FA0CF2904301EB410703FA6F
:1033E00007F210432061A06BC0F30156EF1C06F1F9
:1033F000010CA7EB0C0707EB870C1F2707FA0CF251
:103400009043EF1C06F1010CA7EB0C0707EB8707B5
:1034100001FA07F21043A063F0BD10B50A4600217F
:103420000023816B21F44011531E41EA0351816353
:1034300010BD08B5002300930090009B0B4400933F
:10344000009B1A6008BD0A460021816821F47021A2
:103450001143816070470A460021816821F44011C0
:10346000114381607047816841F480018160704739
:10347000014600208A6802F480020AB1012000E0BF
:103480000020704721B1426842F48062426003E04C
:10349000426822F480624260704721B1426842F47F
:1034A0008052426003E0426822F4805242607047DA
:1034B00008B5024600200090009201F12800009B10
:1034C000184400900098006880B208BD10B50B4603
:1034D0000021D9B2012404FA01F11AB144680C4365
:1034E000446002E044688C43446010BDFFFEFFFC72
:1034F000FDF7FFC004230140E030FCFF0020014045
:10350000FFFD3FFF0246002013680B400BB1012076
:1035100000E000207047CA430260704770B5024661
:103520000020002300240B12556801268E4005EA76
:10353000060415681D4015B10CB1012000E0002003
:1035400070BD00220A12D3430360704710B50446D1
:10355000FE48844209D10121480603F08BF800217E
:103560004FF0007003F086F808E00121880603F0B0
:1035700081F800214FF0806003F07CF810BD30B579
:10358000024600200023146824F00204146014682A
:1035900044F00104146000E05B1C546804F0010472
:1035A0001CB94FF6FF74A342F6D1546804F001042D
:1035B0000CB900206CE08C79012C04D1146844F023
:1035C0008004146003E0146824F080041460CC7953
:1035D000012C04D1146844F04004146003E0146822
:1035E00024F0400414600C7A012C04D1146844F0D7
:1035F0002004146003E0146824F0200414604C7A62
:10360000012C04D1146844F01004146003E0146821
:1036100024F0100414608C7A012C04D1146844F056
:103620000804146003E0146824F008041460CC7AE1
:10363000012C04D1146844F00404146003E01468FD
:1036400024F0040414608C78A407CD7844EA05645F
:103650000D7944EA05444D7944EA05540D886D1E00
:103660002C43D461146824F001041460002300E0AA
:103670005B1C546804F001041CB14FF6FF74A342B4
:10368000F6D1546804F001040CB1002000E00120E0
:1036900030BD10B50021837A012202FA03F1AC4A51
:1036A000126842F00102AA4B1A60A94A1C32126841
:1036B0008A43A74B1C331A60027BCAB9A44A0C3256
:1036C00012688A43A24B0C331A604288C38842EACC
:1036D00003439F4A4032847A42F834300288838818
:1036E00042EA03439A4A4032847A02EBC4025360AE
:1036F000027B012A19D1964A0C3212680A43944B74
:103700000C331A604288038842EA0343904A4032ED
:10371000847A42F83430C288838842EA03438C4A70
:103720004032847A02EBC4025360C27A3AB9884AC2
:10373000121D12688A43864B1B1D1A6006E0844ADC
:10374000121D12680A43824B1B1D1A60028932B98E
:103750007F4A143212688A437D4B14331A600289FF
:10376000012A06D17A4A143212680A43784B14337C
:103770001A60427B012A06D1754A1C3212680A433C
:10378000734B1C331A60724A126822F00102704BAC
:103790001A6010BD00218171C17101724172817284
:1037A000C1728170C1700321017102214171012137
:1037B000018070476649096841F00101644A11605F
:1037C0001146096843F60E729143614A1160114631
:1037D000096841EA002111601146096821F00101E0
:1037E0001160704721B1026842F48032026003E048
:1037F000026822F4803202607047E1B1026842F050
:10380000800202604FF4C272125842F480734FF487
:10381000C27213504FF4CA72125842F480734FF4BC
:10382000CA7213504FF4D272125842F480734FF49C
:10383000D27213501BE0026822F0800202604FF443
:10384000C272125822F480734FF4C27213504FF4B4
:10385000CA72125822F480734FF4CA7213504FF494
:10386000D272125822F480734FF4D2721350704700
:1038700010B502460020936803F08063B3F1806FB7
:1038800000D110E0936803F00063B3F1006F01D141
:10389000012008E0936803F08053B3F1805F01D109
:1038A000022000E00420042879D002F5C07303EB65
:1038B00000131B6803F0010402F5C07303EB00134F
:1038C0001C600B7A7BB94B7A0C8843EA445302F5AF
:1038D000C07404EB00142468234302F5C07404EBA5
:1038E0000014236010E00B7A4C6843EAC4034C7A5E
:1038F000234302F5C07404EB00142468234302F54B
:10390000C07404EB001423608B7A03F00F038B72F6
:1039100002F5C07303EB00135B6823F00F0402F59C
:10392000C07303EB00135C6002F5C07303EB00137C
:103930005B688C7A234302F5C07404EB0014636067
:103940008B7B1C064B7B44EA034403E0006400408D
:10395000006600400B7B44EA0323CC7A234302F544
:10396000C07404EB0014A3608B7C1C064B7C44EAFF
:1039700003440B7C44EA0323CC7B234302F5C0744D
:1039800004EB0014E36002F5C07303EB00131B6843
:1039900043F0010402F5C07303EB00131C6010BD7B
:1039A00010B50246002321B1012907D002290FD109
:1039B00009E09068F94C00EA04030BE09068F84CC9
:1039C00000EA040306E09068F64C00EA040301E014
:1039D000002300BF00BFF44C181BA34216D007DC25
:1039E00083B16FF08060184470B1022818D111E0E3
:1039F000B0F5007F10D0ED4C204448B1B0F5003F49
:103A00000ED10BE002230DE000230BE0002309E0C0
:103A1000002307E0012305E0012303E0012301E087
:103A2000002300BF00BFD8B210BD21B1012907D0CB
:103A300002290FD109E0826842F0800282600AE028
:103A4000826842F40042826005E0826842F400022B
:103A5000826000E000BF00BF704710B500F5D8736A
:103A600003EB01131B6803F004031372137A53B9B9
:103A700000F5D87303EB01131B6840F2FF7404EAEE
:103A80005353136009E000F5D87303EB01131B686F
:103A90006FF0604404EAD303536000F5D87303EB7E
:103AA00001131B6803F00203537200F5D87303EB94
:103AB00001135B6803F00F03937200F5D87303EBF7
:103AC00001135B681B0AD37400F5D87303EB011371
:103AD0009B68D37200F5D87303EB01139B681C0A33
:103AE000147300F5D87303EB01139B681C0C54731B
:103AF00000F5D87303EB01139B681B0E937300F55D
:103B0000D87303EB0113DB68D37300F5D87303EBB1
:103B10000113DB681C0A147400F5D87303EB01135E
:103B2000DB681C0C547400F5D87303EB0113DB68DD
:103B30001B0E937421B9C36843F02003C36003E0F4
:103B4000036943F02003036110BD21B9C26842F04C
:103B50002002C26003E0026942F020020261704765
:103B60000246002019B9D36803F0030006E00129DA
:103B700003D1136903F0030000E00020704710B583
:103B800002460B4600204FF6FF71BBB9146824F0C3
:103B9000020444F00104146000E0491E546804F07B
:103BA0000304012C01D00029F7D1546804F0030468
:103BB000012C01D0002032E0012030E0012B13D194
:103BC000146824F00304146000E0491E546804F0F3
:103BD00003040CB10029F8D1546804F003040CB1BB
:103BE00000201CE001201AE0022B17D1146824F0F9
:103BF000010444F00204146000E0491E546804F01B
:103C00000304022C01D00029F7D1546804F0030406
:103C1000022C01D0002002E0012000E0002010BDB5
:103C2000014600200A6822F0010242F002020A6006
:103C30004A6802F00302022A00D1012070470146BF
:103C40004FF6FF7200200B6823F002030B6000E0C8
:103C5000521E4B6803F00203022B01D1002AF7D158
:103C60004B6803F00203022B00D00120704701468D
:103C700000208A6902F070007047014600208A69BE
:103C8000100E7047014600208A69C2F30740704752
:103C90001AB143690B43436102E043698B434361BB
:103CA000704710B50246002001F4700343B19369D8
:103CB000C1F3130423400BB101202DE000202BE0C1
:103CC00001F0807343B15368C1F3130423400BB177
:103CD000012021E000201FE001F0006343B1936860
:103CE000C1F3130423400BB1012015E0002013E0C1
:103CF00001F0007343B1D368C1F3130423400BB147
:103D0000012009E0002007E01369C1F313042340F8
:103D10000BB1012000E0002010BD0022244B99428D
:103D200002D10023836111E0C1F3130201F000739B
:103D30000BB1C2600AE001F080630BB1026105E0E3
:103D400001F000630BB1826000E042607047024600
:103D5000002002EA01030BB1012000E000207047BF
:103D600070B504460D46002660692840002872D0D0
:103D7000B5F5807F69D01DDC082D42D006DC012D11
:103D80002DD0022D31D0042D7FD134E0102D3ED026
:103D9000202D42D0402D78D145E0000003000004E2
:103DA0000003000800000310000100080001FFF7F5
:103DB0007000F030B5F5004F61D009DCB5F5007F3B
:103DC0004AD0B5F5806F4DD0B5F5006F5DD150E0AC
:103DD000B5F5803F2DD0B5F5003F56D12FE0A06856
:103DE0005549FFF7B4FF064651E0E0680321FFF7AD
:103DF000AEFF06464BE0E0680821FFF7A8FF064645
:103E000045E0E0681021FFF7A2FF06463FE0206989
:103E10000321FFF79CFF064639E020690821FFF7E0
:103E200096FF064633E020691021FFF790FF064613
:103E30002DE060680821FFF78AFF064627E06068EA
:103E40001021FFF784FF064621E0A0690121FFF75A
:103E50007EFF06461BE01BE0A0690221FFF777FF0B
:103E6000064614E0A0690421FFF771FF06460EE044
:103E70000BE0A0697021FFF76AFF064607E0606863
:103E80000421FFF764FF064601E0002600BF00E0C2
:103E90000026304670BDB1F5007F3AD00FDC2029F6
:103EA00028D006DC01291CD004291DD0082940D1C6
:103EB0001DE0402921D0B1F5807F3AD126E0B1F54F
:103EC000004F31D006DCB1F5806F25D0B1F5006F21
:103ED0002FD124E0B1F5803F12D0B1F5003F28D1B9
:103EE00011E0154A826025E00822C26022E010221B
:103EF000C2601FE0082202611CE01022026119E08A
:103F00000822426016E01022426013E00422426060
:103F100010E0042242600DE0042242600AE0002228
:103F200082610422426005E0002282610422426034
:103F300000E000BF00BF704701010100016821F0EF
:103F4000010101600021016041608160C160016187
:103F500021214161DB49884204D13D21D94A103AEF
:103F600091608CE0D7491831884205D14FF47461D3
:103F7000D44A103A916082E0D2493031884205D16A
:103F80004FF47411CF4A103A916078E0CD4948312E
:103F9000884205D14FF07461CA4A103A91606EE0D0
:103FA000C8496031884204D1C749C64A103AD16035
:103FB00065E0C4497831884204D1C449C14A103A05
:103FC000D1605CE0BF499031884204D1C049BD4A0C
:103FD000103AD16053E0BB49A831884205D14FF077
:103FE0003D51B84A103AD16049E0BA49884204D1FB
:103FF0003D21B84A083A116041E0B649183188427B
:1040000005D14FF47461B34A083A116037E0B14901
:104010003031884205D14FF47411AE4A083A11602C
:104020002DE0AC494831884205D14FF07461A94A6E
:10403000083A116023E0A7496031884204D1A249BF
:10404000A44A121F11601AE0A2497831884204D1B3
:104050009E49A04A121F116011E09E49903188428A
:1040600004D19B499B4A121F116008E09949A8316D
:10407000884204D14FF03D51964A121F116070479B
:1040800010B500220268944B1A40CC680B68234399
:104090004C6923438C692343CC6923430C6A234333
:1040A0004C6A23438C6A23434C6B23438C6B23431E
:1040B0001A430260426922F00702D1E90B3423431C
:1040C0001A4342610B6943604B6883608B68C3602D
:1040D00010BD0021016041608160C16001614161EA
:1040E0008161C161016241628162C16201634163B8
:1040F0008163704721B1026842F00102026003E06F
:10410000026822F001020260704721B1026842F4A5
:104110000042026003E0026822F40042026070473D
:1041200021B1026842F02002026003E0026822F03E
:10413000200202607047416070470146486880B2C3
:10414000704722B1036843F40023036003E003686F
:1041500023F4002303600161704721B1026842F437
:104160008022026003E0026822F48022026070472D
:104170000AB1016100E0C1607047014600200A6891
:1041800002F400220AB1012000E00020704701463D
:1041900000200A6802F001020AB1012000E00020BC
:1041A0007047014600204A6902F03800704730B578
:1041B00003460A4600200024464DAB4202D2414944
:1041C000103901E04349103902F000550DB14C6837
:1041D00000E00C68414D2C4004EA02050DB10120BD
:1041E00000E0002030BD02463A4B9A4202D23548E8
:1041F000103801E03748103801F000531BB1374B3D
:104200000B40C36002E0354B0B408360704710B534
:1042100001F080034BB122B1436943F08003436155
:1042200003E0436923F08003436180290BD02AB166
:10423000036801F01E042343036004E0036801F0F7
:104240001E04A343036010BD70B502460020002485
:104250000025204EB24202D21A4B103B01E01D4B0A
:10426000103B1F4E0E4036B11E2606EAD1241668BA
:1042700006EA040502E0566906F0800501F00056E2
:104280000EB15C6800E01C68144E344004EA01067C
:1042900016B10DB1012000E0002070BD02460D4BAB
:1042A0009A4202D20748103801E00A48103801F05B
:1042B00000531BB1094B0B40C36002E0074B0B409E
:1042C00083607047106002403D000020400F0020D6
:1042D00000003D20106402403F801CF07D0F7D0FE8
:1042E0003C0F3C0FFE4A1070704730B1FC49096822
:1042F00041F48071FA4A116005E0F949096821F436
:104300008071F74A1160704730B1F549096841F48E
:104310000071F34A116005E0F149096821F4007168
:10432000EF4A1160704730B1ED49096841F480618E
:10433000EB4A116005E0EA49096821F48061E84A26
:1043400011607047E648006840F40060E449086086
:104350007047E348006840F48050E14908607047C6
:10436000DF481030006800F0004028B1DD48DC492B
:10437000091D0860DC4808607047D94810300068A3
:1043800040F00040D6491031086070470920D449F8
:104390000C31096801F48031B1F5803F01D1012071
:1043A00020E0CF490C31096801F0100109B1062065
:1043B00018E0CB490C31096801F4807109B1022081
:1043C00010E0C7490C31096801F0EF0109B107207D
:1043D00008E0C3490C31096801F0020109B1082065
:1043E00000E00920704708B509200090FFF7CEFFD4
:1043F000009002E0FFF7CAFF00909DF8000001283E
:10440000F8D09DF8000008BD70B504460A460026A5
:10441000092502B909E0012A01D1160205E0022AA4
:1044200001D1160201E04FF44076FFF7DCFF0546AC
:10443000092D2DD1AA481030006820F44070A849F9
:10444000103108600846006830430860084600687C
:1044500020F0F80008600846006844F002010843B4
:104460009F49103108600846006840F480300860B9
:10447000FFF7B9FF05469A481030006820F00200A7
:104480009749103108600846006820F0F80008607D
:10449000284670BD30B5024600250924FFF7A3FF6A
:1044A000044602B909E0012A01D1150205E0022AF9
:1044B00001D1150201E04FF44075092C20D1884844
:1044C0001030006820F440708549103108600846BB
:1044D0000068284308600846006840F0040008604F
:1044E0000846006840F480300860FFF77CFF04460F
:1044F0007B481030006820F00400794910310860D2
:10450000204630BD30B5024600250924FFF76BFF79
:10451000044602B909E0012A01D1150205E0022A88
:1045200001D1150201E04FF44075092C20D16C48EF
:104530001030006820F44070694910310860084666
:104540000068284308600846006840F004000860DE
:104550000846006840F480300860FFF744FF0446D6
:104560005F481030006820F004005D491031086099
:10457000204630BD30B5024600250924FFF733FF41
:10458000044602B909E0012A01D1150205E0022A18
:1045900001D1150201E04FF44075092C20D150489B
:1045A0001030006820F440704D4910310860084612
:1045B0000068284308600846006840F4004008602E
:1045C0000846006840F480300860FFF70CFF04469E
:1045D00043481030006820F4004041491031086021
:1045E000204630BD70B5064614461D460922FFF729
:1045F000FAFE0246092A1ED139481030006820F41C
:1046000040703749103108600846006840F4407037
:1046100008600846006840F001000860346075607A
:10462000FFF7E1FE02462E481030006820F001003E
:104630002B4910310860104670BD30B502460C465B
:104640000925FFF7D0FE0546092D1DD1244810305D
:10465000006820F440702249103108600846006864
:1046600040F4007008600846006840F001000860EF
:104670001460FFF7B8FE054619481030006820F0B6
:104680000100174910310860284630BD30B5024698
:104690000C460925FFF7A7FE0546092D1DD1104838
:1046A0001030006820F440700D4910310860084651
:1046B000006840F4807008600846006840F001001F
:1046C00008601480FFF78FFE05460548103000682B
:1046D00020F00100024910310860284630BD00007A
:1046E000003C024023016745AB89EFCD30B502465F
:1046F0000C460925FFF777FE0546092D17D19B4883
:10470000006820F440709949086008460068086015
:104710000846006840F0010008601470FFF763FE6F
:1047200005469248006820F001009049086028463C
:1047300030BD8E48001D006800F0010028B18C4893
:104740008A49083908608B48086070478748001D0F
:10475000006840F001008549091D0860704730B5C8
:1047600002460C460925FFF73EFE0546092D10D1ED
:104770003CB17E48801D008890437C49891D08809B
:1047800007E07A48801D008891B208437749891D67
:10479000088030BD30B502460C460925FFF723FEE0
:1047A0000546092D10D13CB170480A30008890436D
:1047B0006E490A31088007E06C480A30008891B2DF
:1047C00008436A490A31088030BDFF21674AD21D7B
:1047D000127802F07F0140EA0102644BDB1D1A707F
:1047E000704730B502460C460925FFF7FCFD05462B
:1047F000092D10D144B15D48801D008891B2084355
:104800005A49891D088006E05848801D0088904359
:104810005649891D088030BD30B502460C46092531
:10482000FFF7E1FD0546092D10D144B14F480A308C
:10483000008891B208434D490A31088006E04B4890
:104840000A300088904349490A31088030BD10B5CC
:1048500002460924FFF7C7FD0446092C02D143484C
:10486000401D027010BDF0B504460D46FF26092715
:10487000FFF7B9FD0746092F0BD13C48001D007812
:1048800000F00F0645EA0600104320433749091D92
:104890000870F0BD3549091D097821F01001334A2F
:1048A000121D1170114609780143117070472F498C
:1048B000091D097821F00C012C4A121D11701146B6
:1048C000097801431170704700B509222748001D7F
:1048D000007840F002002549091D0870FFF783FDAC
:1048E0000246104600BD2148001D0068C0F3471075
:1048F00070471E48801D008870471C480A30008899
:1049000070471A48801D0088704718480A30008890
:10491000704700201549491D0978AA2901D00120B6
:1049200000E0002070471148001D007800F00C00E6
:10493000704729B10D4A126802430C4B1A6004E01B
:104940000A4A12688243094B1A60704701460020E8
:10495000064A121F12680A400AB1012000E0002036
:1049600070470249091F086070470000103C024070
:104970003B2A19087F6E5D4C10B504469848844266
:1049800008D10121084601F042FE0021012001F07A
:104990003EFE76E09348844208D10121022001F0D6
:1049A00036FE0021022001F032FE6AE08E48844289
:1049B00008D10121042001F02AFE0021042001F089
:1049C00026FE5EE08948844208D10121082001F0DA
:1049D0001EFE0021082001F01AFE52E084488442A5
:1049E00008D10121102001F012FE0021102001F059
:1049F0000EFE46E07F48844208D10121202001F0CC
:104A000006FE0021202001F002FE3AE07A488442AE
:104A100008D10121402001F0FAFD0021402001F0E1
:104A2000F6FD2EE07548844208D10121802001F076
:104A3000EEFD0021802001F0EAFD22E07048844272
:104A400008D10121801501F0E2FD0021A01501F03F
:104A5000DEFD16E06B48844208D10121401501F0CB
:104A6000D6FD0021601501F0D2FD0AE066488442BF
:104A700007D10121001501F0CAFD0021201501F028
:104A8000C6FD10BDF0B50A4600210023002400BF7A
:104A90003DE0012505FA01F3156805EA03049C428F
:104AA00034D105684F000326BE40B5430560157933
:104AB0004E00B5400668354305601579012D02D0DA
:104AC0001579022D16D185684F000326BE40B543E7
:104AD000856055794E00B5408668354385604568E8
:104AE00001268E40B5434560456896798E40B6B242
:104AF00035434560C5684F000326BE40B543C560D9
:104B0000D5794E00B540C6683543C560491C1029AB
:104B1000BFD3F0BD4FF6FF710160002101714171FB
:104B20008171C171704708B54FF480320092009ACC
:104B30000A430092009AC261C161009AC261C269CF
:104B40000092C269009208BD0246002013690B4022
:104B50000BB1012000E0002070470146086980B2D7
:104B600070470246002053690B400BB1012000E062
:104B7000002070470146486980B270470183704742
:104B8000418370470AB1018300E04183704741616E
:104B9000704742694A4042617047F0B500230024E3
:104BA0004D07ED0E02FA05F3CE1000F1200555F881
:104BB00026504E07F70E0F26BE40B543CF1000F12A
:104BC000200646F82750CE1000F1200555F8265053
:104BD00045EA0304CE1000F1200545F82640F0BD5B
:104BE000000002400004024000080240000C0240A5
:104BF000001002400014024000180240001C024055
:104C000000200240002402400028024010B5044663
:104C1000FB48844208D10121801401F03CFD0021B1
:104C2000A01401F038FD3CE0F648844208D101218F
:104C3000001401F01FFD0021201401F01BFD30E0E5
:104C4000F148844208D10121C01301F013FD002175
:104C5000E01301F00FFD24E0EC48844208D101216B
:104C6000401401F018FD0021601401F014FD18E05B
:104C7000E748844209D10121080501F00CFD00211B
:104C80004FF4801001F007FD0BE0E248844208D1A8
:104C90000121480501F0FFFC00214FF4001001F054
:104CA000FAFC10BD10B50022028802F441520B88B4
:104CB0004C8823438C882343CC8823430C8923438B
:104CC0004C8923438C892343CC8923431A43028094
:104CD000838B4FF2FF74234083830B8A038210BDC2
:104CE0002DE9F04F0025022300244FF00109002296
:104CF0000026002794469046B0F81CA04FF2400BC7
:104D00000AEA0B0AA0F81CA04FF0020AA0F820A0A3
:104D1000858BD1F808A0BAF1020F01D100BF82E063
:104D2000B1F804A0BAF1000F02D14FF0010901E07F
:104D30004FF00209DFF8E0A2DAF800A00AF4000A56
:104D4000BAF1000F09D0DFF8D0A2DAF800A02AF4F7
:104D5000000ADFF8C4B2CBF800A0DFF8BCA20AF169
:104D60007C0ADAF800A0CAF3881CDFF8ACA20AF1CA
:104D70007C0ADAF800A0CAF30278DFF89CA2AAF154
:104D8000040ADAF800A00AF03F07DFF88CA2AAF1C3
:104D9000040ADAF800A00AF4800ABAF5800F08D1F4
:104DA000DFF878A2BAFBF7FA0AFB0CFABAFBF8F6BE
:104DB00007E0DFF86CA2BAFBF7FA0AFB0CFABAFBC1
:104DC000F8F6B1F806A0BAF5007F0ED14FEA162A20
:104DD0000AEB8A0A4FEA4A0AD1F808B0BAFBFBFA92
:104DE0000AF1050A1FFA8AF20FE04FEA491AB6FBE8
:104DF000FAFA0AEB8A0A4FEA4A0AD1F808B0BAFB73
:104E0000FBFA0AF1050A1FFA8AF24FF00A0AB2FB0E
:104E1000FAF202F00104A2EB040ACAF34F034FF6C0
:104E2000FF7A0AEA0424022B01DBFF2B01DD0223B7
:104E30000024B1F806A04AEA040A4AEA030AA0F8E4
:104E400020A0B1F804A0B1F80CB04AEA0B0AB1F8FE
:104E500002B04AEA0B0AB1F800B04AEA0B0A4AF477
:104E6000006A4AEA05058583BDE8F08F00210180CC
:104E700041808180C180018141818181C18107217F
:104E8000018270470021018041808180C180022120
:104E9000816000218181704721B1028842F0400287
:104EA000028004E002884FF6BF731A400280704708
:104EB00021B1828B42F48062828304E0828B4FF6C0
:104EC000FF331A408283704702884FF2FF731A4003
:104ED000028002880A4302807047B1F5804F04D1F6
:104EE000028842F48042028004E002884BF6FF739D
:104EF0001A40028070474FF6FF62914204D0028848
:104F000042F48072028004E002884FF6FF631A4088
:104F10000280704721B1828842F00402828004E05E
:104F200082884FF6FB731A408280704721B18288D5
:104F300042F01002828004E082884FF6EF731A403C
:104F40008280704730B500220023848B4FF24005E9
:104F50002C40848302240484828B0C88B4F5007F67
:104F600001D00C8814B94FF4807308E00C88B4F5B4
:104F7000407F03D00C88B4F5807F00D100238C885B
:104F80008D892C434D882C431C4344F400642243F8
:104F9000828330BD0146888970478181704721B185
:104FA000028842F40052028004E002884DF6FF734A
:104FB0001A4002807047018841F480510180704797
:104FC00002460020012901D0108B00E0908A704732
:104FD0000146088A70471AB183880B43838002E038
:104FE00083888B438380704730B5002400230C11E5
:104FF0000125A540ABB2AAB185881D43858014E088
:105000000030014000380040003C004000340140C6
:1050100000500140005401400838024000127A005C
:105020000024F40085889D43858030BD0246002021
:1050300013890B400BB1012000E000207047CA43E8
:1050400002817047F0B502460020002400230025AD
:1050500001F00F070126BE40B4B20B1101269E409D
:10506000B3B2968806EA03051689264016B10DB13B
:10507000012000E00020F0BD10B5002201F00F0477
:105080000123A3409AB2D343038110BD10B5044657
:10509000FE48844208D10121084601F0FCFA0021B3
:1050A000012001F0F8FA9DE0B4F1804F08D1012110
:1050B000084601F0DFFA0021012001F0DBFA91E05F
:1050C000F348844208D10121022001F0D3FA0021E3
:1050D000022001F0CFFA85E0EE48844208D1012198
:1050E000042001F0C7FA0021042001F0C3FA79E09E
:1050F000E948844208D10121082001F0BBFA0021CF
:10510000082001F0B7FA6DE0E448844208D101219B
:10511000102001F0AFFA0021102001F0ABFA61E09D
:10512000DF48844208D10121202001F0A3FA0021A8
:10513000202001F09FFA55E0DA48844208D101218D
:10514000022001F0A8FA0021022001F0A4FA49E0AF
:10515000D548844209D10121080401F09CFA0021BC
:105160004FF4803001F097FA3CE0D048844209D1F6
:105170000121480401F08FFA00214FF4003001F0C2
:105180008AFA2FE0CA48844209D10121880401F03B
:1051900082FA00214FF4802001F07DFA22E0C54818
:1051A000844208D10121402001F064FA002140200E
:1051B00001F060FA16E0C048844208D10121802045
:1051C00001F058FA0021802001F054FA0AE0BB48AF
:1051D000844207D10121801501F04CFA0021A0156D
:1051E00001F048FA10BD00220288A84B98420ED068
:1051F000AC4B98420BD0B0F1804F08D0A44B9842F2
:1052000005D0A44B984202D0A34B984204D14FF64C
:105210008F731A404B881A43A04B984207D0A04B7B
:10522000984204D04FF6FF431A400B891A4302807C
:105230004B68C3620B880385944B984202D0994B0C
:10524000984201D18B7A03860123838270474FF005
:10525000FF314160002101800181418081727047EE
:105260000185828270470A46002101884FF68F73BC
:10527000194011430180704741627047C162704715
:105280000146486A70470146088D704721B102887F
:1052900042F00202028004E002884FF6FD731A40D9
:1052A0000280704721B1028842F00402028004E0CB
:1052B00002884FF6FB731A400280704721B10288C2
:1052C00042F08002028004E002884FF67F731A40A9
:1052D0000280704702884FF6F7731A4002800288F6
:1052E0000A430280704702884FF6FF431A4002804B
:1052F00002880A430280704721B1028842F001020D
:10530000028004E002884FF6FE731A400280704764
:1053100070B5002400220023058C4FF6FE76354040
:105320000584028C8388048B4FF68F752C40B51E44
:105330002C400D882C43751E2A408D892A434D88A8
:105340002A43524DA84202D0564DA84213D14FF6DF
:10535000F7752A40CD892A434FF6FB752A408D8880
:105360002A434FF6FF652B404FF6FF552B400D8A21
:105370002B434D8A2B43838004838D6845630284CD
:1053800070BD70B5002400220023058C4FF6EF7627
:1053900035400584028C8388048B48F6FF752C40C9
:1053A0004FF6FF452C400D884FF6FF7606EA05259F
:1053B0002C434FF6DF752A408D8906EA05152A43EE
:1053C0004D8806EA05152A43304DA84202D0354DD6
:1053D000A8421DD14FF67F752A40CD894FF6FF7642
:1053E00006EA05152A434FF6BF752A408D8806EA5E
:1053F00005152A434FF6FF352B404FF2FF752B4022
:105400000D8A06EA85052B434D8A06EA85052B435E
:10541000838004838D688563028470BD70B5002429
:1054200000220023058C4FF6FF6635400584028C70
:105430008388848B4FF68F752C404FF6FC752C407B
:105440000D882C434FF6FF552A408D894FF6FF7685
:1054500006EA05252A434D8806EA05252A430B4D11
:10546000A84202D00F4DA84238D14FF2FF752A4012
:10547000CD894FF6FF7606EA05252A434FF6FF351C
:105480002A408D8806EA05252A4319E000000140DC
:105490000004004000080040000C004000100040E4
:1054A000001400400004014000400140004401405D
:1054B0000048014000180040001C0040002000404F
:1054C0004EF6FF752B404DF6FF752B400D8A06EA10
:1054D00005152B434D8A06EA05152B4383808483EB
:1054E0008D68C563028470BD70B50022002300245E
:1054F000058C4EF6FF7635400584038C8488828BBC
:1055000048F6FF752A404FF6FF452A400D884FF6B2
:10551000FF7606EA05252A434DF6FF752B408D8957
:1055200006EA05352B434D8806EA05352B43FE4D2B
:10553000A84202D0FD4DA84208D14BF6FF752C4081
:105540000D8A4FF6FF7606EA85152C438480828308
:105550008D680564038470BD0021018041808180D5
:1055600081608181C18101824182704770B50346AB
:10557000002000241846183001258D40ACB21D8C47
:10558000A5431D8409B108290AD100EB6100056813
:105590004FF68F76354005600568154305600FE0CE
:1055A0000D1FC5F34E052844056848F6FF763540C3
:1055B000056005684FF6FF7606EA0226354305606A
:1055C00070BD4163704781637047C1637047016478
:1055D00070470A460021018B4FF68F731940114323
:1055E000018370470A460021018B48F6FF7319407A
:1055F0004FF6FF7303EA02231943018370470A46FB
:105600000021818B4FF68F731940114381837047BE
:105610000A460021818B48F6FF7319404FF6FF734D
:1056200003EA02231943818370470A460021018B54
:105630004FF6F77319401143018370470A46002162
:10564000018B4FF2FF7319404FF6FF7303EA0223F9
:105650001943018370470A460021818B4FF6F77387
:1056600019401143818370470A460021818B4FF214
:10567000FF7319404FF6FF7303EA02231943818336
:1056800070470A460021018B4FF6FB731940114306
:10569000018370470A460021018B4FF6FF33194002
:1056A0004FF6FF7303EA02231943018370470A464A
:1056B0000021818B4FF6FB731940114381837047A2
:1056C0000A460021818B4FF6FF3319404FF6FF73D6
:1056D00003EA02231943818370470A460021018BA4
:1056E0004FF67F7319401143018370470A4600212A
:1056F000018BC1F30E014FF6FF7303EA0223194336
:10570000018370470A460021818B4FF67F73194051
:105710001143818370470A460021818BC1F30E013A
:105720004FF6FF7303EA02231943818370470A4649
:105730000021018C4FF6FD7319401143018470471D
:105740000A460021018C4FF6F7731940114301847A
:1057500070470A460021018C4FF6DF7319404FF65F
:10576000FF7303EA02131943018470470A460021BC
:10577000018C4FF67F7319404FF6FF7303EA021353
:105780001943018470470A460021018C4FF6FF53EC
:1057900019404FF6FF7303EA02231943018470474F
:1057A0000A460021018C4FF2FF7319404FF6FF7338
:1057B00003EA02231943018470470A460021018C41
:1057C0004DF6FF7319404FF6FF7303EA0233194396
:1057D0000184704730B5002301248C40A3B2048CAF
:1057E0009C430484048C02FA01F5ADB22C4304847A
:1057F00030BD30B5002304248C40A3B2048C9C43FC
:105800000484048C02FA01F5ADB22C43048430BD4B
:10581000828B4FF2FF331A408283828B4FF6FF73E5
:1058200003EA01231A4382837047F0B50C461546FC
:10583000002100220026078C4EF6FF7C07EA0C07A9
:105840000784818B028C4FF6FF7707EA043640F617
:10585000FF4739404FF6FF7707EA052739434FF6F0
:10586000FF7707EA0337394345F6FF773A4046F4B6
:1058700080573A4381830284F0BD828B4FF6F373E5
:105880001A408283828B0A4382837047F0B50C46AC
:105890001546002100220026078C4FF6FF6C07EA10
:1058A0000C070784818B028C4FF6FF7707EA0426EA
:1058B0004FF60C7739404FF6FF7707EA03172F436F
:1058C00039434FF2FF573A4046F480773A43818399
:1058D0000284F0BD028B4FF2FF331A400283028B29
:1058E0004FF6FF7303EA01231A4302837047F0B5B2
:1058F0000C461546002100220026078C4FF6EF7C4F
:1059000007EA0C070784018B028C4FF6FF7707EA42
:10591000041640F6FF4739404FF6FF7707EA033792
:1059200039434FF6FF7703E00000014000040140D7
:1059300007EA052739434FF65F773A4046F01007EC
:105940003A4301830284F0BD028B4FF6F3731A4091
:105950000283028B0A4302837047F0B50C4615465A
:1059600000210022068C4FF6FE773E400684018B14
:10597000028C4FF60C7631407E1C06EA03162E434D
:1059800031434FF6F576324044F00106324301834D
:105990000284F0BD70B505460C46208850B92389B5
:1059A000A28861882846FFF7D8FFE1882846FFF7DC
:1059B000CBFF25E0208804280AD12389A2886188AA
:1059C0002846FFF794FFE1882846FFF783FF17E09A
:1059D000208808280AD12389A28861882846FFF7F1
:1059E00055FFE1882846FFF748FF09E02389A28890
:1059F00061882846FFF719FFE1882846FFF708FF6E
:105A000070BD002101804180012181800021C18081
:105A1000018170472DE9F04105460C46002601271B
:105A2000608808B9022600E00026A088012801D17C
:105A3000022700E001272088A0B92389A288618875
:105A40002846FFF78AFFE1882846FFF77DFF238974
:105A50003A4631462846FFF74AFFE1882846FFF7D5
:105A600039FF13E02389A28861882846FFF73FFFAA
:105A7000E1882846FFF72EFF23893A46314628461B
:105A8000FFF76BFFE1882846FFF75EFFBDE8F08176
:105A90000146486B70470146886B70470146C86BEA
:105AA00070470146086C70470A884B881A438B88F8
:105AB0001A43CB881A430B891A434B891A438B89A3
:105AC0001A43A0F844207047002101804180818062
:105AD000C180018141818181704731B1B0F844209A
