:020000040800F2
:10000000586800206D1A00081B0300081D03000833
:100010002103000825030008290300080000000050
:100020000000000000000000000000002D03000898
:100030002F0300080000000031030008330300080C
:10004000871A0008871A0008871A0008871A00080C
:10005000871A0008871A0008871A0008871A0008FC
:10006000871A0008871A0008871A0008871A0008EC
:10007000871A0008871A0008871A0008871A0008DC
:10008000871A0008871A0008871A00086F6D000891
:10009000856D0008871A0008871A0008871A00086B
:1000A000871A0008871A0008871A0008871A0008AC
:1000B000871A0008871A0008871A0008871A00089C
:1000C000871A0008871A0008871A0008871A00088C
:1000D000871A000813740008871A0008BF76000802
:1000E000871A0008871A0008871A0008871A00086C
:1000F000871A0008871A0008871A0008871A00085C
:10010000871A0008871A000877680008871A00080D
:10011000871A0008871A0008871A0008871A00083B
:10012000871A0008871A0008871A0008871A00082B
:10013000871A0008871A0008871A0008C16E00088D
:10014000D76E0008871A0008871A0008871A000867
:10015000871A0008871A0008871A0008871A0008FB
:10016000871A0008871A0008871A0008871A0008EB
:10017000871A0008871A0008871A0008871A0008DB
:10018000871A0008871A000800F002F800F0B6F895
:100190000AA090E8000C82448344AAF10107DA45E2
:1001A00001D100F0ABF8AFF2090EBAE80F0013F07E
:1001B000010F18BFFB1A43F00103184718AD0000E8
:1001C00038AD000010F8013B0A4413F0030408BFE7
:1001D00010F8014B1D1108BF10F8015B641E05D01B
:1001E00010F8016B641E01F8016BF9D1002D15D0D8
:1001F00010F8014B03F00C030C2BA1EB04040ABF15
:1002000010F8013BA4EB8314A4EB032405F10103D4
:1002100014F8016B5B1E01F8016BF9D5914238BFF0
:1002200010F8013BD1D3704700230024002500269D
:10023000103A28BF78C1FBD8520728BF30C148BF49
:100240000B6070476E2907F0FF83702907F0418526
:1002500066290AF0E88165290AF0E58167290AF034
:10026000E28161290AF0E18103681B0A28BF41F09D
:100270008001692907F0AC83642907F0A9837529F7
:1002800007F0A6836F2907F0CE84782907F00D8543
:10029000E92907F06984E42907F06684F52907F065
:1002A0006384EF2907F0CB84F82907F00C850368F5
:1002B000DB0928BF41F08001632908F043827329DC
:1002C00008F04882E32908F05382F32908F05882A5
:1002D000002070471FB50AF09CF908F0A7FA040047
:1002E0000020002109F082FC401C606000200021F9
:1002F00009F066FCE0601FBD10B510BD08F068FA9B
:100300001146FFF7E7FF00F04BF808F041FB03B49C
:10031000FFF7F2FF03BC08F085FB704700BFFEE764
:1003200000BFFEE700BFFEE700BFFEE77047704773
:10033000704710B504F0E7FD04F0EEFD10BD0000BD
:1003400010B504F0B3FD06F03FFF4FF4FC631A460E
:100350000021022005F0EAF904F0CAFF06F02BF8AC
:1003600006F006FB07F08EF806F025F806F03CFCD8
:1003700006F07AFC06F020FD06F01DF806F051F8B4
:1003800006F09AFB06F0F1FB06F0F5FB04F04FFED9
:1003900043F24431182006F003FA07F0FFF910BDCC
:1003A0002DED028B82B0FFF7CBFF002422E004EB9F
:1003B000440101EBC401944A02EB8100DFED931A82
:1003C0009FED931ADFED920A9FED920A00F033FF42
:1003D00004EB440101EBC4018F4A02EB8100DFED25
:1003E0008B1A9FED8E1AF1EE040A9FED8D0A00F034
:1003F00022FF641C042CDADBDFED841A9FED871AE0
:10040000F1EE040A9FED860A864800F014FFDFED46
:100410007F1A9FED821AF1EE040A9FED810A81484E
:100420002C3000F008FFDFED791A9FED791ADFED2F
:10043000780A9FED780A7C4800F0FDFEDFED731A24
:100440009FED731ADFED720A9FED720A76482C3029
:1004500000F0F1FEDFED751A9FED6D1ADFED6C0A0D
:10046000B1EE000A724800F0E6FEDFED721A9FED71
:10047000681ADFED670A9FED700A704800F0DBFE36
:10048000DFED6F1A9FED621ADFED610A9FED6A0AD8
:100490006C4800F0D0FE9FED670A6B4880ED000AC3
:1004A0006A4890ED0F0A6A4880ED000A694890EDAD
:1004B0000F0ADFED690A30EE200A684880ED000A75
:1004C000A0E004F038FD664909688842F8D004F0DD
:1004D00032FD63490860084600681421B0FBF1F260
:1004E00001FB120008B900F0F5FB5D4800683221FD
:1004F000B0FBF1F201FB120000287DD105F058FAA3
:1005000058A20221002005F0FEFA05F051FA5948E0
:10051000B0F9040000905748B0F9023056A2022109
:10052000012005F0F0FA5348B0F908000090514856
:10053000B0F9063054A20321012005F0E4FA564830
:1005400090ED010AD0ED000A20EE200A10EE101AFC
:10055000084609F0EDFF41EC180B8DED008B4FA222
:100560000421012005F0CFFA3948006809F0E0FFC6
:1005700041EC180B8DED008B4AA20521012005F0FE
:10058000C2FA324890ED0F0A10EE101A084609F030
:10059000CFFF41EC180B8DED008B44A2062101200A
:1005A00005F0B1FA2B48406B00902848436B41A2FC
:1005B0000721012005F0A7FA414842A2082103685B
:1005C000012005F0A0FA424842A209210368012057
:1005D00005F099FA414842A20A210368012005F07A
:1005E00092FA2448B0F916303FA20B21012005F001
:1005F0008AFA05F00EFB00E002E03E4804F08CFEB3
:1006000001F002FA5DE700000451002000409C4622
:10061000000000009A99193EB45100200000C84221
:100620000000A042BC5200201453002000002544CA
:1006300064520020000070420AD7A33C9052002070
:10064000000048426C5300201C1000200C60002069
:10065000201000204C600020000085432410002062
:1006600000100020496E66616E7472792056312E3A
:1006700031000000CC6000207263303A25642072A3
:1006800063313A25640000007263323A25642072B7
:1006900063333A25640000001461002050723A254B
:1006A00066000000696E69743A25660063757272AF
:1006B0003A256600353A256420363A256400000064
:1006C0000410002064656275673A2564000000002C
:1006D0000C1000206375723A256400000810002099
:1006E0007461723A256400004D6F7573653A256434
:1006F00000000000C8A600080CB500200190009082
:100700007648006840F480307449086000BF734840
:10071000006800F4003000900198401C019000989F
:1007200018B90198B0F5A04FF1D16C48006800F4F9
:10073000003010B10120009001E0002000900098EE
:10074000012846D165484030006840F08050634938
:10075000403108606248006840F4404060490860E9
:100760005E48083000685D49083108600846006846
:1007700040F4004008600846006840F4A05008605B
:100780005848091F0860081F006840F08070091F62
:10079000086000BF5148006800F000700028F9D0E0
:1007A00040F20570504908604C480830006820F05D
:1007B00003004A49083108600846006840F002001A
:1007C000086000BF45480830006800F00C000828A9
:1007D000F8D10CBD10B54548006840F4700043499D
:1007E00008603E48006840F001003C490860002075
:1007F0003A4908310860394800683D49084037499E
:1008000008603C48091D0860081F006820F480202B
:10081000091F0860002031490C310860FFF76CFFA8
:100820004FF0006031498039086010BD70B500207C
:100830000022022300240221284D08352D6805F0EE
:100840000C0020B1042806D0082834D107E02A4D36
:100850002A4E356033E02A4D284E35602FE01F4D7B
:100860002D1D2D68C5F380541C4D2D1D2D6805F0E0
:100870003F0154B1224DB5FBF1F5184E361D3668D7
:10088000C6F3881605FB06F209E01B4DB5FBF1F532
:10089000124E361D3668C6F3881605FB06F20F4D5C
:1008A0002D1D2D68C5F301456D1C6B00B2FBF3F5E2
:1008B000124E356003E0104D104E356000BF00BF92
:1008C000064D08352D68C5F303150E4E705D0B4DB2
:1008D0002D68C540094E356070BD000000380240EB
:1008E0000070004008544007003C024088ED00E0E2
:1008F000FFFFF6FE103000240024F4003410002026
:1009000000127A00381000202DE9F05F2DED068BE3
:1009100005460C461646B0EE408AF0EE608AB0EE10
:10092000419A9B469FEDD50A10EE107AD448006894
:10093000D4490968401A4FF4616190FBF1F201FB60
:1009400012000A2190FBF1F000EE100AB8EEC00A86
:1009500010EE107AA846A246384609F0E9FD41ECAF
:100960001A0BB0EE4A0AF0EE6A0A09F020F900FB11
:100970000AF9384609F0DCFD41EC1A0BB0EE4A0AE0
:10098000F0EE6A0A09F00BF908FB009005B2384650
:1009900009F0CEFD41EC1A0BB0EE4A0AF0EE6A0AFD
:1009A00009F0FDF800FB0AF9384609F0C1FD41ECF9
:1009B0001A0BB0EE4A0AF0EE6A0A09F0F8F808FBE2
:1009C000009004B200EE105AB8EEC00A20EE080AF9
:1009D000BDEEC00A10EE100A05B200EE104AB8EEE5
:1009E000C00A20EE280ABDEEC00A10EE100A04B2BA
:1009F00000EE106AB8EEC00A20EE090ABDEEC00A89
:100A000010EE100A06B26019304400B29E49088008
:100A1000601B301A00B248806019301A00B288801A
:100A2000601B304400B2C8800846BDEC068BBDE8B0
:100A3000F09F30B50446012A03DA002A01DB1A468A
:100A400003E0924800688E4D286001EE904AF8EE6F
:100A5000E11A61EE801AFDEEE11A11EE900A04B27D
:100A600001EE901AF8EEE11A61EEA01AFDEEE11A1D
:100A700011EE900A01B201EE902AF8EEE11A61EE51
:100A8000811AFDEEE11A11EE900A02B20819104423
:100A900000B27D4D2880081B101A00B2688008192A
:100AA000101A00B2A880081B104400B2E880284643
:100AB00030BD2DE9F0412DED028B84B006460F4686
:100AC00090467048006872490860704800686D4937
:100AD0000860084690ED000AB8EEC00A6D4880ED47
:100AE000040A6D4890ED000A6C4880ED040A6C48D9
:100AF000C07A012811D108460068614908600023C6
:100B0000B7EE001AF7EE000AB7EE000A4246394681
:100B10003046FFF78EFF054621E0BBEE0E2AF3EECE
:100B20000E1A9FED601ADFED600A554890ED000A3D
:100B3000B8EEC00A574800F0FAFBBDEEC00A10EE4E
:100B4000100A04B22346B6EE001AF7EE000AB7EE1A
:100B5000000A424639463046FFF76BFF05465348C8
:100B6000406B00EE100AB8EEC00A514880ED040A4E
:100B70005048406B00EE100AB8EEC00A4C4880EDB9
:100B80000F0A4D48406B00EE100AB8EEC00A484804
:100B900080ED1A0A4948406B00EE100AB8EEC00A10
:100BA000434880ED250A002455E0B7EE000AB0EE78
:100BB000408A394890ED000ADFED410AB4EEE00AC0
:100BC000F1EE10FA16D29FED3E0A344800F054FBC5
:100BD000F7EE000A30EEC00AB0EE408AB5EEC08AE9
:100BE000F1EE10FA02DDB0EE480A01E0B1EE480A7B
:100BF000B0EE408A35F9140000EE100AB8EEC00AD3
:100C000020EE080ABDEEC00A10EE100A00B225F868
:100C1000140035F9141000EE901AF8EEE00AB0EE68
:100C2000600A04EB440101EBC401214A02EB81009C
:100C3000B2EE0E2ADFED231A9FED231ADFED230A11
:100C400000F075FBBDEEC00A10EE100A00B202A95A
:100C500021F81400641C042CA7DBBDF90E000090E1
:100C6000BDF90C30BDF90A20BDF90810184806F08E
:100C70003AFA04B0BDEC028BBDE8F0810000000040
:100C8000081000200C10002014100020EC40002060
:100C900010100020645200201C10002090520020F0
:100CA000CC600020000048C4000048440C5F0020D5
:100CB000B45100204C5F00208C5F0020CC5F0020EE
:100CC000000070420000C842000025C40000254416
:100CD000006800401648D0ED000A90ED011A9FED23
:100CE000150A10EE810A1448D0ED000A9FED131A80
:100CF00040EE410AC0ED000A90ED000AB5EEC00AD0
:100D0000F1EE10FA04D29FED0E0A80ED000A0DE01C
:100D1000094890ED000ADFED0B0AB4EEE00AF1EEAF
:100D200010FA03DD9FED070A80ED000A704700000E
:100D3000146100200000A0421C1000200AD7A33C30
:100D4000000000000000704210B50446F848406BF7
:100D500000EE100AB8EEC00AF64880ED0F0AB2EEB7
:100D60000E2ADFEDF51A9FEDF51ADFEDF50A00EE1C
:100D7000104AB8EEC00A2C3000F0D9FABDEEC00A15
:100D800010EE100A00B210BD70B5044600EE104A15
:100D9000B8EEC00AEB48D0ED000A30EE200ABDEEF6
:100DA000C00A10EE100A04B2E14890ED0F0AE648BE
:100DB00080ED0F0AE34890ED000ADFEDE11A30EE16
:100DC000610AB0EE401A90ED000ADFEDDD1A30EE58
:100DD000210AF0EE400AB3EE0E2ADFEDD71A00EE3C
:100DE000104AB8EEC00AD8482C3000F0A0FABDEE88
:100DF000C00A10EE100A05B22846FFF7A5FF70BD25
:100E000010B50446D148406B00EE100AB8EEC00A97
:100E1000C84880ED040AB2EE0E2ADFEDC71A9FED36
:100E2000C71ADFEDC70A00EE104AB8EEC00A00F09C
:100E30007EFABDEEC00A10EE100A00B210BD38B541
:100E400004460D46002003462A4621460090C0482D
:100E500006F049F938BD2DE9F04105460C4620461B
:100E6000FFF792FF06462846FFF7CAFF07463146BE
:100E7000FFF7E5FFBDE8F08170B504462046FFF7B7
:100E8000BFFF05460021FFF7DAFF70BD2DE9F041F5
:100E900005460C462046FFF757FF06462846FFF753
:100EA000AFFF07463146FFF7CAFFBDE8F08170B5D6
:100EB00004460D4600EE104AB8EEC00AA548D0ED33
:100EC000000A30EE200ABDEEC00A10EE100A04B28D
:100ED0009E4890ED0F0A9C4880ED040A9D4890EDD5
:100EE000000ADFED971A30EE610AB0EE401A90ED7D
:100EF000000ADFED931A30EE210AF0EE400AB3EE5D
:100F00000E2ADFED8D1A00EE104AB8EEC00A8E48A8
:100F100000F00DFAF0EE400A00EE105AB8EEC00AEA
:100F200030EE800ABDEEC00A10EE100A06B230465E
:100F3000FFF766FF70BD10B5044600212046FFF79D
:100F4000B6FF10BD70B504462046FFF7F4FF054616
:100F50000021FFF774FF70BD2DE9F04105460C46F6
:100F60002046FFF711FF06462846FFF7E4FF074635
:100F70003146FFF764FFBDE8F0812DE9F0410646F8
:100F80000C46154629463046FFF791FF0746204696
:100F9000FFF7FAFE804641463846FFF750FFBDE8AE
:100FA000F08170B52DED028B04460D46674890ED3B
:100FB0000F0A6848D0ED000A30EE600A664880EDFE
:100FC000040A9FED660A00F057F9B0EE408A6448C3
:100FD00090ED000AB8EEC00AF2EE040A00EE880AAC
:100FE000BDEEC00A5F4880ED000A584991ED0F0A36
:100FF0005849D1ED000A30EE600AF3EE0B0A08EE14
:10100000200ABDEEC00A10EE101A08B22246294688
:10101000FFF7B3FFBDEC028B70BD4C4890ED0F0A9B
:101020004C48D0ED000A9FED501A70EE810AB4EEE4
:10103000E00AF1EE10FA01DD012070470020FCE724
:10104000424890ED0F0A4348D0ED000A9FED461A42
:1010500070EEC10AB4EEE00AF1EE10FA01D20120FE
:1010600070470020FCE7324890ED0F0A3548D0ED7C
:10107000000A9FED3E1A70EE810AB4EEE00AF1EE2E
:1010800010FA01DD012070470020FCE7284890EDB0
:101090000F0A2C48D0ED000AB4EEE00AF1EE10FA87
:1010A00001D2012070470020FCE770B504462C48AF
:1010B00000682C490860601CE0B1032094FBF0F04C
:1010C0002B4931F8100000EB400101EB001005B294
:1010D000032094FBF0F100FB1140264931F8100089
:1010E0006FF01A0110FB01F006B229463046FFF7F7
:1010F00033FF1BE00E4A92ED0F0A124AD2ED000AAE
:1011000030EE600ABDEEC00A10EE102A11B20F4A8E
:1011100092ED0F0A0F4AD2ED000A30EE600ABDEEE2
:10112000C00A10EE102A10B2FFF716FF70BD0000C3
:101130004C600020BC5200200000C842000025C4C2
:101140000000254424100020145300200C600020CF
:1011500000640040201000206C53002000000000BC
:101160000C100020081000200080CA4400C0554424
:101170002E1000202810002010B5402006F03CF969
:1011800018B10020FFF791FF46E0012006F034F986
:1011900018B10120FFF789FF3EE0802006F02CF90E
:1011A00018B10220FFF781FF36E0042006F024F991
:1011B00018B10320FFF779FF2EE0022006F01CF99A
:1011C00018B10420FFF771FF26E0082006F014F99B
:1011D00018B10520FFF769FF1EE04FF4006006F02C
:1011E0000BF918B10620FFF760FF15E04FF48050AF
:1011F00006F002F918B10720FFF757FF0CE04FF493
:10120000005006F0F9F818B10820FFF74EFF03E090
:101210004FF0FF30FFF749FF10BD0000F0EE400A2D
:10122000F5EEC00AF1EE10FA02DDB0EE600A70478A
:10123000B1EE600AFBE780ED000AC0ED010A80ED27
:10124000021AC0ED0A1A9FEDE12A80ED032A9FEDF4
:10125000DF2A80ED042A9FEDDD2A80ED052A9FED2F
:10126000DB2A80ED072A9FEDD92A80ED082A9FED21
:10127000D72A80ED092A7047F0EE400AC0ED030A34
:1012800090ED030A90ED041A30EE410A80ED070A52
:1012900090ED080A90ED071A30EE010A80ED080A79
:1012A00090ED070A90ED051A30EE410A80ED090A2B
:1012B00090ED070A80ED050A90ED000A90ED071AFF
:1012C00020EE010A90ED011AD0ED081A01EE210A74
:1012D00090ED021AD0ED091A01EE210A80ED060AFE
:1012E00090ED060A90ED0A1AB4EEC10AF1EE10FA7A
:1012F00002DD90ED0A0A01E090ED060A80ED060A93
:1013000090ED060A90ED0A1AB1EE411AB4EEC10A48
:10131000F1EE10FA04D290ED0A0AB1EE400A01E0B3
:1013200090ED060A80ED060A90ED060A704700B5BA
:10133000F0EE402AB0EE603AB7EE000AF0EE403A26
:10134000C0ED032A90ED030AD0ED040A30EE600AE6
:1013500080ED070A90ED040AB4EEC30AF1EE10FA2C
:1013600052DDD0ED070AB0EE600AFFF757FFB4EE8A
:10137000E10AF1EE10FA04DD9FED940AF0EE403A36
:10138000DAE0D0ED070AB0EE600AFFF747FFB4EEEF
:10139000C20AF1EE10FA16D2B7EE000AF0EE403AA9
:1013A000D0ED080A90ED070AB5EEC00AF1EE10FA8A
:1013B00002D290ED070A01E09FED840A30EE800A28
:1013C00080ED080AB8E0D0ED070AB0EE600AFFF73A
:1013D00025FF31EEC00A71EEC20A80EE204AF0EE1F
:1013E000443AD0ED080A90ED070AB5EEC00AF1EED6
:1013F00010FA02D290ED070A01E09FED740A30EE78
:10140000800A80ED080A97E090ED040AB4EEC10A64
:10141000F1EE10FA52D2D0ED070AB0EE600AFFF7F3
:10142000FDFEB4EEE10AF1EE10FA04DD9FED670A6D
:10143000F0EE403A80E0D0ED070AB0EE600AFFF728
:10144000EDFEB4EEC20AF1EE10FA16D2B7EE000AC3
:10145000F0EE403AD0ED080A90ED070AB5EEC00A6A
:10146000F1EE10FA02DD90ED070A01E09FED570A58
:1014700030EE800A80ED080A5EE0D0ED070AB0EE9B
:10148000600AFFF7CBFE31EEC00A71EEC20A80EEB1
:10149000204AF0EE443AD0ED080A90ED070AB5EE86
:1014A000C00AF1EE10FA02DD90ED070A01E09FEDAF
:1014B000470A30EE800A80ED080A3DE0D0ED070AC9
:1014C000B0EE600AFFF7AAFEB4EEE10AF1EE10FA00
:1014D00004DD9FED3E0AF0EE403A2DE0D0ED070A24
:1014E000B0EE600AFFF79AFEB4EEC20AF1EE10FA0F
:1014F0000CD2B7EE000AF0EE403A90ED080AD0EDBB
:10150000070A30EE200A80ED080A15E0D0ED070A40
:10151000B0EE600AFFF782FE31EEC00A71EEC20A39
:1015200080EE204AF0EE443A90ED080AD0ED070A2A
:1015300030EE200A80ED080A90ED070AD0ED050A8A
:1015400030EE600A80ED090A90ED070A80ED050A89
:1015500090ED000AD0ED070A20EE200AD0ED010A36
:1015600060EEA30A90ED084A00EE840AD0ED020A6C
:1015700090ED094A00EE840A80ED060A90ED060A15
:10158000D0ED0A0AB4EEE00AF1EE10FA02DD90EDB9
:101590000A0A01E090ED060A80ED060A90ED060ABF
:1015A000D0ED0A0AF1EE600AB4EEE00AF1EE10FAAC
:1015B00004D290ED0A0AB1EE400A01E090ED060A6D
:1015C00080ED060A90ED060A00BD00000000000054
:1015D00070B5044603F0AFFC054600BF03F0ABFC5A
:1015E000A842FBD000BF03F0A6FC401BB0FBF4F107
:1015F00004FB11000028F6D170BDB0F900308B4219
:1016000001DD018004E0B0F90030934200DA02808D
:10161000704770EE601AF4EEC11AF1EE10FA08D2BB
:1016200070EEC01AF4EEC11AF1EE10FA01D20120E8
:1016300070470020FCE700002DE9F0472DED0A8BF4
:1016400084B000200290039001900027B6EE080AB3
:10165000B0EE408A102005F0CFFE8246202005F033
:10166000CBFEAAEB0004204608F043FD9FEDF20BF1
:1016700053EC102B08F068FD41EC1A0B18EE100A21
:1016800008F056FF53EC1A2B08F004FB08F0D0FAD0
:1016900008EE100A082005F0AFFE0446042005F00D
:1016A000ABFE201A4FF4257110FB01F000EE100A7A
:1016B000F8EEC00AE248B0F9000000EE100AB8EEF9
:1016C000C00A10EE880ABDEEC00A10EE100A00B281
:1016D000ADF80800012005F08FFE0446022005F059
:1016E0008BFE201A4FF4257110FB01F000EE100A5A
:1016F000F8EEC00AD248B0F9020000EE100AB8EEC7
:10170000C00A10EE880ABDEEC00A10EE100A00B240
:10171000ADF80A00802005F06FFE0446402005F079
:101720006BFE201A4FF4257110FB01F000EE100A39
:10173000F8EEC00AC248B0F9040000EE100AB8EE94
:10174000C00A10EE880ABDEEC00A10EE100A00B200
:10175000ADF80C004FF002086FF00109002418E00A
:1017600002A901EB44004A464146FFF746FFB5484F
:1017700030F8140002A931F81410084400B2B1493D
:1017800021F81400084630F81400AD4921F814007F
:10179000641C032CE4DBAC48808940004042AB4928
:1017A0000988401A00B2ADF80400A748C08A40007A
:1017B0004042A6494988401A00B2ADF80600022509
:1017C0002E1F002418E001A901EB440032462946EF
:1017D000FFF713FF9E4830F8140001A931F81410E8
:1017E000084400B29A4921F81400084630F8140061
:1017F000964921F81400641C022CE4DB9448B0F9EB
:101800000000002802DDFFF708FC38B99048B0F965
:101810000000002807DAFFF713FC20B100208C49F4
:1018200008808A4908808A48B0F90200B0F5567FDE
:1018300012DBFFF718FC78B140F25730844948803A
:10184000824948808249B1F90210484200EBD071C8
:1018500049100AB27C49CA827D48B0F902000028CA
:1018600011DAFFF713FC70B10020794948807749FD
:1018700048807749B1F90210484200EBD071491015
:101880000AB27149CA827048807C00B900BF4FF427
:10189000804005F0B1FD07463FB1002211461046D9
:1018A000FFF707F9FFF768FC69E06748807A0128CD
:1018B00021D16848D0ED0F0A674890ED001A70EE0C
:1018C000C10AB0EE600AB2EE041ADFED640AFFF757
:1018D000A0FE012807D05E4AB2F90210B2F900005A
:1018E000FFF75FFB42E05A4AB2F90210B2F900007A
:1018F000FFF7B1FA3AE05A48008840B9FFF78DFB8C
:1019000010B9FFF79DFB10B10120554908805448DC
:10191000008820B34F48D0ED0F0A4F4890ED001AD1
:1019200070EEC10AB0EE600AB2EE041ADFED4B0AA7
:10193000FFF76FFE012807D0454AB2F90210B2F94D
:101940000000FFF72EFB11E0002045490880404AC7
:10195000B2F90210B2F90000FFF77DFA06E03C4A46
:10196000B2F90210B2F90000FFF775FA354BB3F97E
:101970000420B3F90210B3F90000FFF79AF804B09D
:10198000BDEC0A8BBDE8F0877CB50020009001908B
:101990002D48408833490988401A00B2ADF800004C
:1019A000294880882F494988401A00B2ADF80200C2
:1019B00002252E1F002417E0694601EB4400324641
:1019C0002946FFF71AFE284830F814003DF8141095
:1019D000084400B2244921F81400084630F81400E5
:1019E000204921F81400641C022CE5DB1648C0884D
:1019F0001D4988800B46B3F90420B3F90210B3F9EE
:101A00000000FFF756F87CBD10B50F48C07A0128DA
:101A100008D1002211461046FFF74BF80020FFF7CF
:101A200091FA08E00848C07A032802D1FFF7ACFF1A
:101A300001E0FFF701FE10BD000000000000D03FF4
:101A40005820002060200020CC6000206C20002066
:101A5000682000200C600020201000200000000002
:101A60007020002048200020502000200948804796
:101A700009480047FEE7FEE7FEE7FEE7FEE7FEE770
:101A8000FEE7FEE7FEE7FEE704480549054A064B88
:101A900070470000D507000889010008586200203F
:101AA00058680020586400205864002032490143DF
:101AB000324A1160704770B5002100230F22C478AC
:101AC0001CB32E4C246804F4E064C4F5E064C4F351
:101AD0000721C1F10404E3B20A4144789C40E1B219
:101AE0008478144021430C07210E254C057861555C
:101AF000047804F01F050124AC4005786D11AD0099
:101B000005F1E025C5F8004109E0047804F01F055F
:101B10000124AC401B4D0678761145F8264070BD77
:101B2000194A0A400243154B1B1F1A60704739B10E
:101B3000124A121D12680243104B1B1D1A6006E068
:101B40000E4A121D126882430C4B1B1D1A6070470F
:101B5000042808D14FF0E021096941F004014FF059
:101B6000E022116107E04FF0E021096921F0040152
:101B70004FF0E022116170470000FA050CED00E023
:101B800000E400E080E100E080FFFF1F10B50121CC
:101B9000080202F088FF00214FF4807002F083FFFA
:101BA00010BD30B50246002000235068F84C20409C
:101BB0000D790C6844EA0524204350609068F54C88
:101BC0002040D1E903542C438D682C434D7944EADD
:101BD000450420439060D06A20F470000C7D641EA0
:101BE000E4B2234340EA0350D06230BD00210160DB
:101BF000017141718160C16001610121017570470E
:101C00000021E54A1168E54A1140D0E900231A4352
:101C100083681A43C3681A431143E14AC2F80413A4
:101C200070470021016041608160C160704721B14F
:101C3000826842F00102826003E0826822F00102C1
:101C4000826070470A4600214168D64B1940114313
:101C5000416070474162826270470A4600214168D4
:101C600021F01F0111434160704738B1CA4909682A
:101C700041F40001CA4AC2F8041306E0C6490968E3
:101C800021F40001C64AC2F80413704738B1C249B2
:101C9000096841F48001C24AC2F8041306E0BE4953
:101CA000096821F48001BE4AC2F804137047F0B5F8
:101CB00004460D4600200021092D11DDE068A5F144
:101CC0000A0606EB4607072606FA07F18843A5F140
:101CD0000A0606EB460603FA06F10843E0600CE04C
:101CE000206905EB4507072606FA07F1884305EB4F
:101CF000450603FA06F108432061072A0FDA606BF4
:101D0000561E06EB86071F2606FA07F18843561E65
:101D100006EB860605FA06F10843606322E00D2A09
:101D20000FDA206BD61F06EB86071F2606FA07F18F
:101D30008843D61F06EB860605FA06F108432063A2
:101D400010E0E06AA2F10D0606EB86071F2606FAF0
:101D500007F18843A2F10D0606EB860605FA06F1A7
:101D60000843E062F0BD816841F0804181607047C6
:101D7000014600208A6802F080420AB1012000E09A
:101D80000020704721B1826842F48062826003E0E3
:101D9000826822F480628260704721B1826842F0DA
:101DA0000202826003E0826822F0020282607047D1
:101DB00010B50A4600210023416821F46041531EFA
:101DC00041EA4331416010BD21B1426842F40062F2
:101DD000426003E0426822F40062426070470146BC
:101DE000C86C80B270476C48001D0068704721B114
:101DF000826842F48072826003E0826822F480721A
:101E00008260704721B1826842F40072826003E010
:101E1000826822F400728260704738B15E490968B6
:101E200041F400515E4AC2F8041306E05A490968B9
:101E300021F400515A4AC2F804137047F0B5044621
:101E40001546002000220026092911DDE068A1F1D5
:101E50000A0707EB470C072707FA0CF29043A1F19A
:101E60000A0707EB470703FA07F21043E0600CE0AC
:101E7000206901EB410C072707FA0CF2904301EBB4
:101E8000410703FA07F210432061A06BC0F301562B
:101E9000EF1C06F1010CA7EB0C0707EB870C1F27C3
:101EA00007FA0CF29043EF1C06F1010CA7EB0C07AC
:101EB00007EB870701FA07F21043A063F0BD10B5E6
:101EC0000A4600210023816B21F44011531E41EA90
:101ED0000351816310BD08B5002300930090009B5F
:101EE0000B440093009B1A6008BD0A4600218168DC
:101EF00021F470211143816070470A4600218168F6
:101F000021F44011114381607047816841F48001E0
:101F100081607047014600208A6802F480020AB19D
:101F2000012000E00020704721B1426842F4806245
:101F3000426003E0426822F480624260704721B14F
:101F4000426842F48052426003E0426822F48052C8
:101F50004260704708B5024600200090009201F1EF
:101F60002800009B184400900098006880B208BDCB
:101F700010B50B460021D9B2012404FA01F11AB1BF
:101F800044680C43446002E044688C43446010BDE4
:101F9000FFFEFFFCFDF7FFC004230140E030FCFF23
:101FA00000200140FFFD3FFF0246002013680B4068
:101FB0000BB1012000E000207047CA430260704767
:101FC00070B502460020002300240B12556801263C
:101FD0008E4005EA060415681D4015B10CB10120BC
:101FE00000E0002070BD00220A12D3430360704756
:101FF00010B50446FE48844209D10121480602F08A
:1020000041FD00214FF0007002F03CFD08E001218D
:10201000880602F037FD00214FF0806002F032FDAB
:1020200010BD30B5024600200023146824F00204DD
:102030001460146844F00104146000E05B1C5468F0
:1020400004F001041CB94FF6FF74A342F6D15468A2
:1020500004F001040CB900206CE08C79012C04D14F
:10206000146844F08004146003E0146824F08004D1
:102070001460CC79012C04D1146844F0400414603D
:1020800003E0146824F0400414600C7A012C04D19D
:10209000146844F02004146003E0146824F0200461
:1020A00014604C7A012C04D1146844F010041460BC
:1020B00003E0146824F0100414608C7A012C04D11D
:1020C000146844F00804146003E0146824F0080461
:1020D0001460CC7A012C04D1146844F00404146018
:1020E00003E0146824F0040414608C78A407CD780D
:1020F00044EA05640D7944EA05444D7944EA0554FF
:102100000D886D1E2C43D461146824F00104146002
:10211000002300E05B1C546804F001041CB14FF67E
:10212000FF74A342F6D1546804F001040CB10020FE
:1021300000E0012030BD10B50021837A012202FAAF
:1021400003F1AC4A126842F00102AA4B1A60A94A94
:102150001C3212688A43A74B1C331A60027BCAB92F
:10216000A44A0C3212688A43A24B0C331A6042888C
:10217000C38842EA03439F4A4032847A42F83430AB
:102180000288838842EA03439A4A4032847A02EB07
:10219000C4025360027B012A19D1964A0C3212689C
:1021A0000A43944B0C331A604288038842EA034383
:1021B000904A4032847A42F83430C288838842EAB6
:1021C00003438C4A4032847A02EBC4025360C27AE1
:1021D0003AB9884A121D12688A43864B1B1D1A6041
:1021E00006E0844A121D12680A43824B1B1D1A60C6
:1021F000028932B97F4A143212688A437D4B143304
:102200001A600289012A06D17A4A143212680A43F6
:10221000784B14331A60427B012A06D1754A1C326E
:1022200012680A43734B1C331A60724A126822F018
:102230000102704B1A6010BD00218171C1710172E1
:1022400041728172C1728170C170032101710221DA
:1022500041710121018070476649096841F001011F
:10226000644A11601146096843F60E729143614A4F
:1022700011601146096841EA0021116011460968A0
:1022800021F001011160704721B1026842F48032EF
:10229000026003E0026822F4803202607047E1B11C
:1022A000026842F0800202604FF4C272125842F497
:1022B00080734FF4C27213504FF4CA72125842F432
:1022C00080734FF4CA7213504FF4D272125842F412
:1022D00080734FF4D27213501BE0026822F0800228
:1022E00002604FF4C272125822F480734FF4C2722B
:1022F00013504FF4CA72125822F480734FF4CA720A
:1023000013504FF4D272125822F480734FF4D272E9
:102310001350704710B502460020936803F08063A5
:10232000B3F1806F00D110E0936803F00063B3F164
:10233000006F01D1012008E0936803F08053B3F1EE
:10234000805F01D1022000E00420042879D002F54A
:10235000C07303EB00131B6803F0010402F5C073A4
:1023600003EB00131C600B7A7BB94B7A0C8843EAB1
:10237000445302F5C07404EB00142468234302F5AF
:10238000C07404EB0014236010E00B7A4C6843EA3D
:10239000C4034C7A234302F5C07404EB0014246890
:1023A000234302F5C07404EB001423608B7A03F01E
:1023B0000F038B7202F5C07303EB00135B6823F00D
:1023C0000F0402F5C07303EB00135C6002F5C073E9
:1023D00003EB00135B688C7A234302F5C07404EBB3
:1023E000001463608B7B1C064B7B44EA034403E0D0
:1023F00000640040006600400B7B44EA0323CC7A73
:10240000234302F5C07404EB0014A3608B7C1C060C
:102410004B7C44EA03440B7C44EA0323CC7B2343F8
:1024200002F5C07404EB0014E36002F5C07303EB23
:1024300000131B6843F0010402F5C07303EB0013A3
:102440001C6010BD10B50246002321B1012907D040
:1024500002290FD109E09068F94C00EA04030BE06F
:102460009068F84C00EA040306E09068F64C00EA35
:10247000040301E0002300BF00BFF44C181BA3427B
:1024800016D007DC83B16FF08060184470B1022869
:1024900018D111E0B0F5007F10D0ED4C204448B1C8
:1024A000B0F5003F0ED10BE002230DE000230BE05E
:1024B000002309E0002307E0012305E0012303E0F6
:1024C000012301E0002300BF00BFD8B210BD21B13D
:1024D000012907D002290FD109E0826842F0800269
:1024E00082600AE0826842F40042826005E082680D
:1024F00042F40002826000E000BF00BF704710B5E8
:1025000000F5D87303EB01131B6803F00403137287
:10251000137A53B900F5D87303EB01131B6840F22B
:10252000FF7404EA5353136009E000F5D87303EB1A
:1025300001131B686FF0604404EAD303536000F595
:10254000D87303EB01131B6803F00203537200F509
:10255000D87303EB01135B6803F00F03937200F56C
:10256000D87303EB01135B681B0AD37400F5D873AF
:1025700003EB01139B68D37200F5D87303EB0113CF
:102580009B681C0A147300F5D87303EB01139B6856
:102590001C0C547300F5D87303EB01139B681B0EDE
:1025A000937300F5D87303EB0113DB68D37300F565
:1025B000D87303EB0113DB681C0A147400F5D8739D
:1025C00003EB0113DB681C0C547400F5D87303EBA8
:1025D0000113DB681B0E937421B9C36843F0200319
:1025E000C36003E0036943F02003036110BD21B918
:1025F000C26842F02002C26003E0026942F0200299
:10260000026170470246002019B9D36803F0030045
:1026100006E0012903D1136903F0030000E0002064
:10262000704710B502460B4600204FF6FF71BBB94C
:10263000146824F0020444F00104146000E0491E10
:10264000546804F00304012C01D00029F7D1546828
:1026500004F00304012C01D0002032E0012030E01E
:10266000012B13D1146824F00304146000E0491E08
:10267000546804F003040CB10029F8D1546804F044
:1026800003040CB100201CE001201AE0022B17D13A
:10269000146824F0010444F00204146000E0491EB0
:1026A000546804F00304022C01D00029F7D15468C7
:1026B00004F00304022C01D0002002E0012000E01D
:1026C000002010BD014600200A6822F0010242F0FD
:1026D00002020A604A6802F00302022A00D10120C5
:1026E000704701464FF6FF7200200B6823F002038B
:1026F0000B6000E0521E4B6803F00203022B01D175
:10270000002AF7D14B6803F00203022B00D001200E
:102710007047014600208A6902F070007047014648
:1027200000208A69100E7047014600208A69C2F3B2
:10273000074070471AB143690B43436102E04369A4
:102740008B434361704710B50246002001F47003CB
:1027500043B19369C1F3130423400BB101202DE071
:1027600000202BE001F0807343B15368C1F31304E0
:1027700023400BB1012021E000201FE001F00063A5
:1027800043B19368C1F3130423400BB1012015E05A
:10279000002013E001F0007343B1D368C1F31304C8
:1027A00023400BB1012009E0002007E01369C1F3C9
:1027B000130423400BB1012000E0002010BD0022D3
:1027C000244B994202D10023836111E0C1F313022B
:1027D00001F000730BB1C2600AE001F080630BB13D
:1027E000026105E001F000630BB1826000E042602D
:1027F00070470246002002EA01030BB1012000E00D
:102800000020704770B504460D46002660692840D8
:10281000002872D0B5F5807F69D01DDC082D42D02C
:1028200006DC012D2DD0022D31D0042D7FD134E0D6
:10283000102D3ED0202D42D0402D78D145E0000013
:10284000030000040003000800000310000100085A
:102850000001FFF77000F030B5F5004F61D009DCE2
:10286000B5F5007F4AD0B5F5806F4DD0B5F5006F56
:102870005DD150E0B5F5803F2DD0B5F5003F56D184
:102880002FE0A0685549FFF7B4FF064651E0E06825
:102890000321FFF7AEFF06464BE0E0680821FFF793
:1028A000A8FF064645E0E0681021FFF7A2FF0646B4
:1028B0003FE020690321FFF79CFF064639E02069CD
:1028C0000821FFF796FF064633E020691021FFF745
:1028D00090FF06462DE060680821FFF78AFF064654
:1028E00027E060681021FFF784FF064621E0A06919
:1028F0000121FFF77EFF06461BE01BE0A0690221D5
:10290000FFF777FF064614E0A0690421FFF771FF87
:1029100006460EE00BE0A0697021FFF76AFF06464D
:1029200007E060680421FFF764FF064601E0002627
:1029300000BF00E00026304670BDB1F5007F3AD000
:102940000FDC202928D006DC01291CD004291DD049
:10295000082940D11DE0402921D0B1F5807F3AD12E
:1029600026E0B1F5004F31D006DCB1F5806F25D0FF
:10297000B1F5006F2FD124E0B1F5803F12D0B1F551
:10298000003F28D111E0154A826025E00822C2608C
:1029900022E01022C2601FE0082202611CE0102227
:1029A000026119E00822426016E01022426013E042
:1029B0000422426010E0042242600DE004224260E2
:1029C0000AE0002282610422426005E00022826166
:1029D0000422426000E000BF00BF70470101010017
:1029E000016821F001010160002101604160816006
:1029F000C160016121214161DB49884204D13D214F
:102A0000D94A103A91608CE0D7491831884205D1F3
:102A10004FF47461D44A103A916082E0D249303167
:102A2000884205D14FF47411CF4A103A916078E092
:102A3000CD494831884205D14FF07461CA4A103AF5
:102A400091606EE0C8496031884204D1C749C64AE6
:102A5000103AD16065E0C4497831884204D1C44954
:102A6000C14A103AD1605CE0BF499031884204D13C
:102A7000C049BD4A103AD16053E0BB49A8318842F1
:102A800005D14FF03D51B84A103AD16049E0BA49FA
:102A9000884204D13D21B84A083A116041E0B64964
:102AA0001831884205D14FF47461B34A083A116075
:102AB00037E0B1493031884205D14FF47411AE4A44
:102AC000083A11602DE0AC494831884205D14FF0F9
:102AD0007461A94A083A116023E0A749603188422D
:102AE00004D1A249A44A121F11601AE0A249783108
:102AF000884204D19E49A04A121F116011E09E49EC
:102B00009031884204D19B499B4A121F116008E012
:102B10009949A831884204D14FF03D51964A121F7D
:102B20001160704710B500220268944B1A40CC68BF
:102B30000B6823434C6923438C692343CC692343AB
:102B40000C6A23434C6A23438C6A23434C6B234314
:102B50008C6B23431A430260426922F00702D1E9D9
:102B60000B3423431A4342610B6943604B68836013
:102B70008B68C36010BD0021016041608160C1604D
:102B8000016141618161C161016241628162C16231
:102B9000016341638163704721B1026842F0010221
:102BA000026003E0026822F001020260704721B176
:102BB000026842F40042026003E0026822F400422C
:102BC0000260704721B1026842F02002026003E017
:102BD000026822F02002026070474160704701469F
:102BE000486880B2704722B1036843F40023036051
:102BF00003E0036823F4002303600161704721B1FF
:102C0000026842F48022026003E0026822F480221B
:102C1000026070470AB1016100E0C160704701467F
:102C200000200A6802F400220AB1012000E000201E
:102C30007047014600200A6802F001020AB1012033
:102C400000E000207047014600204A6902F0380089
:102C5000704730B503460A4600200024464DAB427B
:102C600002D24149103901E04349103902F00055C0
:102C70000DB14C6800E00C68414D2C4004EA02059F
:102C80000DB1012000E0002030BD02463A4B9A42CF
:102C900002D23548103801E03748103801F00053AF
:102CA0001BB1374B0B40C36002E0354B0B408360D8
:102CB000704710B501F080034BB122B1436943F076
:102CC0008003436103E0436923F08003436180296B
:102CD0000BD02AB1036801F01E042343036004E013
:102CE000036801F01E04A343036010BD70B50246E3
:102CF000002000240025204EB24202D21A4B103B85
:102D000001E01D4B103B1F4E0E4036B11E2606EA59
:102D1000D124166806EA040502E0566906F080052B
:102D200001F000560EB15C6800E01C68144E34409F
:102D300004EA010616B10DB1012000E0002070BDCB
:102D400002460D4B9A4202D20748103801E00A4869
:102D5000103801F000531BB1094B0B40C36002E077
:102D6000074B0B4083607047106002403D0000201D
:102D7000400F002000003D20106402403F801CF006
:102D80007D0F7D0F3C0F3C0F10B5044698488442E0
:102D900008D10121084601F042FE0021012001F086
:102DA0003EFE76E09348844208D10121022001F0E2
:102DB00036FE0021022001F032FE6AE08E48844295
:102DC00008D10121042001F02AFE0021042001F095
:102DD00026FE5EE08948844208D10121082001F0E6
:102DE0001EFE0021082001F01AFE52E084488442B1
:102DF00008D10121102001F012FE0021102001F065
:102E00000EFE46E07F48844208D10121202001F0D7
:102E100006FE0021202001F002FE3AE07A488442BA
:102E200008D10121402001F0FAFD0021402001F0ED
:102E3000F6FD2EE07548844208D10121802001F082
:102E4000EEFD0021802001F0EAFD22E0704884427E
:102E500008D10121801501F0E2FD0021A01501F04B
:102E6000DEFD16E06B48844208D10121401501F0D7
:102E7000D6FD0021601501F0D2FD0AE066488442CB
:102E800007D10121001501F0CAFD0021201501F034
:102E9000C6FD10BDF0B50A4600210023002400BF86
:102EA0003DE0012505FA01F3156805EA03049C429B
:102EB00034D105684F000326BE40B543056015793F
:102EC0004E00B5400668354305601579012D02D0E6
:102ED0001579022D16D185684F000326BE40B543F3
:102EE000856055794E00B5408668354385604568F4
:102EF00001268E40B5434560456896798E40B6B24E
:102F000035434560C5684F000326BE40B543C560E4
:102F1000D5794E00B540C6683543C560491C1029B7
:102F2000BFD3F0BD4FF6FF71016000210171417107
:102F30008171C171704708B54FF480320092009AD8
:102F40000A430092009AC261C161009AC261C269DB
:102F50000092C269009208BD0246002013690B402E
:102F60000BB1012000E0002070470146086980B2E3
:102F700070470246002053690B400BB1012000E06E
:102F8000002070470146486980B27047018370474E
:102F9000418370470AB1018300E04183704741617A
:102FA000704742694A4042617047F0B500230024EF
:102FB0004D07ED0E02FA05F3CE1000F1200555F88D
:102FC00026504E07F70E0F26BE40B543CF1000F136
:102FD000200646F82750CE1000F1200555F826505F
:102FE00045EA0304CE1000F1200545F82640F0BD67
:102FF000000002400004024000080240000C0240B1
:10300000001002400014024000180240001C024060
:1030100000200240002402400028024010B504466F
:10302000FB48844208D10121801401F03CFD0021BD
:10303000A01401F038FD3CE0F648844208D101219B
:10304000001401F01FFD0021201401F01BFD30E0F1
:10305000F148844208D10121C01301F013FD002181
:10306000E01301F00FFD24E0EC48844208D1012177
:10307000401401F018FD0021601401F014FD18E067
:10308000E748844209D10121080501F00CFD002127
:103090004FF4801001F007FD0BE0E248844208D1B4
:1030A0000121480501F0FFFC00214FF4001001F060
:1030B000FAFC10BD10B50022028802F441520B88C0
:1030C0004C8823438C882343CC8823430C89234397
:1030D0004C8923438C892343CC8923431A430280A0
:1030E000838B4FF2FF74234083830B8A038210BDCE
:1030F0002DE9F04F0025022300244FF001090022A2
:103100000026002794469046B0F81CA04FF2400BD2
:103110000AEA0B0AA0F81CA04FF0020AA0F820A0AF
:10312000858BD1F808A0BAF1020F01D100BF82E06F
:10313000B1F804A0BAF1000F02D14FF0010901E08B
:103140004FF00209DFF8E0A2DAF800A00AF4000A62
:10315000BAF1000F09D0DFF8D0A2DAF800A02AF403
:10316000000ADFF8C4B2CBF800A0DFF8BCA20AF175
:103170007C0ADAF800A0CAF3881CDFF8ACA20AF1D6
:103180007C0ADAF800A0CAF30278DFF89CA2AAF160
:10319000040ADAF800A00AF03F07DFF88CA2AAF1CF
:1031A000040ADAF800A00AF4800ABAF5800F08D100
:1031B000DFF878A2BAFBF7FA0AFB0CFABAFBF8F6CA
:1031C00007E0DFF86CA2BAFBF7FA0AFB0CFABAFBCD
:1031D000F8F6B1F806A0BAF5007F0ED14FEA162A2C
:1031E0000AEB8A0A4FEA4A0AD1F808B0BAFBFBFA9E
:1031F0000AF1050A1FFA8AF20FE04FEA491AB6FBF4
:10320000FAFA0AEB8A0A4FEA4A0AD1F808B0BAFB7E
:10321000FBFA0AF1050A1FFA8AF24FF00A0AB2FB1A
:10322000FAF202F00104A2EB040ACAF34F034FF6CC
:10323000FF7A0AEA0424022B01DBFF2B01DD0223C3
:103240000024B1F806A04AEA040A4AEA030AA0F8F0
:1032500020A0B1F804A0B1F80CB04AEA0B0AB1F80A
:1032600002B04AEA0B0AB1F800B04AEA0B0A4AF483
:10327000006A4AEA05058583BDE8F08F00210180D8
:1032800041808180C180018141818181C18107218B
:10329000018270470021018041808180C18002212C
:1032A000816000218181704721B1028842F0400293
:1032B000028004E002884FF6BF731A400280704714
:1032C00021B1828B42F48062828304E0828B4FF6CC
:1032D000FF331A408283704702884FF2FF731A400F
:1032E000028002880A4302807047B1F5804F04D102
:1032F000028842F48042028004E002884BF6FF73A9
:103300001A40028070474FF6FF62914204D0028853
:1033100042F48072028004E002884FF6FF631A4094
:103320000280704721B1828842F00402828004E06A
:1033300082884FF6FB731A408280704721B18288E1
:1033400042F01002828004E082884FF6EF731A4048
:103350008280704730B500220023848B4FF24005F5
:103360002C40848302240484828B0C88B4F5007F73
:1033700001D00C8814B94FF4807308E00C88B4F5C0
:10338000407F03D00C88B4F5807F00D100238C8867
:103390008D892C434D882C431C4344F40064224304
:1033A000828330BD0146888970478181704721B191
:1033B000028842F40052028004E002884DF6FF7356
:1033C0001A4002807047018841F4805101807047A3
:1033D00002460020012901D0108B00E0908A70473E
:1033E0000146088A70471AB183880B43838002E044
:1033F00083888B438380704730B5002400230C11F1
:103400000125A540ABB2AAB185881D43858014E093
:103410000030014000380040003C004000340140D2
:1034200000500140005401400838024000127A0068
:103430000024F40085889D43858030BD024600202D
:1034400013890B400BB1012000E000207047CA43F4
:1034500002817047F0B502460020002400230025B9
:1034600001F00F070126BE40B4B20B1101269E40A9
:10347000B3B2968806EA03051689264016B10DB147
:10348000012000E00020F0BD10B5002201F00F0483
:103490000123A3409AB2D343038110BD10B5044663
:1034A000FE48844208D10121084601F0FCFA0021BF
:1034B000012001F0F8FA9DE0B4F1804F08D101211C
:1034C000084601F0DFFA0021012001F0DBFA91E06B
:1034D000F348844208D10121022001F0D3FA0021EF
:1034E000022001F0CFFA85E0EE48844208D10121A4
:1034F000042001F0C7FA0021042001F0C3FA79E0AA
:10350000E948844208D10121082001F0BBFA0021DA
:10351000082001F0B7FA6DE0E448844208D10121A7
:10352000102001F0AFFA0021102001F0ABFA61E0A9
:10353000DF48844208D10121202001F0A3FA0021B4
:10354000202001F09FFA55E0DA48844208D1012199
:10355000022001F0A8FA0021022001F0A4FA49E0BB
:10356000D548844209D10121080401F09CFA0021C8
:103570004FF4803001F097FA3CE0D048844209D102
:103580000121480401F08FFA00214FF4003001F0CE
:103590008AFA2FE0CA48844209D10121880401F047
:1035A00082FA00214FF4802001F07DFA22E0C54824
:1035B000844208D10121402001F064FA002140201A
:1035C00001F060FA16E0C048844208D10121802051
:1035D00001F058FA0021802001F054FA0AE0BB48BB
:1035E000844207D10121801501F04CFA0021A01579
:1035F00001F048FA10BD00220288A84B98420ED074
:10360000AC4B98420BD0B0F1804F08D0A44B9842FD
:1036100005D0A44B984202D0A34B984204D14FF658
:103620008F731A404B881A43A04B984207D0A04B87
:10363000984204D04FF6FF431A400B891A43028088
:103640004B68C3620B880385944B984202D0994B18
:10365000984201D18B7A03860123838270474FF011
:10366000FF314160002101800181418081727047FA
:103670000185828270470A46002101884FF68F73C8
:10368000194011430180704741627047C162704721
:103690000146486A70470146088D704721B102888B
:1036A00042F00202028004E002884FF6FD731A40E5
:1036B0000280704721B1028842F00402028004E0D7
:1036C00002884FF6FB731A400280704721B10288CE
:1036D00042F08002028004E002884FF67F731A40B5
:1036E0000280704702884FF6F7731A400280028802
:1036F0000A430280704702884FF6FF431A40028057
:1037000002880A430280704721B1028842F0010218
:10371000028004E002884FF6FE731A400280704770
:1037200070B5002400220023058C4FF6FE7635404C
:103730000584028C8388048B4FF68F752C40B51E50
:103740002C400D882C43751E2A408D892A434D88B4
:103750002A43524DA84202D0564DA84213D14FF6EB
:10376000F7752A40CD892A434FF6FB752A408D888C
:103770002A434FF6FF652B404FF6FF552B400D8A2D
:103780002B434D8A2B43838004838D6845630284D9
:1037900070BD70B5002400220023058C4FF6EF7633
:1037A00035400584028C8388048B48F6FF752C40D5
:1037B0004FF6FF452C400D884FF6FF7606EA0525AB
:1037C0002C434FF6DF752A408D8906EA05152A43FA
:1037D0004D8806EA05152A43304DA84202D0354DE2
:1037E000A8421DD14FF67F752A40CD894FF6FF764E
:1037F00006EA05152A434FF6BF752A408D8806EA6A
:1038000005152A434FF6FF352B404FF2FF752B402D
:103810000D8A06EA85052B434D8A06EA85052B436A
:10382000838004838D688563028470BD70B5002435
:1038300000220023058C4FF6FF6635400584028C7C
:103840008388848B4FF68F752C404FF6FC752C4087
:103850000D882C434FF6FF552A408D894FF6FF7691
:1038600006EA05252A434D8806EA05252A430B4D1D
:10387000A84202D00F4DA84238D14FF2FF752A401E
:10388000CD894FF6FF7606EA05252A434FF6FF3528
:103890002A408D8806EA05252A4319E000000140E8
:1038A0000004004000080040000C004000100040F0
:1038B0000014004000040140004001400044014069
:1038C0000048014000180040001C0040002000405B
:1038D0004EF6FF752B404DF6FF752B400D8A06EA1C
:1038E00005152B434D8A06EA05152B4383808483F7
:1038F0008D68C563028470BD70B50022002300246A
:10390000058C4EF6FF7635400584038C8488828BC7
:1039100048F6FF752A404FF6FF452A400D884FF6BE
:10392000FF7606EA05252A434DF6FF752B408D8963
:1039300006EA05352B434D8806EA05352B43FE4D37
:10394000A84202D0FD4DA84208D14BF6FF752C408D
:103950000D8A4FF6FF7606EA85152C438480828314
:103960008D680564038470BD0021018041808180E1
:1039700081608181C18101824182704770B50346B7
:10398000002000241846183001258D40ACB21D8C53
:10399000A5431D8409B108290AD100EB610005681F
:1039A0004FF68F76354005600568154305600FE0DA
:1039B0000D1FC5F34E052844056848F6FF763540CF
:1039C000056005684FF6FF7606EA02263543056076
:1039D00070BD4163704781637047C1637047016484
:1039E00070470A460021018B4FF68F73194011432F
:1039F000018370470A460021018B48F6FF73194086
:103A00004FF6FF7303EA02231943018370470A4606
:103A10000021818B4FF68F731940114381837047CA
:103A20000A460021818B48F6FF7319404FF6FF7359
:103A300003EA02231943818370470A460021018B60
:103A40004FF6F77319401143018370470A4600216E
:103A5000018B4FF2FF7319404FF6FF7303EA022305
:103A60001943018370470A460021818B4FF6F77393
:103A700019401143818370470A460021818B4FF220
:103A8000FF7319404FF6FF7303EA02231943818342
:103A900070470A460021018B4FF6FB731940114312
:103AA000018370470A460021018B4FF6FF3319400E
:103AB0004FF6FF7303EA02231943018370470A4656
:103AC0000021818B4FF6FB731940114381837047AE
:103AD0000A460021818B4FF6FF3319404FF6FF73E2
:103AE00003EA02231943818370470A460021018BB0
:103AF0004FF67F7319401143018370470A46002136
:103B0000018BC1F30E014FF6FF7303EA0223194341
:103B1000018370470A460021818B4FF67F7319405D
:103B20001143818370470A460021818BC1F30E0146
:103B30004FF6FF7303EA02231943818370470A4655
:103B40000021018C4FF6FD73194011430184704729
:103B50000A460021018C4FF6F77319401143018486
:103B600070470A460021018C4FF6DF7319404FF66B
:103B7000FF7303EA02131943018470470A460021C8
:103B8000018C4FF67F7319404FF6FF7303EA02135F
:103B90001943018470470A460021018C4FF6FF53F8
:103BA00019404FF6FF7303EA02231943018470475B
:103BB0000A460021018C4FF2FF7319404FF6FF7344
:103BC00003EA02231943018470470A460021018C4D
:103BD0004DF6FF7319404FF6FF7303EA02331943A2
:103BE0000184704730B5002301248C40A3B2048CBB
:103BF0009C430484048C02FA01F5ADB22C43048486
:103C000030BD30B5002304248C40A3B2048C9C4307
:103C10000484048C02FA01F5ADB22C43048430BD57
:103C2000828B4FF2FF331A408283828B4FF6FF73F1
:103C300003EA01231A4382837047F0B50C46154608
:103C4000002100220026078C4EF6FF7C07EA0C07B5
:103C50000784818B028C4FF6FF7707EA043640F623
:103C6000FF4739404FF6FF7707EA052739434FF6FC
:103C7000FF7707EA0337394345F6FF773A4046F4C2
:103C800080573A4381830284F0BD828B4FF6F373F1
:103C90001A408283828B0A4382837047F0B50C46B8
:103CA0001546002100220026078C4FF6FF6C07EA1C
:103CB0000C070784818B028C4FF6FF7707EA0426F6
:103CC0004FF60C7739404FF6FF7707EA03172F437B
:103CD00039434FF2FF573A4046F480773A438183A5
:103CE0000284F0BD028B4FF2FF331A400283028B35
:103CF0004FF6FF7303EA01231A4302837047F0B5BE
:103D00000C461546002100220026078C4FF6EF7C5A
:103D100007EA0C070784018B028C4FF6FF7707EA4E
:103D2000041640F6FF4739404FF6FF7707EA03379E
:103D300039434FF6FF7703E00000014000040140E3
:103D400007EA052739434FF65F773A4046F01007F8
:103D50003A4301830284F0BD028B4FF6F3731A409D
:103D60000283028B0A4302837047F0B50C46154666
:103D700000210022068C4FF6FE773E400684018B20
:103D8000028C4FF60C7631407E1C06EA03162E4359
:103D900031434FF6F576324044F001063243018359
:103DA0000284F0BD70B505460C46208850B92389C1
:103DB000A28861882846FFF7D8FFE1882846FFF7E8
:103DC000CBFF25E0208804280AD12389A2886188B6
:103DD0002846FFF794FFE1882846FFF783FF17E0A6
:103DE000208808280AD12389A28861882846FFF7FD
:103DF00055FFE1882846FFF748FF09E02389A2889C
:103E000061882846FFF719FFE1882846FFF708FF79
:103E100070BD002101804180012181800021C1808D
:103E2000018170472DE9F04105460C460026012727
:103E3000608808B9022600E00026A088012801D188
:103E4000022700E001272088A0B92389A288618881
:103E50002846FFF78AFFE1882846FFF77DFF238980
:103E60003A4631462846FFF74AFFE1882846FFF7E1
:103E700039FF13E02389A28861882846FFF73FFFB6
:103E8000E1882846FFF72EFF23893A463146284627
:103E9000FFF76BFFE1882846FFF75EFFBDE8F08182
:103EA0000146486B70470146886B70470146C86BF6
:103EB00070470146086C70470A884B881A438B8804
:103EC0001A43CB881A430B891A434B891A438B89AF
:103ED0001A43A0F84420704700210180418081806E
:103EE000C180018141818181704731B1B0F84420A6
:103EF00042F40042A0F8442005E0B0F84420C2F3A8
:103F00000E02A0F84420704721B1828842F00402DA
:103F1000828004E082884FF6FB731A4082807047EB
:103F200021B1828842F00102828004E082884FF64B
:103F3000FE731A40828070471AB183890B438381D4
:103F400002E083898B4383817047818270470246F8
:103F50000020138A0B400BB1012000E000207047C5
:103F6000CA430282704730B5024600200023002475
:103F7000158A05EA0103958905EA010413B10CB11C
:103F8000012000E0002030BDCA430282704741EAB0
:103F90000203A0F8483070471AB183890B4383812C
:103FA00002E083898B438381704721B1828842F08C
:103FB0000802828004E082884FF6F7731A408280FC
:103FC000704701894FF6F8721140018170470A4627
:103FD000002101894FF68F73194011430181704709
:103FE00030B504460D4629462046FFF7F0FF2089EC
:103FF00040F00700208130BD2DE9F04104460D4618
:1040000016461F46602D06D13B460122314620460A
:10401000FFF775FE05E03B46012231462046FFF7DB
:10402000A4FE29462046FFF7D2FF208940F0070072
:104030002081BDE8F08130B50C4600210189C9B26C
:104040004FF6FF7505EA03251543254329430181F2
:1040500030BD2DE9F04105460E461746984600242E
:1040600043463A4631462846FFF7E5FF2C894FF68E
:10407000F870044044F007044FF68F70044044F099
:1040800070042C81BDE8F081F0B504460D4616465B
:104090001F463B46324629462046FFF7CCFF208983
:1040A00040F480402081F0BD82884FF68F731A4023
:1040B000828082880A438280704702894FF6F873B3
:1040C0001A40028102890A430281704702894FF631
:1040D0007F731A40028102890A4302817047F0B55A
:1040E0000C4615461E460021002200230189028B42
:1040F000038C4FF6F877394021434FF6FC473A409E
:1041000040F201173A434FF6DD773B404FF6FF7719
:1041100007EA06172F433B43018102830384F0BD66
:1041200021B1828842F08002828004E082884FF6CA
:104130007F731A4082807047A0F8501070470000CB
:1041400010B50446FA48844208D10121102000F03D
:10415000AAFC0021102000F0A6FC57E0F54884429C
:1041600009D10121480400F08DFC00214FF40030FA
:1041700000F088FC4AE0F048844209D1012188041B
:1041800000F080FC00214FF4802000F07BFC3DE03B
:10419000EA48844209D10121C80400F073FC0021DF
:1041A0004FF4002000F06EFC30E0E548844209D175
:1041B0000121080500F066FC00214FF4801000F09A
:1041C00061FC23E0DF48844208D10121202000F077
:1041D0006AFC0021202000F066FC17E0DA488442E7
:1041E00009D10121880700F04DFC00214FF08040EB
:1041F00000F048FC0AE0D548844207D1012140057F
:1042000000F040FC0021600500F03CFC10BD2DE9F1
:10421000FF4705460E460024A14600BFA046B089D0
:1042200000B100BF2C8A24F44054F08804432C824F
:10423000AC8941F20C608443B088318908437189AC
:1042400008430443AC81AC8A24F44074B08904432D
:10425000AC82684600F0A7FAB548854202D0B9485A
:10426000854202D1DDF80C9001E0DDF80890A889C4
:1042700000F4004040B109EBC90000EB09103168BF
:104280004900B0FBF1F707E009EBC90000EB0910AA
:1042900031688900B0FBF1F76420B7FBF0F004014E
:1042A0002009642101FB1078A88900F4004040B186
:1042B000322000EBC800B0FBF1F000F0070004432F
:1042C00008E0322000EB08106421B0FBF1F000F0B0
:1042D0000F0004432C81BDE8FF874FF416510160A5
:1042E00000218180C18001810C21418100218181D7
:1042F000704710B502460020108A20F470600B88C9
:104300004C8823438C882343CC8823431843108252
:1043100010BD0021018041808180C180704721B1A2
:10432000828942F40052828104E082894DF6FF7353
:104330001A4082817047028B02F47F420283028B13
:104340000A430283704721B1828942F4004282818C
:1043500003E08289C2F30E028281704721B1828A12
:1043600042F40062828204E0828A4FF2FF731A40B4
:1043700082827047C1F308028280704701468888B4
:10438000C0F308007047028A4FF6F0731A400282A9
:10439000028A0A430282704721B1828942F00202F6
:1043A000828104E082894FF6FD731A408281704752
:1043B00082894FF2FF731A40828182890A43828187
:1043C0007047028A4FF6DF731A400282028A0A435C
:1043D0000282704721B1028A42F48042028204E0E4
:1043E000028A4BF6FF731A4002827047818941F0BE
:1043F00001018181704721B1828A42F008028282E4
:1044000004E0828A4FF6F7731A4082827047028B6B
:10441000D2B20283028B42EA01220283704721B1A9
:10442000828A42F02002828204E0828A4FF6DF73A1
:104430001A408282704721B1828A42F01002828241
:1044400004E0828A4FF6EF731A4082827047828AB4
:104450004FF6FB731A408282828A0A438282704737
:1044600021B1828A42F00202828204E0828A4FF6FF
:10447000FD731A40828270471AB1838A0B4383828C
:1044800002E0838A8B4383827047F0B503460024A1
:1044900000260025002040F66A17B94200D100BF6F
:1044A0001846C1F3421401F01F06012707FA06F56A
:1044B000012C01D10C3004E0022C01D1103000E0BD
:1044C00014301AB107682F43076002E00768AF4352
:1044D0000760F0BD02460020B1F5007F00D100BFAB
:1044E00013880B400BB1012000E00020704701F45D
:1044F0000072B2F5007F00D100BFCA43028070474E
:1045000070B50246002400230025002040F66A16FC
:10451000B14200D100BFC1F3421501F01F030126D3
:1045200006FA03F3012D13D19689334017E00000FA
:10453000001001400044004000480040004C004092
:10454000005000400014014000780040007C004012
:10455000022D02D1168A334001E0968A33400C12B4
:10456000012606FA04F41688344013B10CB1012078
:1045700000E0002070BD10B50022002340F66A1450
:10458000A14200D100BF0A1201249440A3B2DC432F
:10459000048010BDF948006840F00100F749086048
:1045A0000020F64908310860F4480068F4490840E2
:1045B000F2490860F348091D0860F348EF49843167
:1045C0000860F0481038091D0860EC48006820F4C5
:1045D0008020EA4908600020E8490C310860E7497A
:1045E0008C31086070470021E44A921C117011461A
:1045F0000870704710B501460022002300204A11C0
:10460000012A02D1DD4C236808E0022A03D1DB4CE9
:104610007034236802E0D94C7434236801F01F021F
:10462000012494401C400CB1012000E0002010BD8A
:1046300038B5002000900024002500BF3120FFF78E
:10464000D9FF05460098401C00900098B0F5A04F97
:1046500001D0002DF2D03120FFF7CCFF08B10124AA
:1046600000E00024204638BD01460020C34A1068FF
:1046700020F0F80040EAC10010607047C3490860AC
:1046800070470021BD4A703211701170012802D0AC
:1046900004280AD104E00121B84A7032117005E003
:1046A0000521B64A7032117000E000BF00BF7047AC
:1046B000B7490860704770B5049C41EA821501262D
:1046C000C6EB530645EA0645054345EA0465AB4E8D
:1046D000361D356070BDAD4908667047820142EAFB
:1046E0000172A64B84331A607047A84988667047E8
:1046F00010B5830143EA016343EA02739F4C883497
:10470000236010BDA14908677047A049C86470477D
:1047100002460020994B0833186820F0EC6042EA0A
:1047200001031843954B0833186070470246002078
:10473000924B0833186820F0784042EA010318438E
:104740008E4B083318607047014600208B4A0832B0
:10475000106820F003000843106070478748083055
:10476000006800F00C00704701460020834A0832C0
:10477000106820F0F00008431060704701460020E8
:104780007E4A0832106820F4E050084310607047F9
:1047900001460020794A0832106820F4604040EA5F
:1047A000C10010607047F0B50021002200240225EE
:1047B00000260223714F08373F6807F00C0121B132
:1047C000042905D0082937D105E0724F076036E08B
:1047D000714F076033E0694F3F1D3F68C7F3805654
:1047E000664F3F1D3F6807F03F036EB16A4FB7FB4E
:1047F000F3F7DFF888C10CF1040CDCF800C0CCF34F
:10480000881C07FB0CF40CE0624FB7FBF3F7DFF8F2
:104810006CC10CF1040CDCF800C0CCF3881C07FB65
:104820000CF4564F3F1D3F68C7F301477F1C7D00C6
:10483000B4FBF5F7076002E0564F076000BF00BF0A
:104840004E4F08373F6807F0F0010909534F7A5C73
:104850000768D7404760494F08373F6807F4E05181
:10486000890A4E4F7A5C4768D7408760434F0837C4
:104870003F6807F46041490B484F7A5C4768D7406E
:10488000C760F0BD002100F44072B2F5407F0AD14C
:104890003A4A0832116821F4F811414A02401143A2
:1048A000364A08321160354A70321268C0F30B0381
:1048B0001A43324B70331A607047354944390860E7
:1048C000704733494039086070473649086070477F
:1048D00001460020294A8C32106820F01F004A1E31
:1048E0001043264A8C321060704701460020234A4C
:1048F0008C32106820F4F8504A1E40EA02201F4A09
:104900008C3210607047014600201C4A8C321068BF
:1049100020F4401008431060704701460020174AF9
:104920008C32106820F44000084310607047014644
:104930000020124A8C32106820F440300843106086
:10494000704719490860704739B10C4A3032126813
:1049500002430A4B30331A6006E0084A30321268CC
:104960008243064B30331A607047F9B1034A343240
:1049700012680243014B34331A601CE000380240D5
:10498000FFFFF6EA1030002400300020000047420C
:10499000800E47420024F40000127A0072200020AA
:1049A000FFFCFF0F5C014742E01147428F4A12684B
:1049B00082438E4B1A60704739B18C4A121D1268BF
:1049C00002438A4B1B1D1A6006E0884A121D1268BA
:1049D0008243864B1B1D1A60704739B1834A0C32E3
:1049E00012680243814B0C331A6006E07F4A0C3296
:1049F000126882437D4B0C331A60704739B17B4A91
:104A0000103212680243794B10331A6006E0774A7D
:104A1000103212688243754B10331A60704739B1F7
:104A2000724A243A12680243704B243B1A6006E033
:104A30006E4A243A126882436C4B243B1A607047DA
:104A400039B16A4A203A12680243684B203B1A6027
:104A500006E0664A203A12688243644B203B1A60A3
:104A6000704739B1614A1C3A126802435F4B1C3BE4
:104A70001A6006E05D4A1C3A126882435B4B1C3B9D
:104A80001A60704739B1594A143A12680243574BB9
:104A9000143B1A6006E0554A143A12688243534B9D
:104AA000143B1A60704739B1504A103A12680243F9
:104AB0004E4B103B1A6006E04C4A103A1268824393
:104AC0004A4B103B1A60704739B1484A1C32126891
:104AD0000243464B1C331A6006E0444A1C321268FB
:104AE0008243424B1C331A60704739B13F4A20322F
:104AF000126802433D4B20331A6006E03B4A2032E5
:104B000012688243394B20331A60704739B1374AF3
:104B1000243212680243354B24331A6006E0334ACC
:104B2000243212688243314B24331A60704739B102
:104B30002E4A2C32126802432C4B2C331A6006E0AA
:104B40002A4A2C3212688243284B2C331A60704751
:104B500039B1264A303212680243244B30331A608E
:104B600006E0224A303212688243204B30331A600A
:104B70007047012808D11D493C31096841F00801FE
:104B80001A4A3C32116007E018493C31096821F0AB
:104B90000801164A3C321160704739B1134A273A6E
:104BA00012780243114B273B1A7006E00F4A273A4E
:104BB000127882430D4B273B1A7070470B484030E8
:104BC000006840F080700949403108607047014634
:104BD0000020064A283A12680A400AB1012000E083
:104BE0000020704701492639087070473438024068
:104BF00070B504460D46A088012804D1EAB2002110
:104C00002068FEF7D2F9A088022804D1EAB2012177
:104C10002068FEF7CAF9A088042804D1EAB202216C
:104C20002068FEF7C2F9A088082804D1EAB203215F
:104C30002068FEF7BAF9A088102804D1EAB204214E
:104C40002068FEF7B2F9A088202804D1EAB2052135
:104C50002068FEF7AAF9A088402804D1EAB206210C
:104C60002068FEF7A2F9A088802804D1EAB20721C3
:104C70002068FEF79AF9A088B0F5807F04D1EAB2E7
:104C800008212068FEF791F9A088B0F5007F04D1D3
:104C9000EAB209212068FEF788F9A088B0F5806F94
:104CA00004D1EAB20A212068FEF77FF9A088B0F5A6
:104CB000006F04D1EAB20B212068FEF776F9A088D4
:104CC000B0F5805F04D1EAB20C212068FEF76DF9DF
:104CD000A088B0F5005F04D1EAB20D212068FEF78C
:104CE00064F9A088B0F5804F04D1EAB20E212068A3
:104CF000FEF75BF9A088B0F5004F04D1EAB20F21AE
:104D00002068FEF752F970BD10B504462068C0F364
:104D10000901002944D18012A0F5801080380B28A9
:104D20003ED2DFE800F0060B10151A1F24292E339F
:104D3000380001210846FFF707FE31E0012102207B
:104D4000FFF702FE2CE001210420FFF7FDFD27E024
:104D500001210820FFF7F8FD22E001211020FFF7D4
:104D6000F3FD1DE001212020FFF7EEFD18E00121F9
:104D70004020FFF7E9FD13E001218020FFF7E4FD6B
:104D80000EE001210802FFF7DFFD09E001214802E2
:104D9000FFF7DAFD04E001218802FFF7D5FD00BF2F
:104DA00000BF10BD2DE9FC4104460D4616461F46C6
:104DB000DDF820802046FFF7A7FFA08800908DF83F
:104DC00004508DF806608DF805708DF807806946EF
:104DD0002068FEF75FF8BDE8FC811CB5044620465C
:104DE000FFF792FFA088009002208DF804000020B9
:104DF0008DF8060003208DF8050000208DF80700CF
:104E000069462068FEF746F81CBD1CB504462046DE
:104E1000FFF77AFFA088009000208DF804008DF83D
:104E2000060001208DF805008DF80700694620680E
:104E3000FEF730F81CBD1CB504462046FFF764FFA2
:104E4000A088009001208DF8040000208DF8060055
:104E50008DF805008DF8070069462068FEF71AF8FE
:104E60001048844205D1A18800222068FEF79DF8F1
:104E700007E00D48844204D1A18800222068FEF793
:104E800094F81CBD10B50446A1882068FEF764F8AC
:104E900010BD70B504460D46A1882A462068FEF76D
:104EA00079F870BDA8A60008C8A6000830B500BFF4
:104EB0002B4800684FF47A72B0FBF2F1481EB0F153
:104EC000807F01D301201BE0481E4FF0E02250619B
:104ED00050170F22002807DA13071D0E214B00F090
:104EE0000F04241F1D5503E013071C0E1E4B1C54FA
:104EF00000BF00204FF0E0229061072010610020E9
:104F00000028D5D130BD1948006820B11748006885
:104F1000401E1649086070471548006815498842C8
:104F200005D213480068401C1149086002E00020C7
:104F30000F49086070470E480068704701200B4910
:104F4000086000BF094800680028FBD17047074986
:104F5000086000BF054909680029FBD170470000BF
:104F60003410002018ED00E000E400E08420002070
:104F700088200020809698001CB55448FFF72DFF2C
:104F80005348FFF72AFF01215048FFF731FE012166
:104F90004F48FFF72DFE002040F2E7330246532131
:104FA00000904FF0804000F015F9002000900123A0
:104FB00060229907019000F028F900200090012359
:104FC000602299070190082000F01FF94148FFF77F
:104FD00032FF4148FFF72FFF1CBD70B504460D4658
:104FE00024B902213D48FDF7D3FF05E0012C03D190
:104FF00002213A48FDF7CAFF29464FF08040FEF7EC
:10500000E8FC70BD70B504460D4624B9082133484C
:10501000FDF7BEFF05E0012C03D108212F48FDF765
:10502000B5FF29464FF08040FEF7D7FC70BD1CB598
:105030002B48FFF7D2FE2B48FFF7CFFE2A48FFF799
:10504000CCFE01212648FFF7D3FD01212548FFF7BB
:10505000CFFD01212448FFF7CBFD002042F20F7362
:10506000024614210090214800F0B4F8002000907E
:10507000012360221D49019000F0C7F80020009034
:105080000123602219490190042000F0BEF800209D
:1050900000900123602215490190082000F0B5F826
:1050A0001CBD10B5044621461048FEF792FC10BD09
:1050B00010B5044621460D48FEF78DFC10BD10B515
:1050C000044621460948FEF788FC10BD30A60008BA
:1050D00040A6000838A6000848A6000800000240C4
:1050E00070A6000878A6000880A60008000001400D
:1050F00010B504467148844204D101210846FFF7E7
:105100007DFC66E0B4F1804F04D101210846FFF731
:1051100064FC5EE06A48844204D101210220FFF76A
:105120005CFC56E06748844204D101210420FFF76B
:1051300054FC4EE06448844204D101210820FFF76A
:105140004CFC46E06148844204D101211020FFF765
:1051500044FC3EE05E48844204D101212020FFF758
:105160003CFC36E05B48844204D101210220FFF779
:1051700045FC2EE05848844204D101210804FFF781
:105180003DFC26E05548844204D101214804FFF744
:1051900035FC1EE05248844204D101218804FFF707
:1051A0002DFC16E04F48844204D101214020FFF736
:1051B00014FC0EE04C48844204D101218020FFF70A
:1051C0000CFC06E04948844203D101218015FFF719
:1051D00004FC10BD2DE9FE4307460C4615461E464D
:1051E000DDF828803846FFF783FF0196ADF8088088
:1051F000ADF80040ADF8025000208DF80A00694675
:105200003846FEF7F8F9BDE8FE832DE9F04385B096
:1052100004460D4616461F46DDE90C89ADF80C9094
:10522000ADF80060ADF80270CDF8088023488542E3
:1052300002D0284885420BD10020ADF80E00ADF811
:1052400010004FF40070ADF812000420ADF8040017
:105250003CB969462846FEF763FA08212846FEF75E
:10526000ECFB042C07D169462846FEF792FA082188
:105270002846FEF7EBFB082C07D169462846FEF7C7
:10528000D5FA08212846FEF7EEFB0C2C07D169461B
:105290002846FEF731FB08212846FEF7EDFB0121E9
:1052A0002846FEF722FE01212846FEF70FFA0121CB
:1052B0002846FEF729FA05B0BDE8F083000001405A
:1052C0000004004000080040000C004000100040B6
:1052D000001400400004014000400140004401402F
:1052E0000048014000180040001C00400020004021
:1052F00010B51648FFF79FFD10BD70B504460D466A
:10530000012D03D1A1882068FDF740FE1DB9A188B9
:105310002068FDF73DFE70BD10B504460C480078CE
:10532000012807D1A1882068FDF730FE0020084938
:10533000087009E00648007830B9A1882068FDF7B8
:1053400027FE01200249087010BD0000C8A6000811
:105350008C20002000B587B0FE48FFF76CFDFE48AA
:10536000FFF769FDFD48FFF766FD01210846FFF7DD
:10537000EBFA01210803FFF741FBA0200090022077
:105380008DF8040000208DF8060003208DF805003C
:1053900000208DF807006946F148FDF77BFD0522E6
:1053A0001146EF48FDF701FE05220721EC48FDF705
:1053B000FCFD0020ADF808004FF48270ADF80A0043
:1053C0000020ADF80C000220ADF80E000120ADF871
:1053D00010004002ADF812000020ADF81400ADF846
:1053E000160002A9DF48FDF765FE0121DD48FDF743
:1053F0005BFF0021DB48FDF7DAFF0021D948FDF70C
:1054000091FF07B000BD10B504461021D648FDF746
:10541000BFFD2021D448FDF7BBFD00BF0221D148CC
:10542000FEF70CF80028F9D02146CE48FDF7BDFF65
:1054300000BF0121CB48FEF701F80028F9D0C94888
:10544000FDF7B0FF1021C848FDF7A0FD10BD10B555
:1054500004461021C448FDF79BFD2021C248FDF7FA
:1054600095FD00BF0221BF48FDF7E8FF0028F9D0F5
:105470002146BC48FDF799FF00BF0121B948FDF75F
:10548000DDFF0028F9D0B748FDF78CFF1021B648A2
:10549000FDF77CFD10BD10B50120FFF7B4FF112012
:1054A000FFF7B1FFB120FFF7AEFF0120FFF7CFFFFD
:1054B0002C20FFF7CCFF2D20FFF7C9FFB220FFF70C
:1054C000A2FF0120FFF7C3FF2C20FFF7C0FF2D2014
:1054D000FFF7BDFFB320FFF796FF0120FFF7B7FFEF
:1054E0002C20FFF7B4FF2D20FFF7B1FF0120FFF7BD
:1054F000AEFF2C20FFF7ABFF2D20FFF7A8FFB42055
:10550000FFF781FF0720FFF7A2FFC020FFF77BFF17
:10551000A220FFF79CFF0220FFF799FF8420FFF7EE
:1055200096FFC120FFF76FFFC520FFF790FFC22055
:10553000FFF769FF0A20FFF78AFF0020FFF787FFC8
:10554000C320FFF760FF8A20FFF781FF2A20FFF7C3
:105550007EFFC420FFF757FF8A20FFF778FFEE2079
:10556000FFF775FFC520FFF74EFF0E20FFF76FFF17
:105570003620FFF748FFC820FFF769FFE020FFF75C
:1055800042FF0220FFF763FF1C20FFF760FF0720A8
:10559000FFF75DFF1220FFF75AFF3720FFF757FF95
:1055A0003220FFF754FF2920FFF751FF2D20FFF78E
:1055B0004EFF2920FFF74BFF2520FFF748FF2B2048
:1055C000FFF745FF3920FFF742FF0020FFF73FFFBD
:1055D0000120FFF73CFF0320FFF739FF1020FFF702
:1055E00036FFE120FFF70FFF0320FFF730FF1D20FC
:1055F000FFF72DFF0720FFF72AFF0620FFF727FF01
:105600002E20FFF724FF2C20FFF721FF2920FFF792
:105610001EFF2D20FFF71BFF2E20FFF718FF2E2067
:10562000FFF715FF3720FFF712FF3F20FFF70FFFAF
:105630000020FFF70CFF0020FFF709FF0220FFF713
:1056400006FF1020FFF703FF2A20FFF7DCFE0020F3
:10565000FFF7FDFE0020FFF7FAFE0020FFF7F7FE40
:105660007F20FFF7F4FE2B20FFF7CDFE0020FFF791
:10567000EEFE0020FFF7EBFE0020FFF7E8FE9F2084
:10568000FFF7E5FE3A20FFF7BEFE0520FFF7DFFE3D
:105690002920FFF7B8FE10BD10B501213348FDF7F2
:1056A00077FC0120FFF753FC01213048FDF76EFC29
:1056B0000120FFF74CFC10BD70B504462A20FFF70F
:1056C000A2FE0020FFF7C3FE0020FFF7C0FE00206F
:1056D000FFF7BDFE7F20FFF7BAFE2B20FFF793FEFA
:1056E0000020FFF7B4FE0020FFF7B1FE0020FFF717
:1056F000AEFE9F20FFF7ABFE2C20FFF784FE0025B7
:1057000007E02012FFF7A3FEE0B2FFF7A0FE681C3F
:1057100085B2B5F5A04FF4DB70BD15490880704720
:105720001449088070471449088070472DE9F047F4
:1057300080460E4617469946FFF70CFEFFF7ACFF72
:10574000FFF7A9FE2C20FFF75EFE3046FFF7EBFFC8
:10575000384613E0B0A6000850A7000858A7000874
:1057600000000240003001400008024000040240F6
:1057700092300020903000208E300020FFF7D0FFC4
:105780004846FFF7CAFF3046FFF796FFF84880F813
:105790000080002431E000252BE0202004EB4401B0
:1057A000F44A02EB8101485504EB4400F24901EB55
:1057B000C00020F8157004EB4400F04901EBC00074
:1057C00020F81560202004EB4401ED4A02EB810132
:1057D000485504EB4400EB4901EBC00020F815707C
:1057E00004EB4400E84901EBC00020F81560681C98
:1057F000C5B20C2DD1DB601CC4B2142CCBDBBDE8D0
:10580000F0870120E149087070470020DF490870E7
:105810007047DF4800887047DE4800887047DE48E0
:1058200000887047D2480078704770B5002420E0A7
:1058300000251AE0202004EB4401D14A02EB81014B
:105840004855D448008804EB4401CE4A02EBC1011C
:1058500021F81500CE48008804EB4401CA4A02EB47
:10586000C10121F81500681CC5B20C2DE2DB601CDB
:10587000C4B2142CDCDBC6480088FFF71DFF70BDE6
:1058800010B504462046E11704EB91718910A4EB92
:105890008101B74A1170FFF7C8FF10BDB448017805
:1058A00001EBD1704010A1EB400008B1142070470B
:1058B0001020FCE7AE48017801EBD1704010A1EB5D
:1058C000400008B10C2070470C20FCE770B505467D
:1058D0000C462A20FFF797FD0020FFF7B8FD284669
:1058E000FFF7B5FD0020FFF7B2FD691CC8B2FFF756
:1058F000AEFD2B20FFF787FD0020FFF7A8FD204617
:10590000FFF7A5FD0020FFF7A2FD611CC8B2FFF75D
:105910009EFD2C20FFF777FD70BD2DE9F041074675
:105920000C4615461E462A20FFF76DFD0020FFF7A6
:105930008EFD3846FFF78BFD0020FFF788FD2846D7
:10594000FFF785FD2B20FFF75EFD0020FFF77FFDB1
:105950002046FFF77CFD0020FFF779FD3046FFF77A
:1059600076FD2C20FFF74FFDBDE8F08110B5014614
:1059700000201AE0202200EB40037E4C04EB83035E
:105980005A54844A128800EB40037B4C04EBC30357
:1059900023F811207E4A128800EB4003774C04EB79
:1059A000C30323F81120421CD0B21428E2DB10BD3F
:1059B00010B5002404E02046FFF7D8FF601CC4B2F5
:1059C0000C2CF8DB10BD10B5FFF72FFFFFF7F0FF31
:1059D00067490978481CC11700EB91718910A0EB49
:1059E0008101634A117010BD70B504460D4616461C
:1059F0005F48007830B1012809D002280ED0032872
:105A00001CD114E029462046FFF760FF16E0C5F1DF
:105A10007F01C8B22146FFF759FF0FE0C5F19F0291
:105A2000D1B2C4F17F02D0B2FFF750FF06E0C4F15B
:105A30009F00C1B22846FFF749FF00BF00BF3012E8
:105A4000FFF705FDF0B2FFF702FD70BD30B502466D
:105A500002EB42034A4C04EB83035B5C02EB42041F
:105A6000444D05EB8404645CA3421FD102EB420366
:105A7000444C04EBC30333F8113002EB42043E4DB7
:105A800005EBC40434F81140A3420FD102EB4203EA
:105A90003D4C04EBC30333F8113002EB4204374DA5
:105AA00005EBC40434F81140A34201D0012300E007
:105AB0000023184602EB42032E4C04EB83035B5C8D
:105AC00002EB42042E4D05EB8404635402EB4203C7
:105AD000294C04EBC30333F8113002EB4204294D87
